S01C00006275696C642F64656275672F67656E657261746F722E7333379C
S21400000000100020A90400008DC100008DC1000072
S2140000108DC100008DC100008DC100008DC10000A3
S2140000208DC100008DC100008DC1000011010000CF
S2140000308DC10000402801004101000029C60000D3
S2140000408DC100008DC100008DC100008DC1000073
S2140000508DC100008DC100008DC100008DC1000063
S2140000608DC100008DC100008DC100008DC1000053
S2140000708DC100008DC100008DC100008DC1000043
S2140000808DC100008DC100008DC100008DC1000033
S2140000908DC100008DC100008DC100008DC1000023
S2140000A08DC100008DC100008DC100008DC1000013
S2140000B08DC100008DC100008DC100008DC1000003
S2140000C08DC100008DC100008DC100008DC10000F3
S2140000D08DC100008DC100008DC100008DC10000E3
S2140000E08DC100008DC100008DC100008DC10000D3
S2140000F08DC100008DC100008DC100008DC10000C3
S2140001008DC100008DC100008DC100000000000000
S214000110074B19680868B0E8F04F80F30988BFF30A
S2140001206F8F4FF0000080F311887047AFF30080A8
S21400013094270020000000000000000000000000DF
S214000140EFF30980BFF36F8F154B1A681EF0100F80
S21400015008BF20ED108A20E9F04F10602DE9090055
S2140001604FF0600080F31188BFF34F8FBFF36F8F9F
S21400017003F096FB4FF0000080F3118809BC196865
S2140001800868B0E8F04F1EF0100F08BFB0EC108AF9
S21400019080F30988BFF36F8F704700BFAFF300800E
S2140001A0942700200000000000000000000000006F
S2140001B001F0FF01102A2BDB10F0070F08D010F813
S2140001C0013B013A8B422DD010F0070F42B3F6D117
S2140001D0F0B441EA012141EA014122F007047FF030
S2140001E000070023F0E80256083C85EA010586EA87
S2140001F0010685FA47F5A3FA87F586FA47F6A5FAC3
S21400020087F68EB9EED1F0BC01F0FF0102F00702CE
S21400021032B110F8013B013A83EA010313B1F8D179
S2140002200020704701387047002D06BF354603385A
S214000230073815F0010F07D1013015F4807F02BF93
S214000240013015F4C03F0130F0BC0138704700BFE4
S21400025001292DE9F04F4AD889B39FED275B9FED22
S214000260286B9FED297B0FF2C80BDBE900AB0FF282
S214000270C809D9E9008932A7D7E9006732A5D5E9C8
S214000280004533A3D3E900239FED214B80ED045BAB
S21400029080ED004B80ED024B80ED066B80ED087B19
S2140002A0C0E90AABC0E90C89C0E90E67C0E9104591
S2140002B0C0E91223C0F8D0100020BDE8F08F9FEDF3
S2140002C0165B9FED176B9FED187B0FF28C0BDBE92F
S2140002D000AB0FF28C09D9E9008923A7D7E900679C
S2140002E023A5D5E9004524A3D3E90023CCE76FF086
S2140002F07400E2E7AFF30080D89E05C15D9DBBCBDE
S21400030007D57C362A299A6217DD70305A01599132
S214000310000000000000000008C9BCF367E6096A98
S2140003203BA7CA8485AE67BB2BF894FE72F36E3C7F
S21400033039590EF7D8EC2F15310BC0FF67263367F7
S21400034011155868874AB48EA78FF9640D2E0CDBFA
S214000350A44FFABE1D48B547F1361D5F3AF54FA5C6
S214000360D182E6AD7F520E511F6C3E2B8C68059BEA
S2140003706BBD41FBABD9831F79217E1319CDE05BA2
S2140003800348044B834202D0034B03B1184770471F
S2140003908819002088190020000000000548064B38
S2140003A01B1AD90F01EBA301491002D0034B03B16E
S2140003B018477047881900208819002000000000A0
S2140003C010B5064C237843B9FFF7DAFF044B13B198
S2140003D00448AFF300800123237010BD9A33002039
S2140003E0000000000840010008B5054B1BB1054998
S2140003F00548AFF30080BDE80840FFF7CFBF00BF59
S21400040000000000D819002008400100A3F5803A3B
S214000410704700BF174B002B08BF134B9D46FFF7D6
S214000420F5FF00218B460F461348144A121A11F0A6
S21400043048FA0E4B002B00D098470D4B002B00D0EF
S21400044098470020002104000D000D48002802D027
S2140004500C48AFF3008009F041FE2000290011F09F
S2140004604DF909F0E3FB00BF0000080000000000A3
S214000470000000000010002088190020705E002098
S2140004800000000000000000054A06490346106808
S21400049003448B4294BF13604FF0FF30704700BF99
S2140004A0041000200000012008B500F073F8124B7D
S2140004B012498B4212D3124B124900208B4218D39A
S2140004C0FFF7A8FF186850F82240586840F8224006
S2140004D0013298688242F5D30C33EAE70022F8E747
S2140004E01C6844F8220001325C68A242F8D3083344
S2140004F0E4E70022F8E700BF104001001C400100BE
S2140005001C4001001C4001000048704700F04902F2
S214000510104AD2F8943003F00703023B032B13D89B
S214000520DFE803F00C14020E0B4B1B68D2F8000138
S214000530C0F304200130B3FBF0F07047074BF4E73C
S214000540074B1B685B08F1E7054BEEE74FF40043EB
S214000550ECE700BF00400E401010002014100020F2
S2140005600810002008B5FFF7D3FF054BD3F8083175
S214000570C3F308230133B0FBF3F0024B186008BD49
S21400058000400E400C100020014B1868704700BF5A
S21400059014100020044B054A9A60D3F8882042F4D1
S2140005A07002C3F88820704700ED00E000000000ED
S2140005B0014B1868704700BF1010002070B59400FB
S2140005C0224605460E460BF070FE431C0AD058B96C
S2140005D022463146284611F04AF90028034808BF4B
S2140005E0002070BD0248FCE70248FAE710E000F081
S2140005F021E000F024E000F010B5044600F0A4FF6F
S214000600431C10D088B901F013F820F003002346ED
S2140006102044984201D1002010BD53F8042B01322B
S214000620F7D00348F8E70348F6E70348F4E700BFC7
S2140006300EE000F021E000F024E000F00C4B9842C1
S21400064005D90C4B984210D80122012301E0002264
S214000650134609490B640949D1F8003123F0807329
S21400066043EA0263C1F8003170470222EDE700BF9B
S2140006700048E8010090D0030000C84300400E4048
S2140006800F4B5B680F4B30B500221C46C9B21D7974
S2140006908D4202D11D6885420DD20132052A03F132
S2140006A00803F4D10321064A536823F0407343EA53
S2140006B00163536030BD04EBC2046179F3E700BF09
S2140006C000000E40D028010038B5074C41F67133C3
S2140006D0256C2364FFF718FFADB20021FFF7D0FFAB
S2140006E00DB10023236438BD00000E40044BDB6BC5
S2140006F05B0604D4034AD2F8C830002BFBD17047FF
S21400070000300E400000C64308B5FFF7EFFF024B6F
S2140007105868C0F3014008BD00300E40044BD3F8C3
S2140007204421D20703D4D3F840211042FBD17047AE
S21400073000400E4038B5064C256C41F671332364F4
S214000740ADB2FFF79DFF0DB10023236438BD00BF97
S21400075000000E4038B5C0F30323013B092B11D827
S214000760DFE803F0052710102B221D101511154D7C
S214000770C0F3043405F1424505F5801504EBC500C9
S2140007808000016038BD104DC0F30434F2E70F4D11
S214000790C0F304344FF48030FFF7C0FFEAE7C0F33D
S2140007A004340B4D1020F7E7C0F30434094D012044
S2140007B0F2E7094DC0F30434DCE7084DC0F3043417
S2140007C0D8E700BF00400E4050410E40F0400E40BB
S2140007D0E8400E40E0400E40C0400E40B0400E40A4
S2140007E0C0F30313013B092B2AD8DFE803F0050BFF
S2140007F00F1929291F23374B274BD3F80001C0F3C5
S21400080004207047244BD3F81401F8E7224BD3F8A2
S2140008100031C3F30063013301209840013870476C
S2140008201D4BD3F80C01C0F3082070471A4BD3F8C1
S2140008300801F8E7194B984204D0194B984207D0A4
S21400084000207047144BD3F8203103F00F03E3E782
S214000850114BD3F82031C3F30113DDE7114B984257
S2140008600CD003F5B01303F580539842E8D10A4B39
S214000870D3F82831C3F301230433CDE7064BD3F86E
S2140008802831E8E7084B9842DAD1034BD3F8300119
S21400089000F00300704700BF00400E4080061600C0
S2140008A080162E0090171A00A009140000F00F0002
S2140008B00138072850D8DFE800F00415244F3438F4
S2140008C04F402B4BD3F8943003F00703023B052B25
S2140008D006D8DFE803F049243F0305430B207047A2
S2140008E005207047224BD3F8800000F0070002284E
S2140008F03DD0042836D0012808BF032018BF0120A9
S21400090070471B4BD3F8843003F00703013B032BDF
S21400091003D8DFE803F0041F2527012070470320D3
S2140009207047134BD3F88800DFE7114B1B6F13F0AB
S214000930010F0CBF0720092070470D4BD3F85C3120
S21400094003F03003202B0FD0302B0FD0102B08BF16
S2140009500720D3E702207047002070470C2070471E
S214000960062070470A20704704207047082070470A
S21400097000400E4008B50146FFF798FF1A4B994213
S21400098011D01A4B994212D0194B994204D1194BE7
S214000990D3F8800000F007000138032821D8DFE8EC
S2140009A000F00A0E1612134BD3F88400F2E7114B30
S2140009B0D3F88800EEE7BDE808400BF0E8BBBDE8DA
S2140009C00840FFF7F5BDBDE808400BF0E3BBFFF7B6
S2140009D09FFD084BD3F80031C3F300630133D840C2
S2140009E008BD0020FCE700BF03002000050024002F
S2140009F002001E0000400E4000F47813B3F5B01F4E
S214000A0010B5044674D025D8B3F5402F5ED010D864
S214000A10B3F5802F49D005D83BB1B3F5003F4FD092
S214000A20002010BDB3F5202FFAD1BDE81040FFF727
S214000A306FBDB3F5801F00F08480B3F5A01F4DD0C6
S214000A40B3F5602FECD14A48FFF730FF072878D07F
S214000A500928E9E7B3F5381F53D013D8B3F5001FBC
S214000A6058D00AD8B3F5D01F56D0B3F5F01FD7D15B
S214000A704048BDE81040FFF77DBFB3F5101FCFD14B
S214000A803D48F6E7B3F5481F4DD0B3F5781F65D05F
S214000A90B3F5401FC4D13948FFF76CFF384BD3F885
S214000AA02831C3F30123043320E0FFF731FD344B34
S214000AB0D3F80C31C3F308230133B0FBF3F0B0E7EF
S214000AC0FFF726FD2E4BD3F80831F3E7FFF720FD9E
S214000AD02B4BD3F81431C3F30423EDE72648FFF776
S214000AE049FF274BD3F8303103F00303D84098E78B
S214000AF02048FFF73FFF224BD3F8203103F00F03C7
S214000B00F4E71C48FFF736FF1D4BD3F82031C3F33C
S214000B100113EBE71948ACE71848FFF72BFF184B13
S214000B20D3F82831F3E71748FFF7C0FE072808D0A8
S214000B30082809D004287FF473AFBDE81040FFF7FB
S214000B4023BD114B18686CE7FFF7E2FC0C4BD3F89B
S214000B500031C3F3042303FB000062E7FFF7D8FC71
S214000B60014620460BF04AFBB1FBF0F059E700BF08
S214000B7006000E0002001E000500240003002000F0
S214000B8000400E40B80032001810002010B50428AF
S214000B9013D8DFE800F047032F132100294AC1F3DA
S214000BA00801D2F86838002BFBD1274A136A23F4D1
S214000BB0FF7323F001030B43136210BD214A01F0BB
S214000BC07F01D2F86038002BFBD11F4A136923F04F
S214000BD07F030B431361F0E71A4A01F07F01D2F856
S214000BE06438002BFBD1184A936923F07F030B432C
S214000BF09361E2E7144AD2F89030536A23F0300348
S214000C0043F010035362146B104BC1F3C310033050
S214000C100F2803EA040328BF0F200B4343EA0073A0
S214000C201363CAE74F29074A28BF4F21D2F8743802
S214000C30002BFBD1044A936B23F07F030B43936393
S214000C40BBE700BF0020C84300400E4000F8FF0F7F
S214000C50104A536A13F0300F18D0202913D03029C9
S214000C6014D000290C4B08BF4FF44003D2F8901064
S214000C7033EA0101FAD15B0246BFD2F8A000C0F306
S214000C808020012070474FF40003EFE74FF4400345
S214000C90ECE700BF00400E40FF33E10702280AD110
S214000CA029B1064B4FF48060C3F8A800596612B10C
S214000CB00220FFF7CDBF0120704700BF00400E4066
S214000CC00428F8B548D8304B13F800C02F4B1D5CED
S214000CD02F4B33F810702F4B33F810402E4B002953
S214000CE040D0022839D15C6A14F0300F35D12B4C35
S214000CF0E46B5C6AE40705D55E6A26F0300646F0CB
S214000D0010065E62264C244B25441F66AD002B68F9
S214000D10002BFCD002B36444A4002368002BFCD054
S214000D20022819D1C1B11C4D696A11F0010116D013
S214000D3001222021FFF7B2FFD5F89C600122002196
S214000D400220FFF7BDFFC6F30A010220FFF71EFFD1
S214000D502F662368002BFCD0F8BD0021D2E7FFF7F2
S214000D6077FFE9E701211C66A940D3F89000084206
S214000D70FBD1002AF0D00123074903FA0CF3D1F87F
S214000D8090201A42FBD1E7E7CB280100C6280100D5
S214000D90BC280100B228010000400E4000300E4082
S214000DA08004F2101C4B70B51C681C4B9C4221D86A
S214000DB01B48FFF743FC012211460320FFF780FF84
S214000DC0FFF782FC0024174B01265E67FFF7A0FBA7
S214000DD0FFF734FCFFF7C6FB0546FFF795FC014618
S214000DE02846FFF7A7FCB4B931462046BDE8704058
S214000DF000F0C4B80021204600F0C0F80848FFF70D
S214000E001DFC012211460320FFF75AFFFFF75CFC8A
S214000E10FFF76CFCD7E770BD08100020002D3101ED
S214000E200148E80100400E40034BD86B80F04000BC
S214000E30C0F38010704700BF00300E4042EA032225
S214000E40B2F5007F10B5194C29D00AD8B2F5807FCC
S214000E5022D040F201139A4215D062B9D4F81C325F
S214000E600BE0B2F5407F1DD040F201339A4210D01D
S214000E70D4F8283201E0D4F82432C3F30722DBB2D8
S214000E8003600A6010BDD4F824321A0EC3F3074379
S214000E90F6E7D4F82832F8E7D4F81C32F5E7D4F8A9
S214000EA02032EAE7D4F82032EFE700BF0081E00FF7
S214000EB008B5FFF7B9FF20B1024AD2F8C830002BB8
S214000EC0FBD108BD0000C6430E4A0379916921F0A4
S214000ED03F010B43017843EA8103417843EA41032B
S214000EE0817843EAC103C178012908BF43F00103B2
S214000EF093611368417923F4403343EA0143136056
S214000F00704700BF00300E402DE9F04104460D4604
S214000F10FFF78AFF60B3DFF86080FFF7C9FFD8F8F5
S214000F200430C3F301439C4222D0124BD3F8003165
S214000F30FFF7EEFA022C07464FF0100609D12146BD
S214000F40FFF7F8FBC8F8106095B1BDE8F041FFF771
S214000F50AFBFC4F102039E40C8F810600DB1FFF7A2
S214000F60A7FF2CB921463846BDE8F041FFF7E2BBA3
S214000F70BDE8F08100400E4000300E4038B5054612
S214000F800C46FFF751FFB8B145B90C4BD3F80051EA
S214000F90FFF7BEFAC5F3042505FB0005084B1B78D2
S214000FA021463BB1074B9D4204D80220BDE838409D
S214000FB0FFF7AABF0020F9E738BD00BF00400E408B
S214000FC09B330020002D3101234B4AF6E85210B522
S214000FD0596B5A639A6FD207FCD41B6C13F0030349
S214000FE006D01E4A01249842C2F8B44A1AD110BD4F
S214000FF0A0B1431E012B17D8174A4FF40023D36223
S214001000936FDB07FCD4136C23F0030343F0010358
S2140010101364114A536A1C03FCD505E00F4BC3F852
S214001020B40AE4E7032BE4D00B4B9A6FD207FCD448
S2140010301A6C22F0030202431A649A6F12F001023D
S214001040FBD10038054C18BF01200129C4F8B40AAA
S21400105008BF5A63CBE700BF00300E400000C6430F
S2140010602DE9F04F00238BB0CDE90433CDE90633EC
S214001070CDE90833A0F5E163B3F5966F0546019117
S214001080934603D900200BB0BDE8F08F624BDFF823
S2140010908C81D3F81842B0F5E16F15BF4FEA146A99
S2140010A0C4F3072AC4F30744E4B20694CDF824A098
S2140010B0D8F84C60C6F301768CBF01220022334676
S2140010C007A904A815BF4FF4E1674FF496674FF4DD
S2140010D096694FF416790392FFF7B0FED8F8EC3015
S2140010E0039AC3F3012308A905A80293FFF7A6FEF7
S2140010F0A5EB070CAAEB04020CFB02F2B2FBF9F21A
S21400110014445445079F0498089A0599BAD8A2EB48
S214001110010E0CFB0EFEBEFBF9FE11EB0E012CBF02
S2140011204FF0010E4FF0000E8A42ABD3BEF1000F17
S214001130A8D13A1A0CFB02F2B2FBF9F280182CBFC7
S2140011400122002287429DD3002A9BD1029BBBF13D
S214001150000F0FD0D8F85C20B5F5E16722F4FE4208
S21400116018BF012722F0020242EA470242EA04229E
S214001170C8F85C20019A0AB9012084E7264A022EA4
S214001180D2F830223ED0032E3FD0012E14BFD2B26A
S214001190C2F30722120312F4702F7FF473AF1F4EB0
S2140011A0F46E24F470442243F2661B4A022BD2F8F3
S2140011B030222CD0032B2DD0012B14BFD2B2C2F379
S2140011C00722120312F4702F7FF45CAF134CD4F88E
S2140011D0EC3023F470431343C4F8EC30636E88425B
S2140011E038BF084623F4FF73E72823F0010328BF1F
S2140011F0E720B5F5E16F18BF43F0010343EA40036B
S2140012006366B9E7C2F30742C4E7120EC2E7C2F349
S2140012100742D6E7120ED4E70081E00F00300E40FA
S2140012202F4B1A6FD96C11F0010F02F0060242D054
S214001230002A40D013284FD9143813288CBF102307
S21400124008232749013BCA6C180322F47F4240EA70
S21400125003231343CB64234BCA6C1B88C2F30322BD
S2140012602833013202EB820003EB5303B3FBF0F3A7
S214001270C86C013B072B28BF072320F0EE6040EA2E
S214001280036343F48013CB64174BB3F90030002B91
S21400129010DB2833500800EB420203EB5303B3FB8A
S2140012A0F2F30A6D072B28BF072322F0700242EAEA
S2140012B003130B657047D96C01F00101114304D18B
S2140012C0092809D90A380928B8E7DB6C13F00103A6
S2140012D0B7D01AB92728B1E70423B2E70023B0E74E
S2140012E000300E409833002094330020064A074B07
S2140012F0D3F88039136F23F0070303431367044BB7
S2140013001888FFF78DBF00BF00300E400000C643B0
S21400131096330020394B02222DE9F0419A639B6BED
S21400132003F00F039342044603D000252846BDE889
S214001330F081C288B0F808808588B0F90C604778DC
S2140013404A2A4ED9B2F5FA7F4DD340F6C3139A42D5
S2140013508CBF4FF040524FF000522849CB6C23F020
S214001360405323F00103002EA8BF43F001031343AC
S214001370CB64D1F8EC3043F44073C1F8EC30204B2A
S2140013801D80CB6E43F08073CB661E4BD3F880096E
S21400139000B10420FFF7AAFF1B4BA3F800801B4BED
S2140013A028461E80FFF73CFFA37BFBB1012B21D014
S2140013B0012260881146FFF753FE05460028B4D088
S2140013C00E4AD36B43F48063D3633846FFF7FCFDC5
S2140013D0A37AA3F12002534253410A4AC2F8943733
S2140013E0A4E70022B9E74FF08052B6E7034B084A5D
S2140013F09A65DDE7014B074AFAE700BF00300E406A
S214001400963300200000C643983300209433002013
S21400141077402057372110B7054B5A685B68054B55
S21400142041F671321A649A6822F001029A60704797
S21400143000300E4000000E40034B9A6822F0010276
S2140014409A6000221A64704700000E40094A0A4B50
S214001450D969C90705D512B96FF002007047013A7D
S214001460F6E7002AF8D001221861DA60D86940F35E
S214001470800070478096980000000E4070B509B94D
S214001480002070BD0E4A0023082550F823409461C2
S2140014900C4CD5600133D669F60705D514B96FF044
S2140014A00200EEE7013CF6E7002CF8D0D469A4076A
S2140014B002D49942E9D1E3E76FF00100E1E700BF0B
S2140014C000000E40809698002DE9F8431C4B0D4610
S2140014D041F671311E6C19641A498046486849689D
S2140014E0996841F00101B6B2996097084FF000097B
S2140014F0B94501D3002005E008EB89042046FFF734
S214001500A5FF48B10E4B9A6822F001029A600EB110
S21400151000221A64BDE8F883C4F30A01C1F500612D
S2140015208908A7EB0903994228BF19462846FFF702
S214001530A5FF0028E6D1894405EB8105D8E700BF62
S21400154000000E4000300E40234B41F671311A6CFD
S21400155010B5196421494C684968996841F0010141
S214001560996001211861D960D9694C0792B209D5F2
S214001570996821F0010199600AB100221A644FF0BF
S214001580FF3010BD0221D9601549D869C00700D5C3
S21400159069B9D86910F002000BD0996821F00101F2
S2140015A099600AB100221A646FF00100E9E7013978
S2140015B0EBE741B9986820F00100986002B1196421
S2140015C06FF00200DDE7996821F0010199600AB921
S2140015D00020D6E71864FBE700000E4000300E40FF
S2140015E0809698000D4AD2F8E430D2F8E0109B00BE
S2140015F003F03C03C1F381110B438370D2F8E03053
S21400160003F03F034370D2F8E830D2F8EC2003F042
S214001610F003C2F3031213430370704700FF0FE09A
S214001620024BD3F8FC00000E704700BF0081E00FAD
S214001630044BD3F8E4301B0E0A3303F01F030120DB
S214001640984070470081E00F00230C4A036003298E
S21400165010B50263044643630ED105210AF00FFE5F
S214001660636823F4407343F400736360636823F491
S214001670406343F40063636010BD00BF20001000A9
S2140016802DE9F04F1E460446894692461F460FCE69
S2140016908BB001AD0FC596E80F0085E80F0000255A
S2140016A009950AF0B0FD5146064604F582700AF028
S2140016B0C5FD494604F584700AF0C0FD394604F5B8
S2140016C086700AF0BBFD30460AF0A1FD5F4E604B07
S2140016D0DFF8BC91DFF8BCA12365DFF8BCB10AF0E7
S2140016E092FDC4F850B0D4F814800AF090FD18F0BB
S2140016F0807F19D0574B23650AF085FDC4F850B09B
S21400170065690AF084FDEB0140F188800AF07BFDF4
S2140017101499054604F588700AF098FD28460AF0E4
S21400172076FD0BB0BDE8F08F18F4807F1CD14A4BD5
S2140017302365013D9023A360636913F4807F474BC4
S21400174023650ED00AF05FFD3946834604F58070A7
S2140017500AF074FD58460AF05AFD414B2365414B8A
S21400176063658823A360B8E7002D13DA3E4BC4F800
S21400177050A063650AF047FD01A9834604F5807012
S2140017800AF064FD63695846C3F3034309930AF0FD
S2140017903EFD6D42354B23656369DFF800C113F4E7
S2140017A0407F4FF08803A3604FF001016269266511
S2140017B061656369C4F850C00ABF01204FF0FF306E
S2140017C005F1FF358842C3F30723C2F300220BD18D
S2140017D032B1D90704D5264B2365264B6365A9E7A6
S2140017E0254B2365254BF9E79AB9DA0711D5244B23
S2140017F02365244B6365A16501A904F580700AF092
S2140018001DFD099B03F00F03C4F848318323A36032
S21400181090E71D4BC4F850906365EDE70AF0F3FCC3
S21400182004F580763946054630460AF007FD284618
S2140018300AF0EDFC154B23650AF0E5FC1499044606
S21400184030460AF003FD204669E700BFC93E81988E
S2140018503084880198390100C93E8101D23E820158
S214001860C024D0340982010099830100D908010000
S214001870C8340981E20C8201C80881E20C820100AA
S21400188083D9341181E21482E2148201E01001004F
S21400189083D9108190A2848835393801DB3E010057
S2140018A02DE9F04F89B081460D46164600212022CC
S2140018B068461F4610F005F84FF00A0A99F80030FF
S2140018C0022B40D0032B07D0012B44D06FF0710BB6
S2140018D0584609B0BDE8F08F202269463846B04722
S2140018E08346BBF1000FF3D100F090FB99F800108F
S2140018F00446FFF7A9FE0AF086FC6946804604F512
S21400190082700AF09BFC40460AF081FC374B236548
S21400191020460AF0CCFC0AF076FC04F58078834674
S214001920694640460AF092FC58460AF070FC009B56
S214001930012B18D8204600F0ABFBBAF1010ABDD146
S214001940DFF8BCB0C4E71C2269463846B04700231F
S21400195083460793C5E7182269463846B0470023F2
S21400196083460693F5E70AF04EFC05F1080706469F
S214001970294604F584700AF09EFC05F110093946E4
S21400198004F586700AF097FC494604F588700AF05C
S21400199092FC30460AF03BFC154B236520460AF0C5
S2140019A086FC494640460AF0C0FC8346C8B9114B3F
S2140019B02365114B636520460AF079FC29464046AC
S2140019C00AF0B3FC834660B90C4B23654FF48E7364
S2140019D0636520460AF06BFC394640460AF0A5FCD3
S2140019E08346204600F054FB72E700BF30C80C0167
S2140019F081E11C018CE11C81D11C0100E11C81D914
S214001A0000B3FFFF2DE9F843064610460F46904602
S214001A101D460CF02EFE28B129463846BDE8F84390
S214001A200CF0FDBD2B69002B40F0AD8000F0EEFA07
S214001A3031780446FFF708FE0AF0E5FB04F58076E9
S214001A4008F11001814630460AF035FC48460AF097
S214001A50DEFB574B236540F28113636520460AF090
S214001A6026FC0AF0D0FB2946814630460AF023FCC5
S214001A7048460AF0CCFB4F4B23650123204663659E
S214001A800AF015FC4C4B23650AF011FC0AF0BBFB70
S214001A9005F10801814630460AF00DFC48460AF07A
S214001AA0B6FB464B236520460AF001FC0AF0ABFB6A
S214001AB008F108094946054604F582700AF0FBFB62
S214001AC028460AF0A4FB3E4B236520460AF0EFFBAF
S214001AD00AF099FB4146054630460AF0ECFB2846DC
S214001AE00AF095FB374B2365374B636520460AF0B3
S214001AF0DEFB07F1100130460AF017FC0546002809
S214001B003BD1324B236520460AF0D1FB304B236590
S214001B100AF0CDFB2F4B23650AF0C9FB2E4B23653D
S214001B204FF48A7363650AF0C2FB2C4B23650AF0F8
S214001B30BEFB394630460AF0F8FB0546E8B9284BA6
S214001B402365284B636520460AF0B1FB0AF05BFB71
S214001B504946054630460AF0AEFB28460AF057FBD3
S214001B60214B2365214B636520460AF0A0FB07F155
S214001B70080130460AF0D9FB0546204600F088FAF0
S214001B802846BDE8F88328460CF073FD08B14146A8
S214001B9043E72B69002B3FF449AF012105F1100004
S214001BA00BF0DEFD00283FF441AF114DE8E700BF23
S214001BB08184E11C83D91C83E11C810182D11C0134
S214001BC0C81482019983D91481E11C018CE11C019F
S214001BD0811C8401D91C830191D11CE0D814140106
S214001BE081CB1481D11C820181E11C84E2140100A6
S214001BF080B0FFFF2DE9F04788B0904605460F46B7
S214001C0000F004FA2978DFF854910446FFF71CFD2B
S214001C100AF0F9FA04F5807608F110010546304618
S214001C200AF049FB28460AF0F2FA40F28313C4F899
S214001C305090204663650AF03AFB0AF0E4FA08F191
S214001C400801054630460AF036FB28460AF0DFFA59
S214001C504FF0010A354B23652046C4F854A00AF01D
S214001C6026FB07F1100130460AF05FFB0546002808
S214001C7054D12F4B23654FF48673636520460AF0D4
S214001C8016FB0AF0C0FA4146054604F588700AF0CD
S214001C9012FB694630460AF0D9FA28460AF0B7FA27
S214001CA0244B2365244B6365244BA36520460AF02A
S214001CB0FEFA234B2365234B63650AF0F8FA224BA2
S214001CC02365224B6365C4F858A00AF0F0FA39463B
S214001CD030460AF02AFB054600BB1D4B23651D4B0C
S214001CE0636520460AF0E3FA0AF08DFA694605466F
S214001CF030460AF0A3FA28460AF089FA164BC4F8CA
S214001D00509063654FF48A73A36520460AF0CFFAB5
S214001D1007F1080130460AF008FB0546204600F0A9
S214001D20B7F9284608B0BDE8F08700BF821CC00C93
S214001D3091D11CC0C00C81E11C82DC0C8114840192
S214001D40E11C81C80C0C8101D20C848BD91CE014D8
S214001D5084E21482D11C8301C00C82D38182D11C00
S214001D602DE9F047A2B00E46054600F04FF915F8EB
S214001D70041B044606F11007FFF766FC1C22002130
S214001D8003A80FF09EFD4FF0010839460AA80DF192
S214001D906809CDF808800AF015FB294612A80AF053
S214001DA011FB12AB0AAA02A9CDF800902046FFF755
S214001DB067FC0AF028FA4946054604F5867904F5D4
S214001DC082700AF03BFA06F1080A314648460AF0E5
S214001DD072FA514604F588700AF06DFA28460AF041
S214001DE016FA134B236520460AF061FA114B236559
S214001DF00AF05DFA104B23650AF059FA0F4B23657B
S214001E000AF055FA514604F580700AF08EFA58B971
S214001E10314648460AF089FA30B9204600F038F9CB
S214001E20414638460BF09AFB22B0BDE8F08700BF6B
S214001E308AD11C0181D91C0183D11C0181E11C01BE
S214001E4010F1860F1BD010F1850F08DA10F1930FF2
S214001E5018D010F1870F07D04FF0FF3070470038CA
S214001E6018BF012040427047094B99420DD00433F9
S214001E7099420CBF6FF073006FF06D0070476FF003
S214001E80710070476FF06F0070476FF07200704718
S214001E9005000002012910B50CDC084C084B00298F
S214001EA00CBF2146194600F065FD2146BDE81040EE
S214001EB0FFF7C6BF6FF0730010BD00BF0900000239
S214001EC00800000208B500F09BFDBDE80840014987
S214001ED0FFF7B6BF0900000207B5002301932022D2
S214001EE001AB00F017FE034903B05DF804EBFFF703
S214001EF0A7BF00BF0900000210B5044C214600F041
S214001F0039FD2146BDE81040FFF79ABF05000002E4
S214001F1008B500F075FDBDE808400149FFF790BF21
S214001F200500000207B500230193142201AB00F060
S214001F30F1FD034903B05DF804EBFFF781BF00BF76
S214001F400500000238B5124D124B134A13491448C7
S214001F5005F0BCF92B7803F0FF04BBB900F02EFFA8
S214001F60012802D900F05EFF04462B782BB90D4BF2
S214001F700D481B68984701232B7000F01FFF0128AF
S214001F8004D92046BDE8384000F06EBF38BD00BF1B
S214001F909C33002021C4000047C400008FC400000A
S214001FA071C400004810002014290020F8B5134E14
S214001FB0337843B900F002FF0128054604D900F043
S214001FC031FF041E11DAF8BD337803F0FF04002B4E
S214001FD0F9D10B4F0B483B6898473B680A4898472F
S214001FE001239D42337003D8EDE73378002BF0D001
S214001FF02046BDE8F84000F037BF00BF9D33002004
S21400200048100020A41A0020081B0020F8B5FFF78F
S214002010CDFF00F0D3FE0228184D194E12D1194FED
S2140020200021386E00F098FF044660B100F0C6FE4E
S214002030022805D1D7F8C400002100F08DFF28B98A
S214002040012400E0002455F8340058B934680D4ADD
S2140020500D4B04F0010464201B6800FB0420984725
S21400206055F83400094B05EBC4056A6813449B0019
S21400207001221A60336813443360F8BDF828010063
S214002080A01A0020A41A0020401000208005F2109C
S2140020900D4B984214D003F58063984212D101226A
S2140020A00A4B03EBC20364205968094B0B449B00A0
S2140020B000211960074B08491B6800FB02101847EF
S2140020C00022EDE7704700BF00000F40F82801002F
S2140020D08005F2103C100020A41A002000F01F0219
S2140020E0A0F50620A0F5506040090849012393405A
S2140020F051F820201A4341F82020054951F82020A5
S21400210022EA030241F82020704700BF801B00200F
S2140021106C1B0020A0F50623A3F550630D4A5B094F
S21400212000F01F000121814052F82300014342F8CD
S21400213023100949D1E90030034488680344C8687D
S214002140096903445B1802BFC2E90033C2E90233DF
S214002150136170476C1B0020801B00202DE9F04F98
S214002160A9B0CDE90401339E03921D4604464140C2
S214002170082221FA02F34B40980702F1080218BF22
S2140021809B00202A1C44F4D18123B4FBF3F303EB19
S214002190C313E41A734B1B7804F5062404F5506445
S2140021A0002B3ED107F03AFB074620B16FF09100B6
S2140021B029B0BDE8F08F0146402208A80FF081FB49
S2140021C04022394618A80FF07CFBDFF8B481DFF810
S2140021D0B491C3460BF10F0ACDF800A0102208A94F
S2140021E0D9F800005B4610F06BF908F110080146BC
S2140021F008AF0022914246D1CDF800A05B46D9F840
S2140022000000102218A910F064F918AF83464FF0AA
S214002210000AD34541D1544B9845DAD1514B01229F
S2140022201A70DFF864B14FF0810A4FF00008A4F589
S2140022300627A7F550635B0904F01F015BF823200F
S214002240CA40D2073DD4494A52F82330CB40DB0778
S2140022502AD5B8F1000F08BFA046A7F6FF4781238E
S214002260B7FBF3F303EBC313FF1A07F50624BAF123
S214002270010A04F55064DAD1039BBBB1B8F1000F34
S21400228014D0444619E057F8040BCDE90612FFF7C0
S21400229025FF079A06990132ACE757F8040BFFF7BB
S2140022A039FF0AF1010AB4E7039B13B96FF08B00FC
S2140022B07EE7B8F1000F18BF4446349B00201C6030
S2140022C076E7329B13B1329A002313600EB10023D7
S2140022D033601023DFF8AC900093D9F80000002399
S2140022E02A46214609F014FD60BB32992A68204B25
S2140022F0C9B99A4206D0D9F80000214609F0A0FDD7
S2140023000028D3D1D5E90223DDE90410834208BFB3
S2140023108A42A2D1039B002BCFD06B68012BCCD175
S2140023206FF0840044E7329910209A420860E2D1A8
S214002330002EE7D0D9F80000334618AA214609F047
S2140023403BFD48B10B4B9842D5D00B4B9842D2D0B0
S2140023500A4B9842D6D029E7329A336812689B1AFD
S2140023603360CFE79E330020007108006C1B00200E
S214002370105D175EFFDF00F011E000F0FEDF00F0FA
S214002380006D080050100020801B002070B5104D16
S2140023902B7803F0FF04ABB900F010FD012802D93A
S2140023A000F040FD04462B782BB90A4B0A481B6800
S2140023B0984701232B7000F001FD012802D9204622
S2140023C000F052FD054B04481B68BDE870401847F6
S2140023D09F33002048100020941B0020401000204F
S2140023E0034B1B781BB1034B03481B681847704709
S2140023F09F3300203C100020941B00202DE9F04F56
S21400240087B08246DDF840B08946984616462AB11F
S214002410002B53D040F26C739A4252D8BBF1010F96
S21400242052D806F1100700243946012005940AF018
S214002430DEF8054600284AD021463A460FF041FA13
S214002440FFF7A4FF05ABCDE9014300942B4601221C
S21400245050464946FFF782FE044690B110F18C0FB5
S21400246008BF6FF08D043A46002128460FF029FA7F
S21400247028460AF0CCF8FFF7B3FF204607B0BDE8C1
S214002480F08F144B2B60C5E902A9C5F804B02EB135
S2140024903246414605F110000FF048FA059E0E48F8
S2140024A03B4600682A46314609F09AFB18B9304682
S2140024B0FFF714FED7E76FF09104D4E76FF08604B9
S2140024C0DBE76FF09104D8E76FF08504D5E76FF08F
S2140024D08C04D2E7105D175E501000202DE9F047FF
S2140024E08CB0DDE9147881460C4616461D466BB165
S2140024F0B8F1000F49D0002F47D0B7F1005F44D3A2
S214002500C3F1005303F580339F423ED810220021CA
S2140025104FF0000A08A80FF0D4F9CDE905AAFFF796
S21400252035FF07AB029305AB019306AB009321463C
S21400253008AB52464846FFF711FE0446D0B9059B45
S2140025403DB1B3421CD853EA060504D06FF08604AA
S21400255010E0B342FAD3069B0D48C8F80050009529
S2140025600799006833443A4609F0D2FB002818BFA2
S2140025706FF09104FFF734FF20460CB0BDE8F087FB
S2140025809B1B9D4228BF1D46E5E76FF08604F3E7D8
S2140025905010002070B58CB00C4610220021054665
S2140025A0002608A80FF08DF9CDE90566FFF7EEFEC8
S2140025B007AB029305AB019306AB0093214608AB2D
S2140025C032462846FFF7CAFD0446D8B9099B012BB8
S2140025D01DD0079D114B2946186809F031FCC8B973
S2140025E0A5F50623A3F550630D495B0905F01F000A
S2140025F00122824051F823004240284641F8232019
S214002600FFF788FDFFF7ECFE20460CB070BD6FF0BC
S2140026108404F7E76FF09104F4E700BF5010002041
S214002620801B0020034B1B781BB1034B03481B6821
S21400263018477047A03300203C100020F81B0020ED
S21400264070B5114C114E0A25236843F4807223F4AA
S2140026508073226030462360FEF7CEF90023800A9E
S21400266062680AB983420AD1636853B9013DEBD167
S214002670236823F0010323606FF0920070BD0133DE
S214002680EEE70020FAE700BF00D00140700002002D
S2140026902DE9F04F794D85B02B78009281468A4619
S2140026A003F0FF04ABB900F089FB012802D900F063
S2140026B0B9FB04462B782BB9714B72481B689847B8
S2140026C001232B7000F07AFB012802D9204600F087
S2140026D0CBFB6D4B6B481B689847002840F0CB80BF
S2140026E06A4A6B4DD2F8C03043F40033C2F8C030AB
S2140026F02B68DC0718D50024654D4E46D046274685
S2140027004FF00A0BB8F1000F2FD1FFF78BFF44B143
S21400271014F1940F05D04246002148460FF0D1F838
S2140027200027009B1F601CE040F271632B60FFF7E0
S21400273087FF044698B96B68032BFCD9D5F800319F
S2140027402B61D5F800316B61D5F80031AB61D5F857
S2140027500031EB61FFF774FF04460028CBD0FFF78B
S21400276061FF204605B0BDE8F08F6C68A40005D078
S2140027702B6B13F45C7F12D1002437E04548FEF73C
S2140027803BF9C00A844205D16B68002BF0D16FF08C
S2140027909304BAE76B68002BF6D10134F2E7D8054C
S2140027A014D523F480732B636B6853B9BBF1010710
S2140027B05FD04E46D0466FF093040022BB461746C5
S2140027C0A0E7D5F800310393039BEDE70193FFF7ED
S2140027D037FF044620B9019B13F41C7FCCD0E5E7F5
S2140027E010F1930F91D010F1940FDFD06B686A68E8
S2140027F09B00434528BF4346B107324635D123F0F8
S214002800030232443146914212D103F0030149B12A
S2140028101F48D0F80001114402F8010B8A424FEA23
S2140028201020F9D1FA181E44A8EB03085F46C5E746
S214002830D5F8000141F8040BE5E7DCF8001102F8D2
S214002840041C4FEA112E02F803EC4FEA114E090E53
S21400285002F802EC02F8011C0438032802F1040214
S214002860EBD823F003023244CFE7DFF824C0184643
S214002870F3E7D0468BE7012473E700BFA0330020C0
S21400288048100020F81B00204010002000400E409A
S21400289000D00140700002002DE9F04788B00646DF
S2140028A01F4688461546FFF7B1FB2F4B9E4204464F
S2140028B058D006F17E400838012850D804232360FB
S2140028C000236360E364626822F4406262606A46E2
S2140028D0236391466363A8F1040308F11C0853F8C8
S2140028E0041F09BA434542F8041BF8D109F08BFCD3
S2140028F04946064604F5827009F0A0FC304609F009
S21400290086FC1A4B2365109BDFF8649005EB831654
S21400291004F5D27A09F077FC29468046504609F03D
S2140029209DFC4035404609F072FCB542C4F8509014
S214002930F0D109F068FC3946054604F5807009F0C8
S21400294085FC284609F063FC2046FFF7A1FB3B1FE9
S2140029501C3753F8042F12BABB421A60F9D108B0DC
S214002960BDE8F0870023AAE705000002888AC801B0
S214002970070D810138B50D46044690B36C22002140
S2140029800EF09FFF1A4B9D4213D001339D421CD080
S214002990043B9D4228D1174B04F10C0203F12001A1
S2140029A053F8040B42F8040B8B42F9D12560002043
S2140029B038BD114B04F10C0203F1200153F8040B4F
S2140029C042F8040B8B42F9D1F0E70C4B04F10C02F1
S2140029D003F1200153F8040B42F8040B8B42F9D1A3
S2140029E0E4E76FF08600E3E76FF08500E0E700BFFE
S2140029F0080000028A29010008290100292901008F
S214002A002DE9F74F0E461546044600287CD069B9D6
S214002A10002A79D103683E4A934211D003F17E43DF
S214002A20083B012B0CD96FF088000AE00368384A8F
S214002A30934204D003F17E43083B012BF3D81DB923
S214002A40002003B0BDE8F08F636803F03F075B1912
S214002A50636022BFA3680133A3604FB93F2D21D81E
S214002A6004F12C002A46314638440EF05FFFE7E7B3
S214002A70C7F140094D45F3D304F12C0831464A46C8
S214002A8008EB07000EF052FF0122009204F10C033F
S214002A90403D2068424619463D44FFF7FDFE3F2D67
S214002AA04E4410D9B3074FEA951210D1009204F1A4
S214002AB00C03206832461946FFF7EEFE25F03F036A
S214002AC01E4405F03F05002DBAD00027C8E737465C
S214002AD006EB821804F12C0B04F10C094FF0010AE6
S214002AE05B4607F1400257F8041B43F8041B974265
S214002AF0F9D1CDF800A020684B465A464946FFF764
S214002B00CBFEB845ECD1D9E76FF0860099E700BF59
S214002B10050000022DE9F3410E461F460546002833
S214002B2068D09BB9002A65D12B68374A934267D094
S214002B300132934264D0043A93420CBF6FF089048A
S214002B406FF08804204602B0BDE8F0810029E9D085
S214002B5003682D498B4247D001318B4247D0043958
S214002B608B424AD14FF01408904549D86A68D30082
S214002B708DF8073053098DF80630530B8DF8053065
S214002B80530D8DF80430AB68D90001EB52718DF807
S214002B90031002F03F025909372A8DF802104FEA57
S214002BA053318DF801104FEA535318498DF8003011
S214002BB094BFC2F13802C2F178022846FFF720FF20
S214002BC004460028BED1082269462846FFF718FFAB
S214002BD004460028B6D1C7F80080424605F10C012D
S214002BE030460EF0A3FEADE74FF01C08BCE74FF0F2
S214002BF02008B9E76FF08604A4E76FF08804A1E721
S214002C006FF089049EE700BF080000024A29010011
S214002C102DE9F0419CB0DDE9227816461C460D46AB
S214002C2001B90AB91CB92FB16FF0860020E0B8F1DF
S214002C30000FF8D0014601A8FFF79CFEC0B9019B23
S214002C40124A934217D00132934216D0043A934266
S214002C5015D11423BB4215D83246294601A8FFF7E2
S214002C60CFFE28B943463A46214601A8FFF752FF51
S214002C701CB0BDE8F0811C23ECE72023EAE76FF0E8
S214002C808800F5E76FF08900F2E700BF0800000251
S214002C907FB5094B6A4603F1100615461868596851
S214002CA0144603C40833B3422246F7D12846FEF73B
S214002CB031FB002004B070BDAA29010010B50C48F5
S214002CC00C4C6FF00403A02113F0800F03F10102F7
S214002CD007D12344332A83F800131346F4D1002087
S214002CE010BD03F00F03043B034419761346EBE7CD
S214002CF000ED00E000E100E073B509F084FA0D4D48
S214002D000D4B2E781C6809F082FA09F09AFC38B14F
S214002D10FF2E05D0297801AA002009F030FA019C80
S214002D202CB909F070FA054B1C6809F070FA2046B9
S214002D3002B070BDCC1000205C1C0020601C00207F
S214002D4010B5044609F05FFA024B1C6009F05FFA02
S214002D50002010BD601C002013B5002301241A4675
S214002D6019460094184604F00DFE00231A4619462C
S214002D701846009404F038FE0248FFF7E1FF0020F2
S214002D8002B010BD20100020EFF3058373B9EFF3F7
S214002D901082094B12B9EFF3118212B11A68022A97
S214002DA004D0186828B901221A6070476FF0050031
S214002DB070474FF0FF3070472422002008B500F01F
S214002DC05FFE38B1022804D0034B1868431E5842F1
S214002DD0584108BD0320FCE72422002010B5EFF37D
S214002DE00583ABB9EFF310820C4B12B9EFF31182E7
S214002DF012B11A68022A0BD01A68012A0BD1084AA7
S214002E000024D47702221A6000F00AFC204610BD87
S214002E106FF00500FBE74FF0FF30F8E724220020B4
S214002E2000ED00E008B5EFF3058393B9EFF31083E8
S214002E3013B9EFF311831BB10A4B1B68022B08D0A2
S214002E4000F01EFE40B1022808D100F025FC00204C
S214002E5008BD6FF00500FBE70120F9E74FF0FF30F3
S214002E60F6E700BF2422002010B50446EFF30583E2
S214002E7003BBEFF3108313B9EFF311831BB1104BB1
S214002E801B68022B16D000F0FBFD30F0020314D1B5
S214002E90012C03D100F000FC204610BD6CB900F0F8
S214002EA095FC0128F8D000F0EBFD841E18BF4FF00B
S214002EB0FF34F1E76FF00504EEE74FF0FF34EBE781
S214002EC02422002038B50546EFF3058313B100240D
S214002ED0204638BDEFF3108313B9EFF311831BB10F
S214002EE01C4B1B68022BF2D02DB36B681A07EED46E
S214002EF0D5E9021203F0010371B14F2AE7D993B165
S214002F00042009F08CFD04460028E0D0296800F073
S214002F1063FA44F00104DBE7002AD8D1ABB1042001
S214002F2009F0A7FDEFE7012009F079FD0446002827
S214002F30CDD0296806E0012009F09BFD0446002854
S214002F40C5D0294600F048FAC2E7012009F091FDF5
S214002F50ECE700BF24220020034610B520F0010055
S214002F600C4603F00102EFF30581E9B9EFF3108197
S214002F7011B9EFF3118119B10E490968022913D06E
S214002F80012B14D9214662B109F0CBFE012801D1EC
S214002F90002010BD002C14BF6FF001006FF002007F
S214002FA0F7E709F02EFEF1E76FF00500F1E76FF0A6
S214002FB00300EEE724220020024608B520F00100B8
S214002FC002F00103EFF30581C9B9EFF3108111B9DF
S214002FD0EFF3118119B10D49096802290FD0012AB2
S214002FE010D93BB109F030FD01280CBF00206FF06E
S214002FF0020008BD1A46194609F085FCF4E76FF092
S2140030000500F6E76FF00300F3E700BF2422002078
S21400301010B5034620F00104EFF305829AB9EFF3EA
S214003020108212B9EFF311821AB10A4A1268022A04
S21400303009D0012B0AD9204600F0E0F9204609F015
S21400304087FE002010BD6FF00500FBE76FF0030061
S214003050F8E700BF24220020034B0360034B0B60FD
S214003060A0231360704700BFC4210020441F002027
S214003070034B0360034B0B60A0231360704700BF35
S214003080E41E0020641C002008480068006880F3E6
S21400309008884FF0000080F3148862B661B6BFF36C
S2140030A04F8FBFF36F8F00DF00BF000008ED00E01A
S2140030B0DFF80C00016841F4700101607047000001
S2140030C088ED00E04FF0807340F8043C074B40F872
S2140030D00C3C21F001016FF0020340F8081C40F898
S2140030E0202C40F8243C4438704700BFC9C6000076
S2140030F04FF0600383F31188BFF36F8FBFF34F8FDA
S214003100054A13680133012B136004BF4FF0E02318
S214003110D3F8043D704700BF2C100020034A136804
S214003120013B13600BB983F3118870472C10002005
S2140031304FF0E022002313619361054B4FF47A7140
S2140031401B68B3FBF1F3013B536107231361704720
S2140031500C10002037B54FF0E0230021D3F8002DE7
S214003160D3F8003D264B1A78D2B20192FF221A708D
S2140031701B78244ADBB28DF803309DF80330072312
S21400318013609DF80300000603F1FF342ED401B14E
S214003190136013681B0203F4E0631360019B184A74
S2140031A04FF0E024DBB21370D4F8203D43F47F03E5
S2140031B0C4F8203DD4F8203D43F07F43C4F8203DBA
S2140031C0FFF7B6FF104B00251D60FFF771FFD4F820
S2140031D0343F43F04043C4F8343FFFF755FF00F058
S2140031E05FFB09F071FA284603B030BD9DF8033046
S2140031F05B00DBB28DF8033001212346C1E700BF38
S21400320000E400E0282200202C100020EFF30583C5
S2140032100F2B84BF034A9B5C4FF0E023D3F80C3D92
S214003220704700BFF0E300E030B5114B1A461B684C
S2140032308342FBD3546841681519A84206D121443D
S21400324050188342516010D1104602E04418A34241
S2140032500CD1084C2468A3421FBF5C686418446005
S2140032601C680460824218BF106030BD0360F9E736
S21400327044220020402200202DE9F041054600F0BF
S2140032800BFA3849384C0B680BBB384A384E500797
S2140032901FBFD01D20F0070002F50052131A0CBF06
S2140032A04FF4005302461344083B23F00703002064
S2140032B070603260C3E90000981AC2E900300B6003
S2140032C02C4B18602C4B18604FF000432360276887
S2140032D017EA050444D16B1E0A3308D86B0705F1BC
S2140032E0080209D022F007030833934205D800F0FD
S2140032F06DFA2046BDE8F0811346DFF87C80D8F8EA
S21400330000609E422CD31A4A15686868984201D21B
S2140033102C6814BB0968A94222D029681468116079
S214003320C21A102A04F1080404D9E81842606B6037
S214003330FFF77AFF6A680F49B61A17430F4A0868FC
S214003340C8F8006000232B6013686F60864203F1A4
S214003350010338BF0E601360C9E72A462546D4E746
S2140033600024C4E7402200202C220020A1330020A5
S21400337044220020382200203C2200203422002054
S21400338010B5044600B3114A50F8043C12681342C4
S2140033901AD050F8081CB9B923EA020340F8043CD6
S2140033A000F07AF90A4A54F8043C1168A4F10800BF
S2140033B00B441360FFF738FF064A1368BDE8104059
S2140033C00133136000F002BA10BD00BF2C220020AB
S2140033D03C2200203022002030B5074A002352F855
S2140033E0335002EBC3041DB942F83310606030BDA1
S2140033F001330A2BF3D1FAE74C22002010B5094A14
S214003400002352F8331081424FEAC30406D1064A1D
S214003410002142F833102244516010BD01330A2BBC
S214003420EFD1FAE7502200204C2200202DE9F0418F
S2140034300446FFF75DFE304B304E1A68304F0132BF
S2140034401A603568002D4BD134601B68012B1FD1E4
S214003450B8464046013509F0F7F8382D08F114084B
S214003460F7D1DFF8C480274D404609F0EDF828462E
S21400347009F0EAF8244809F0E7F8244809F0E4F8E7
S214003480234809F0E1F8234BC3F80080224B1D6067
S214003490224A136801331360214A23641168E36AE1
S2140034A014208B4200FB037004F1040188BF1360F4
S2140034B009F0D8F8FFF732FE1A4B1B6873B1336871
S2140034C0DA6AE36A9A4209D24FF0E0234FF080525C
S2140034D0C3F8042DBFF34F8FBFF36F8FBDE8F081A5
S2140034E0104B1A68E36A002AD2D13268D26A9A422E
S2140034F098BF3460CCE700BFC0220020942700208D
S214003500342300200C230020F0220020DC220020A0
S214003510C42200200823002004230020A422002028
S214003520B8220020B422002020230020F8B5154B36
S214003530154D1C680646286804300F4609F0B4F896
S214003540731C07D137B129681048BDE8F84004312C
S21400355009F088B82B68A4195C6007D30C4B186870
S2140035602968BDE8F840043109F087B8094B1868A7
S2140035702968043109F081F8074B1A68A24288BF0F
S2140035801C60F8BDBC22002094270020C422002026
S2140035900423002008230020A0220020064A1368E7
S2140035A01968064B19B94FF0FF321A607047126857
S2140035B0D2681268F9E700BF08230020A022002086
S2140035C080B5134C134F144D236873B9134B1B6807
S2140035D0012BF8D94FF0E0234FF08052C3F8042DAA
S2140035E0BFF34F8FBFF36F8FEDE7FFF781FDFB68EB
S2140035F0DE68301D09F058F82B68013B2B60236805
S214003600013B2360FFF78AFD304609F0CFFBDBE77E
S214003610D8220020DC220020C022002034230020F4
S21400362010B588B0002407AA06A905A8CDE9054468
S214003630FFF712FD059B0293069B079A1049114857
S214003640CDE90043234609F011FCA8B100F02AFB9F
S214003650012811D14FF0600383F31188BFF36F8FF9
S214003660BFF34F8F084B4FF0FF321A60074B1860BE
S214003670074B1C60FFF76EFD064B1B6808B010BDBD
S214003680BA290100C1350000A0220020B422002083
S214003690BC22002030100020024A13680133136059
S2140036A0704700BF9C220020014B1868704700BF7F
S2140036B0BC2200203A4B1B682DE9F74F002B68D13F
S2140036C0384B1C6801341C606CB9374B1A6812689A
S2140036D0364A1968106818601160354A1368013355
S2140036E01360FFF75BFF334D334E2B68334F9C421E
S2140036F04FF0000B12D23A68D26A14214A43B258ED
S214003700022A2F4A126828BF4FF0010B002A18BF62
S2140037104FF0010B584603B0BDE8F08FDFF88890F5
S214003720DFF8A4A0D9F8002012681AB94FF0FF32CB
S2140037302A60E0E7D9F80020D268D2F80C80D8F8E2
S21400374004108C4201D22960D5E708F1040318461C
S214003750019308F0A9FFD8F8281019B108F118004D
S21400376008F0A2FFD8F82C00DAF8001014238842DC
S21400377088BFCAF80000019903FB006008F072FFDA
S2140037803868D8F82C10C26A914228BF4FF0010B57
S214003790C8E70C4A1368013313604FF0000BB9E713
S2140037A09C220020BC2200200823002004230020A6
S2140037B0A8220020A02200203423002094270020E6
S2140037C0AC220020B0220020B82200202DE9F041D3
S2140037D02B4C2368FFF78CFC2368013B236024688E
S2140037E02CB10024FFF79AFC2046BDE8F081254B5B
S2140037F01B68002BF5D0244D244EDFF8A0801DE07A
S214003800EB68DC68271D04F1180008F04DFF384609
S21400381008F04AFFE36A32681420934200FB0380F4
S214003820394688BF336008F01DFF194BE26A1B68F3
S214003830DB6A9A4202D3174B01221A602B68002BD0
S214003840DED10CB1FFF7AAFE134D2C6844B1114E21
S2140038500127FFF72FFF00B13760013CF9D12C603C
S2140038600C4B1B68002BBCD04FF0E0234FF080526F
S214003870C3F8042DBFF34F8FBFF36F8F0124B1E75A
S2140038809C220020C0220020F0220020B822002027
S21400389094270020AC220020B022002034230020F1
S2140038A0F8B51E4B1A681E4B12B101221A60F8BDFD
S2140038B01C4C1A6023681B6B1A68B2F1A53F0BD12B
S2140038C05A68B2F1A53F07D19A68B2F1A53F03D175
S2140038D0DB68B3F1A53F04D020682168343108F0D6
S2140038E0B2FE114E114A3168142707FB01F3D018B7
S2140038F0D55885B1456808336D68456013449D42C8
S21400390004BF6B684360142303FB01225368DB6823
S21400391023603160CBE70139E7E700BF9C22002037
S214003920AC22002094270020B82200203423002058
S21400393010B5064B0C461968183108F09EFE204656
S2140039400121BDE81040FFF7F1BD00BF942700201D
S21400395038B5084B0D4619681446183108F082FE33
S214003960002C21460CBF28464FF0FF30BDE83840FB
S214003970FFF7DCBD9427002038B5C368DC6804F187
S2140039801805284608F090FE104B1B68DBB9251D6D
S214003990284608F089FE0E4AE36A11688B4288BF03
S2140039A013600C4A1420294600FB032008F05AFE38
S2140039B0094BE26A1B68DB6A9A4283BF074B012009
S2140039C01860002038BD06482946EFE79C220020F4
S2140039D0B82200203423002094270020AC220020A8
S2140039E0F0220020034B1B680360034B1B684360F8
S2140039F0704700BFA8220020BC22002070B50D46EC
S214003A000446FFF775FB0F4B19682B685A1C17D036
S214003A100D48266800686268864208D08A4206D842
S214003A2000232B600124FFF779FB204670BD881A1F
S214003A308342F5D95B1A13442B602046FFF7D2FF6A
S214003A400024F0E7BC220020A8220020014B01221F
S214003A501A607047AC220020012906DC08B9044B26
S214003A601868143150F8210070470020704700BFD6
S214003A7094270020014B1868704700BF9427002049
S214003A80054B1B6833B1054B1868B0FA80F0400947
S214003A904000704701207047B42200209C2200207E
S214003AA0F8B5044638B31A4DC36A2A68D26A9342F8
S214003AB026D28269174E002AA1BF2A68D26AC2F1AE
S214003AC038028261142202FB036342699A4213D1D0
S214003AD0071D384608F0E8FD2B680F4ADB6A1168B8
S214003AE0E36214208B4200FB0360394688BF1360F4
S214003AF008F0B8FD0120F8BD2B68DB6AC362F9E761
S214003B002B68806CDB6A98422CBF00200120F2E70D
S214003B109427002034230020B822002038B504461D
S214003B2008B9002038BD114BC16A1B68826CC36C93
S214003B30914203F1FF33C364F3D0002BF1D1051D8E
S214003B40284608F0B1FDA36CE362C3F13802A26117
S214003B50074A11688B4288BF1360064A142000FB90
S214003B600320294608F07EFD0120DBE7942700208D
S214003B70B82200203423002070B5044660B3836C5E
S214003B80994238BF1946C36A8B4225D0C26C012AB7
S214003B9022D1124A124D12688269C162002A4FF081
S214003BA0140202FB03534269A4BFC1F138018161CC
S214003BB09A4211D1061D304608F076FD094AE36A9E
S214003BC0116814208B4200FB03503146BDE870405C
S214003BD088BF136008F046BD70BD00BF9427002064
S214003BE034230020B8220020044B1A681AB1196842
S214003BF0CA6C0132CA641868704700BF9427002058
S214003C00914208B5416000610AD8D21A83699A4287
S214003C100DD2084B011D186808F02FFD002008BDC6
S214003C209A4201D2994202D2034B011DF3E70120CA
S214003C30F5E700BFF4270020F8270020F7B5114C61
S214003C40FFF756FA2568BDB90F4F104E384608F0F4
S214003C50FBFC304608F0F8FC0D4B0E4A1F600E4B7E
S214003C6010211E600A200D4B009508F014FE2060FF
S214003C7010B10B49FFF7B0FB03B0BDE8F040FFF70B
S214003C804DBA00BFF027002010280020FC27002097
S214003C90F8270020A1530020F427002098270020B2
S214003CA0BF29010010B588B0FFF7C8FF0E4B186893
S214003CB00024B8B107AA06A905A8CDE90544FFF770
S214003CC0D7F9059B0293069B019328230093079A36
S214003CD006490748234609F0C9F8064B1860001B3A
S214003CE018BF012008B010BDF0270020C42901002D
S214003CF0CD3D0000EC2700207FB50F4C0546206820
S214003D0016461A4680B10529CDE9001602950DDC47
S214003D10FFF7B6FE0023022808BF089A206818BFDF
S214003D201A46694608F0EFFD04B070BD00236946E8
S214003D3008F0B1FEF8E700BFF02700202DE9F347B2
S214003D40DFF884800646FFF7AFFCD8F800308342E1
S214003D50054609D91A4F3B681A686AB9194A1168A4
S214003D6039601360012300E0002328463360C8F85A
S214003D70005002B0BDE8F087DB68DC68D3F800903E
S214003D8004F1040A504608F08FFC236A2046984740
S214003D9094F828305B07DED5A3694B44994506D2D4
S214003DA0386863602461514608F067FCD3E7002357
S214003DB000934A4619462046FFF79EFFCBE700BF12
S214003DC0F8270020F4270020E82700202DE9F047F8
S214003DD0624D88B000272B68D3F80080B8F1000F3A
S214003DE050D0DB68D3F800800024FFF755FC04A809
S214003DF0FFF7A4FF049B5A4E8246002B64D1002C8A
S214003E0047D140454BD3FFF7E1FC2B68DB68D3F87E
S214003E100C9009F1040008F047FC99F82830580780
S214003E2032D5D9F818104346524641444846FFF763
S214003E30E7FE30B100942346424621464846FFF747
S214003E405BFFD9F82030484698473068002204A91E
S214003E5008F05AFE0028BED0049B0698002B36DBDE
S214003E60069C6369002B39D103A8FFF767FF049B04
S214003E700246092BE9D8DFE803F0353535545B698F
S214003E803535545B0124B0E723F0010389F8283068
S214003E90D7E7344B1B681C68B4FA84F464093068AE
S214003EA02246A8EB0A0108F05EFFFFF78FFC002809
S214003EB0CBD14FF0E0234FF08052C3F8042DBFF370
S214003EC04F8FBFF36F8FC0E7FFF780FCBDE7059B02
S214003ED007999847049B002BB7DBC1E7201D08F025
S214003EE0E3FBC1E794F82830A16943F0010384F8A6
S214003EF02830059B20461944FFF782FE0028A4D0F0
S214003F00236A2046984794F8283059079DD5A26919
S214003F100599009700230A4420461946FFF7ECFE51
S214003F2093E794F8283023F0010384F828308CE7D0
S214003F3094F8283043F0010384F828300599A161ED
S214003F40034601442046FFF75BFE7EE794F82830E0
S214003F509A07E8D42046FFF713FA76E7F8270020FA
S214003F60F0270020F427002030B5074C2568246889
S214003F706A40D2B2891A101A090A41EA102163402F
S214003F8023EA0100C0B230BD24280020044B1B6881
S214003F90584043085B4240421843C017704700BF72
S214003FA024280020F8B50E46C9880546144609F0B0
S214003FB061FA0746D0B92046FFF7E8FF104B316894
S214003FC01A68B5F90430424023EA0203B6F9042021
S214003FD0024013430446AB80F2880346286800F08C
S214003FE00DFAF388E888E443834201D33846F8BDE7
S214003FF0296851F82320224041F823200133F3E7B3
S214004000242800202DE9F04F99B083460F46184625
S21400401000211646049309F0A3FB002800F08781D0
S214004020784B14930024012515AB0499139330465E
S214004030CDE90B45CDE90D45CDE90F45CDE9114557
S21400404009F017FBA04228DABBF1000F05D1E7B94B
S2140040500024204619B0BDE8F08F2146584609F0E6
S2140040607DFA04460028F2D00BA809F0F5F90DA851
S21400407009F0F2F90FA809F0EFF911A809F0ECF928
S2140040800C2115A801F026FCE3E73146384609F076
S21400409030FA04460028E7D1DAE731460BA809F0E3
S2140040A028FA04460028DFD104990DA809F021FA61
S2140040B004460028D8D1F188ADF8385002310FA850
S2140040C0ADF8305009F0D6F904460028CCD10146A8
S2140040D00FA809F043FA04460028C5D1F18811A8B4
S2140040E0023109F0C7F904460028BDD10DA809F031
S2140040F074FA00F01F001F2873D0C0F11F03194682
S2140041000BA8019309F08FFA04460028ACD1019958
S2140041100DA809F088FA04460028A5D1BDF832504B
S214004120BDF83A80A5EB080A4FEA4A1949460DA899
S21400413009F079FA0446002896D14FEA8A0A0DA9B2
S2140041400BA809F0C5FA00284DDA49460DA809F073
S21400415087FA0446002887D108F1FF3302939B00B4
S21400416005F1FF3A069305F1804508F18043023BCE
S214004170013D9B00A5EB08050993AB000393029B4A
S2140041809A4541D8BBF1000F0DD00FA9584609F04B
S214004190B0F9002840F0C780049AB388928813FBD1
S2140041A002F3ABF80430002F3FF45EAF01990BA882
S2140041B009F056FA002840F0B680B388ADF83030E3
S2140041C00BA9384609F095F90146002840F0AD8065
S2140041D0384609F0C5FA00287FF446AF0123BB80B5
S2140041E042E701949AE70F9A52F80A300BA9013376
S2140041F042F80A3008460DAA09F098FB0446002843
S2140042009DD031E7010003000D9B069A05931344E9
S214004210DDF82C900893059B59F82A109A580F9DA4
S2140042204FEA8A08A8F104030793039B91421D44B2
S21400423074D20798002359F8000005F06FFB002998
S21400424014BF4FF0FF330346BAF1010F2B6016BFC1
S21400425009EB0803002353F8083C1593079B099ABB
S21400426059F80330169359F8083017932B68013322
S2140042702B60059B134498462B68013B2B6000215E
S21400428011A809F06BF900284DD1029B002B48D0ED
S214004290D8F80020119B1A60089A12685A6011A973
S2140042A02A68084609F0CBFB00283CD113A911A8C0
S2140042B009F00EFA0028DFDC2A680DA911A809F01B
S2140042C0BEFB80BB039B4FEAC308414611A809F01A
S2140042D0AAF940BB0BA9084611AA09F027FB01461C
S2140042E018BB0BA809F03CFA002812DA0DA911A891
S2140042F009F0FFF8B8B9414611A809F094F990B949
S2140043000BA911AA084609F00EFB60B92B68013B01
S2140043102B60039B0AF1FF3A043B2FE74FF0FF3375
S21400432092E7029AB6E704469EE60C469CE66FF0D5
S2140043300B048EE6044B1B68584043085B42404221
S2140043401843C017704700BF2428002010B50B4C38
S214004350226823684240594081EA0200C00FFFF7F6
S214004360E9FF2368521A434022EA0302084010433A
S214004370BDE81040C00FFFF7DDBF00BF24280020B7
S214004380F8B50D46014628681746FFF7DFFF084BCD
S2140043901E68C1430124BC4202D346EA0100F8BDB0
S2140043A055F82400FFF7C6FF01340643F3E700BFC5
S2140043B024280020104B2DE9F0471E68884619680F
S2140043C01D680746541E631C02D13046BDE8F087C0
S2140043D058F824A057F8249050464946FFF7B6FFF1
S2140043E0514605434846FFF7B1FF20EA05031E4342
S2140043F00543013CE7E700BF242800208842F0B5CB
S21400440004D0094F04380025AA4200D1F0BD3E680A
S21400441050F8044F5E4024EA060451F825601E401A
S214004420344304600135EFE7242800202DE9F04FDF
S21400443085B0DFF8889003911C4606462146104654
S214004440D9F80030D9F8003009F049FDC51D272DF0
S2140044504FEAD50325F00705904602938CBF4FF030
S2140044601E0A4FF0FA0A2D1A0F9B0093029A0E9B13
S2140044702146304609F030FF0746C0B92A46214695
S214004480304609F0A5FDBAF1010A14D0224631469D
S2140044900398FFF775FF2246834641463046FFF7EE
S2140044A089FFD9F800200BEA00039A42DCD0384690
S2140044B005B0BDE8F08F6FF00D07F8E72428002060
S2140044C02DE9F04F9846436B93B005460F461446C9
S2140044D0002B00F0B5800121404609F041F9002884
S2140044E004DA5849084613B0BDE8F08F05F13406E3
S2140044F03146404609F0ECF80028F2DA0CA80AF03B
S2140045000DF806A808F0A3FF08A808F0A0FF0AA860
S21400451008F09DFF4FF00C0905F11C0BB9F10109DD
S21400452000F08C804FF00C0ABAF1010A00F0868089
S21400453006A9DDE91E23284600F050FD01460028A6
S2140045406DD1219B0193209B029000930CA95B46A2
S21400455006AA284600F034FD014600285FD10CA9C3
S2140045603246384609F09CFA0146002857D13846AC
S21400457009F0F6F80028D7D008A9DDE91C2328465C
S21400458009F0EAFE0146002849D10AA9DDE9202300
S214004590284600F023FD0146002840D13946424611
S2140045A0204609F0DFF90146002838D108A9084658
S2140045B0224609F0B8F9014688BB08A908460AAAA7
S2140045C009F0D0F9014650BB06A908460AAA09F028
S2140045D0C9F9014618BB06A90846324609F060FA32
S2140045E00146E0B906A93246204609F025FB0146F9
S2140045F0A8B9214608AA204609F0B4F9014670B9C0
S21400460021463246204609F04BFA014638B9059055
S214004610204609F0A5F8059900283FF47FAF0CA8BE
S214004620059109F0B8FF06A808F016FF08A808F0DC
S21400463013FF0AA808F010FF059953E70249EEE7B2
S21400464002494FE780B3FFFF00B3FFFF80B0FFFFD4
S2140046502DE9F04792B005460CA898460C469246BF
S214004660DDE91A6909F05AFF04A808F0F0FE06A86A
S21400467008F0EDFE08A808F0EAFE0AA808F0E7FE33
S2140046806B6B002B00F084800121304609F068F83F
S214004690002813DB05F134073946304609F018F8D0
S2140046A000280BDA0121484609F05AF8002805DBF5
S2140046B03946484609F00CF8002813DB354C0CA8A0
S2140046C009F069FF04A808F0C7FE06A808F0C4FEB3
S2140046D008A808F0C1FE0AA808F0BEFE204612B0E0
S2140046E0BDE8F0872246534604A9284609F034FE62
S2140046F004460028E3D13A46494606A809F09CFA43
S21400470004460028DBD106AA04A908A809F02AF95D
S21400471004460028D3D108A93A46084609F0C0F94D
S21400472004460028CBD106AA31460AA809F01AF991
S21400473004460028C3D10DF128093A4649464846A2
S21400474009F0AEF904460028B9D1CDE90180CDF8CC
S214004750009005F11C0308AA0CA9284600F0D0FB1F
S21400476004460028ABD10CA809F083FF0028A5D189
S2140047700CA93A46084609F093F9044600289ED14B
S21400478031460CA808F0A4FF0446002897D095E709
S214004790014CA3E700B2FFFF80B0FFFF70B50C46E8
S2140047A00646114620461A4609F0DCF80546A0B92A
S2140047B0B36C33B9321D21462046BDE8704009F07F
S2140047C06FB9B4F90430002B09DB204608F005FF6A
S2140047D0F36BB0EB430F09D9184D284670BD014660
S2140047E0204608F0BDFF0028EFD0F5E7B36C204662
S2140047F0984705460028F0D10436B4F90430002B5B
S21400480004DA0021204608F0ABFF68B9314620469E
S21400481008F05EFF0028E0DB32462146204609F01D
S21400482000F80028F2D006E032462146204609F07D
S2140048307AF80028E1D00546CFE700BF80B0FFFF3A
S21400484038B50D460446002105F1100008F088FF33
S21400485050B1204607F0D4FD28B129462046BDE8D1
S2140048603840FDF77DBA014838BD00BF80B1FFFF74
S2140048700246044803780BB9184670479342FCD0AA
S2140048800C30F7E7D82901002DE9F047012ADDE9C9
S214004890084982460E4690461F4644D8043008F023
S2140048A0A0FE0546504609F030FE012882463CD15F
S2140048B0002106F1100008F053FF48B9B9F1000FC7
S2140048C002D11B48BDE8F0872070C7F800A0F9E7C2
S2140048D0B8F1000F17D16B0001334B453B60F0D8A1
S2140048E02146042301F8013B2A46304608F095FE8F
S2140048F00028E7D1691C2A46214406F10800BDE8D5
S214004900F04708F08ABE6B1C4B453B60D9D80021A7
S21400491006F1080008F03EFE2146023001F8010BC1
S2140049202A463046EBE70348CCE70348CAE700BF11
S21400493000B1FFFF80B0FFFF80B1FFFF2DE9F84315
S21400494080460C4615461F4613B91D48BDE8F88339
S214004950043008F046FE0646404609F0D6FD01281B
S21400496081462AD12B7833B9012FEED12046BDE8F7
S214004970F84309F06ABE06F10108B845E5D83246A4
S214004980691C204608F033FE0028DFD1494604F1B2
S214004990100008F0E3FD0028D8D12B78042BD4D1E2
S2140049A073000133BB42D0D1324605EB080104F157
S2140049B00800BDE8F84308F01ABE0248C6E700BF84
S2140049C080B0FFFF80B1FFFF2DE9FF410E46054690
S2140049D0012106F1100008F0C3FE044650B928462F
S2140049E009F093FD01287AD12146304608F0B8FE3A
S2140049F0002801DA3B4C6EE006F1080821464046E6
S214004A0008F0AEFE0028F5DB2F1D3946304608F0CC
S214004A105FFE0028EEDA3946404608F059FE0028C8
S214004A20E8DA684608F013FD02A808F010FD4346D1
S214004A30424669462846FFF7B1FE0446002844D1A0
S214004A403346324602A92846FFF7A8FE0446002849
S214004A503BD1EB687BBB02A90322084608F06AFF3D
S214004A60044690BBBDF90C30002B04DA002102A8E6
S214004A7008F076FEC8B902AA334611462846FFF764
S214004A808DFE044608BB02AA05F11403114628460B
S214004A9009F0D0FC0446C0B902A9684608F018FE22
S214004AA0104B041E18BF1C460FE002A93A460846E3
S214004AB008F039FFD4E702AA05F10C031146284690
S214004AC009F0B8FC04460028D5D0684608F0C4FCB7
S214004AD002A808F0C1FC204604B0BDE8F081024CF4
S214004AE0F9E700BF80B3FFFF80B0FFFF38B505468B
S214004AF009F00BFD01280C4601460DD1204608F0B2
S214004B002FFE002806DB05F13401204608F0E0FD04
S214004B10002803DB024838BD0248FCE70020FAE71D
S214004B2080B3FFFF80B0FFFF2DE9F04FB5B005461C
S214004B3001919246994607F063FC0290A0B1284680
S214004B4007F063FC044658B951462846FFF7CEFFE7
S214004B50044628B949462846FFF736FF044698B16A
S214004B60284607F054FC81E151462846FFF7BEFF71
S214004B700446002840F07A8149462846FFF724FF7D
S214004B800446002840F07281284609F0BEFC012841
S214004B9040F0AD812B6C1821013302204FEA5308F8
S214004BA007F025FD0646002800F09F8106F118074D
S214004BB009F0B4FC384609F0B1FC002413AB181910
S214004BC0083408F044FC202CF8D14946304609F059
S214004BD026FD0446002841D18346D84520D13946D3
S214004BE02846FFF72DFE0446C0BB284607F008FC03
S214004BF030B33B46324639462846FCF703FF0446A8
S214004C0060BB39462846FFF71BFE044630BB06F15C
S214004C10100008F021FC06F1280008F01DFC1DE03D
S214004C200123BBFBF8F103FA01F2D2B2182308FB0A
S214004C3011B103FB026929B1284607F0E1FB50BB1E
S214004C40AC4C0BE002F0FE0101EB520106EBC10199
S214004C50484609F0E4FC04460028EDD04FF0000971
S214004C6013AB03EB090009F1080908F0F5FBB9F1ED
S214004C70200FF5D1D4B1AB6D9E4208D0304609F076
S214004C808AFC384609F087FC304607F0C0FC0198DD
S214004C9009F081FCE6E04A4649462846FCF7AAFFAA
S214004CA004460028DAD10BF1010B96E705A808F0B8
S214004CB0CEFB05F1340B0BA808F0C9FB214658467D
S214004CC008F068FC012840F0D8802146504608F0DD
S214004CD061FC5146814605A808F00BFC044630B13D
S214004CE00BA808F0B9FB05A808F0B6FBC3E75246C8
S214004CF059460BA808F01AFE04460028F0D1B9FA67
S214004D0089F94FEA59194A460BA905A8FFF74AF947
S214004D1004460028E4D1014608F1010213A80DF16B
S214004D204C0B0CF0CEFDA2465B46D045039300F03C
S214004D30A180514605A808F02DFC039B1C7808EBC3
S214004D400A01044305A808F025FCE4B2039B44EAE4
S214004D50400403F8014B0AF1010AE6E79BF801005C
S214004D609BF8003080EA020C6FEA0C0101F00101AA
S214004D7013FB01F3104003EA0C0283EA0C030BF862
S214004D80013F1BF8013C43EAC11302430BF8013C08
S214004D900134A245E2D20BA808F05EFB05A808F095
S214004DA05BFB05A809F0BAFB00240BAB1819083406
S214004DB008F04DFB202CF8D10AF1D0036B44019982
S214004DC013F8843C3246284609F05EFB044648B990
S214004DD03E9B002B00F08480284607F011FB00283D
S214004DE04DD1444C05A809F041FB4FF000080BAB31
S214004DF003EB080008F1080808F02EFBB8F1200FB6
S214004E00F5D1002C7FF437AF01994A46284609F0C1
S214004E10EDFA044600287FF42EAF3E9B73B1284679
S214004E2007F0EEFA00285ED0DDE93E230199284619
S214004E30FCF736FD044600287FF41DAF019928468E
S214004E40FFF7FEFCAB6D9E42044608D0304609F0E4
S214004E50A2FB384609F09FFB304607F0D8FB002C33
S214004E607FF415AF029B002B7FF47AAE204635B058
S214004E70BDE8F08F002201248BE71F4CFBE6DDE93E
S214004E803E2301992846FCF70BFD48B30446A9E7E4
S214004E9028460AF1FF3A07F0B3FA0028A1D0019A93
S214004EA028461146FCF7A6FE0028EFD118F80A306F
S214004EB0324605A9284609F0E7FA0028E6D1284632
S214004EC007F09EFA00288CD0019A05AB11462846BA
S214004ED0FCF798FD0028D9D1BAF1000FD8D181E7A8
S214004EE00DF14C08F8E7034CC5E6044CCFE6024C3F
S214004EF0B8E700BF80B1FFFF80B0FFFF80B2FFFFC2
S214004F002DE9F0418EB00546984609F0FEFA0128D4
S214004F100F46164650D1684609F000FB002406AB43
S214004F201819083408F093FA202CF8D14346324674
S214004F306946284609F0A6FB044600283AD1DDE972
S214004F4014233946284609F09DFB044690BB2846A4
S214004F5007F056FA0646B8B9284607F051FAD0B90F
S214004F60164C002706ABD819083708F075FA202F1C
S214004F70F8D116B1284607F04AFA684609F076FADC
S214004F8020460EB0BDE8F081284607F03EFA0446FB
S214004F900028E1D0E5E73B466A4639462846FCF756
S214004FA031FD04460028DCD139462846FFF748FC88
S214004FB00446D6E70026D4E7004CE1E780B1FFFFC1
S214004FC030B4DDE9024524B1CDE9024530BCFFF737
S214004FD0ABBD014830BC704780B0FFFF73B50546D7
S214004FE01E4609F092FA01280C4601460ED11346D9
S214004FF0009605F13402204608F000FE044B10F13E
S2140050000E0F18BF0346184602B070BD014BFAE7F4
S21400501000B3FFFF80B0FFFF10B5044609F075FA35
S214005020012805D104F16000BDE8104008F0F5BA8B
S214005030004810BD80B1FFFF38B504460D4609F0A4
S214005040AEFA204609F078FA032D257023D1144BCA
S214005050144AA3606260A361134AA3632362A36237
S214005060124B62616362124A62634FF00113114A87
S2140050702363114BE362E261201D08F0AEFAE063A1
S21400508004F1340008F0A9FA20640020C4E91600F0
S2140050900123636438BD002308482370FAE700BF85
S2140050A001000800702A0100502A0100102A0100A1
S2140050B0F0290100302A01003410002080B1FFFFE3
S2140050C00538C0B206289ABF024B53F820000020CD
S2140050D0704700BF902A0100F0B500230E4E036013
S2140050E004460A276FF067000B68934203D21D78C8
S2140050F0303D092D00D9F0BD2568B54209D87D435D
S214005100256013F8010B2844303820600B6000201F
S214005110EAE76FF06700EEE79999991970B5094CC0
S214005120256815B96FF02D0009E0667C864207D128
S214005130267C8E4204D1156062681A60002070BD1D
S2140051401434EDE76833010030B5084B1C6814B919
S2140051506FF02D0006E01D7C854204D15B680C6074
S2140051600020136030BD1433F0E700BF1833010091
S21400517030B5084B1C6814B96FF02D0006E01D7C96
S214005180854204D15B680C600020136030BD143388
S214005190F0E700BFF03201002DE9F04F87B00F4670
S2140051A0002105460093084690469B46134605AAEE
S2140051B0109E08F0C5F828460CF0C6FB0446384694
S2140051C00CF0C2FB059902290A4638BF0222023AB1
S2140051D04B1C03EB921323441844119B984207D9A7
S2140051E0129B6FF029081860404607B0BDE8F08FA4
S2140051F039B1012007F0FBF9044618B9DFF8A080A2
S214005200F2E70C4643460599CDF800B005AA2046BD
S21400521008F096F8804618B1204607F0F8F9E3E75C
S21400522028460CF091FB2946024630460CF07EFBE1
S21400523028460CF089FBA14635184FF00A0ADDF81F
S21400524014B0BBF1000F18D138460CF07DFB394680
S214005250024628460CF06AFB38460CF075FB024600
S2140052602B18581C129B05F802B0821B1A60119B63
S21400527059469A1A0CF025FBCEE75A46402A28BF14
S21400528040224946284603920CF050FB039A1544E8
S214005290ABEB020005F801AB05909144CFE700BFE9
S2140052A080EEFFFFF0B58BB005460E4624220021A7
S2140052B001A80CF006FB1DB9114C20460BB0F0BD42
S2140052C02B68002BF8D101A9304609F0CFFE044622
S2140052D00028F1D1BDF8047001A80AF09FF927F064
S2140052E0FF03B3F5E24F07D047F201039F4205D113
S2140052F0044B2B60AE60E0E7034BFAE7034CDCE7B9
S21400530080C1FFFFF83301002834010080C6FFFF8C
S2140053102DE9F74F1646DDE90C89DDE90EAB109A4C
S21400532004460D46E1B92BB9036803BB164803B023
S214005330BDE8F08F002EF9D001680029F6D021686C
S2140053404F69FFB1CDE90FB2294632462046BC462A
S214005350CDE90D9ACDF8308003B0BDE8F04F604738
S214005360002EE3D001680029E0D0002BE7D12846C4
S2140053700192FFF7A5FE09F054FA019A03460028A9
S214005380DDD1D3E70148D2E780C1FFFF00C1FFFFB0
S2140053900048704780C6FFFF2DE9F04F8FB00746E4
S2140053A00C4691460021242205A8DDE91865DDF8A3
S2140053B068809A460CF085FA05A9384609F056FE2C
S2140053C030B12A4B2A4907220AF0C6FC044647E0B9
S2140053D0DDF824B005A80AF021F9264A00962BF03D
S2140053E0FF03934208BF44EA03013846CDE901585B
S2140053F018BF44F0062153464A4609F0C3FF074645
S2140054000028DED1D8F800104FEA510935444A4644
S21400541006EB510104A8049509F01FFB041E1FDBD0
S2140054204A46314604A809F018FB051E1CDB254435
S2140054302A46314604A807F016FE041E10DB30226A
S214005440314604A807F033FE0028BFDB2544054498
S21400545004992A4630460CF01AFA3C46C8F8005022
S21400546020460FB0BDE8F08F2C46F9E7F96800003B
S21400547080340100000700062DE9F0431D469FB06A
S21400548004460E4617460021242205A80735DDF8F7
S214005490A090ED080CF015FA002302934FEA450899
S2140054A027B9384C20461FB0BDE8F08347F4824148
S2140054B005A809F03EFB4FF4005105A809F09EFA36
S2140054C04FF0062702AB32462146099709F066FEE2
S2140054D078B101F011FA0546029800F08DFC0446FA
S2140054E0002D4DD1002CDDD0204601F005FA0446F3
S2140054F0D8E7B8F1400F3FD8299ECDF80C904E441F
S214005500302304AA314603A807F02DFD044618B13F
S214005510029800F071FCC5E70DF138092B464A46A3
S214005520314603A809F0D7FA04460028F0D12B46E6
S21400553009EB0502314603A809F0CDFA0446002817
S214005540E6D1CDE90098DDE926230298394609F030
S2140055507BFF28B10C4B0D4907220AF0FDFBBAE78A
S214005560DDE902039E4203D100F046FC0446B9E79B
S21400557000F042FC064C95E7029800F03DFC90E7F0
S2140055802C468FE780C1FFFFF968000080340100D9
S21400559000C7FFFF2DE9F0410546A0B000211646E2
S2140055A006A824221F460CF08CF9A86806A909F064
S2140055B05DFD38B1144B154907220AF0CDFB20B02B
S2140055C0BDE8F081BDF81840BDF81A8004F44F43DA
S2140055D0B3F5824F06A818BF00240AF01FF8A86883
S2140055E005AB41220FA909F09FFD0028E2D1279BB9
S2140055F00393269B05990096CDE90173E2B24346D4
S2140056000FA8FFF739FFDAE7F968000080340100D9
S21400561070B506460846BEB00023CDE90333806861
S21400562003AB412205A909F07FFD044618B101F03D
S21400563063F93EB070BD16ADA022314628460CF088
S21400564075F9284609F0D5F90238022831464FF098
S214005650A002284698BF179C0CF068F9284609F067
S214005660C8F90238022894BF179900214123CDE9D2
S2140056700053002204AB68312046FFF705F90028E6
S214005680D7D1DDE903239A4208D1294605A80CF0B4
S214005690EEF8034B002818BF1846CAE70048C8E7CC
S2140056A080C1FFFF2DE9F041ACB0904604ACA022CB
S2140056B0002705460E462046414603970CF036F96D
S2140056C0204609F096F902380228404698BF059F02
S2140056D009F08FF9072812D1D8F8080003AB412249
S2140056E0214609F021FD00BB039A2868801A28602D
S2140056F021460CF01BF903982CB0BDE8F08141233D
S214005700CDE90043002203AB07F168013846FFF7F6
S214005710BBF80028F0D12868B04203D3039A861B52
S2140057209642E3D26FF06B00E6E70148E4E700BF7D
S21400573080C1FFFF73B5054610460C46164609F0B5
S21400574058F9022809D1324621462846FFF7AAFF13
S21400575000280DDB034618460AE0304609F049F9F2
S21400576007281BD12A6800239442019302D90C48CB
S21400577002B070BDB06801AB121B214609F0D4FC24
S2140057800028F4D12868019A801A286021460CF077
S2140057907EF8019B002B1846DDDAE9E70148E7E7CB
S2140057A080C1FFFF80C6FFFF2DE9F047002786B0C7
S2140057B0CDE9047780460E462AB96FF06B04204682
S2140057C006B0BDE8F0870A440392024603A8FFF736
S2140057D0B1FF041EF3DB039B9A1B002AEDDD5A1E65
S2140057E0651C0392314603F8017C2A4603A807F09D
S2140057F03AFCB0F1000A66DB0322314603A807F044
S21400580056FCB0F1000960DB404609F0F2F80228C9
S21400581037D1404609F0ABF904AA05A9074609F0B6
S21400582025F80446002843D010F12E0FC7D13A467B
S214005830314603A809F08AF9041EC0DB2746022079
S2140058400124049BBBB3CDE90074DDE90432314684
S21400585003A807F0A1FC041EB1DB55444D442544C3
S2140058602A46314603A807F0FEFB041EA7DB3022BB
S214005870314603A807F01BFC002822DB2544441908
S2140058809DE70728DCD1D8F8080009F0AAF920F42B
S214005890435323F03F03B3F5824FBAD020F4405071
S2140058A044F20103984201D0094C88E70120C7E77B
S2140058B002202746C5E704AA05A9FFF745FC0028ED
