S01C00006275696C642F64656275672F67656E657261746F722E7333379C
S315080000000010002021240008E5D20008E5D20008E7
S31508000010E5D20008E5D20008E5D20008E5D20008D6
S31508000020E5D20008E5D20008E5D200080104000878
S31508000030E5D20008E83901089103000817E400082A
S31508000040E5D20008E5D20008E5D20008E5D20008A6
S31508000050E5D20008E5D20008E5D20008E5D2000896
S31508000060E5D20008E5D20008E5D20008E5D2000886
S31508000070E5D20008E5D20008E5D20008E5D2000876
S31508000080E5D20008E5D20008E5D20008E5D2000866
S31508000090E5D20008E5D20008E5D20008E5D2000856
S315080000A0E5D20008E5D20008E5D20008E5D2000846
S315080000B0E5D20008E5D20008E5D20008E5D2000836
S315080000C0E5D20008E5D20008E5D20008E5D2000826
S315080000D0E5D20008E5D20008E5D20008E5D2000816
S315080000E0E5D20008E5D20008E5D20008E5D2000806
S315080000F0E5D20008E5D20008E5D20008E5D20008F6
S31508000100E5D20008E5D20008E5D20008E5D20008E5
S31508000110E5D20008E5D20008E5D20008E5D20008D5
S31508000120E5D20008E5D20008E5D20008E5D20008C5
S31508000130E5D20008E5D20008E5D20008E5D20008B5
S31508000140E5D2000865320008E5D20008E5D20008C5
S31508000150E5D20008E5D20008E5D20008E5D2000895
S31508000160E5D20008E5D20008E5D20008E5D2000885
S31508000170F0B5114A114C124E00F00105E3695F070C
S3150800018013D40DB9334213D103EA00078F4207D1BE
S315080001900B4A1A40002A0CBF00206FF00100F0BD80
S315080001A0013AEBD16FF00200F9E74FF0FF30F6E7BE
S315080001B06FF00100F3E700BF809698000000035037
S315080001C0020001000B4B70B5D96911F480310DD1CD
S315080001D001244FF48072084E084DF46020462C64C2
S315080001E01A61FFF7C5FF3464EC6070BD6FF001005B
S315080001F0FBE700BF00000350001003500020035027
S315080002004FF4803238B50E4B0E4C9A66E56941F6C6
S31508000210713315400122E3630B4B0021DA60022398
S31508000220606121202361FFF7A3FF10B92120FFF7A2
S315080002309FFF0122054BDA600DB10023E36338BD49
S315080002400090005000000350001003500020035097
S3150800025070B5134C6061E3695B071ED40E4656F809
S31508000260043B8D18A361AE420BD104230021212043
S315080002702361FFF77DFF58B9BDE870402120FFF7DD
S3150800028077BF08210846FFF773FF10B104232361DF
S3150800029070BD56F8043BA361E5E74FF0FF30F7E77A
S315080002A0000003502DE9F84315464FF48032184BE9
S315080002B089469A6603F51C33DF690646174041F6F8
S315080002C07132DA63012203F58053DFF84C80DA6075
S315080002D055B9284601220F4BDA601FB10022A3F553
S315080002E00053DA63BDE8F88306F5005404EA080407
S315080002F0A41BAC4228BF2C46494622463046FFF787
S31508000300A7FF0028E6D12644A1442D1BE0E700BF3D
S31108000310009000500020035000E0FFFFA2
S315080003200B4A1168086806C881F30B88022181F315
S315080003301488203080F30988BFF36F8F4FF00000D0
S3150800034080F31188104700BFAFF30080AFF3008039
S315080003501C20002000000000000000000000000033
S3150800036007480068006880F3088862B661B6BFF37C
S315080003704F8FBFF36F8F02DF00BF00BFAFF3008060
S3150800038008ED00E00000000000000000000000008A
S31508000390EFF309801EF0100F08BF20ED108AEFF367
S315080003A00B82734620E9FC0F114A116808604FF06A
S315080003B0300080F31188BFF34F8FBFF36F8F05F0BE
S315080003C081FA4FF0000080F31188094A116808681D
S315080003D0B0E8FC0F13F0100F08BFB0EC108A82F3D8
S315080003E00B8880F309881847AFF30080AFF30080C5
S315080003F01C20002000000000000000000000000093
S315080004001EF0040F0CBFEFF30880EFF309800449D0
S31508000410084700BFAFF30080AFF30080AFF300805A
S31508000420F1E400080000000001292DE9F04F4AD840
S3150800043089B30FF2D40BDBE900AB0FF2D409D9E983
S31508000440008935A7D7E9006735A5D5E9004536A35C
S31508000450D3E900239FED1E5B9FED1F6B9FED207B6D
S315080004609FED214B80ED045B80ED004B80ED024B48
S3150800047080ED066B80ED087BC0E90AABC0E90C8904
S31508000480C0E90E67C0E91045C0E91223C0F8D010CC
S315080004900020BDE8F08F9FED165B0FF2940BDBE9A9
S315080004A000AB0FF29409D9E9008925A7D7E90067B7
S315080004B025A5D5E9004526A3D3E900239FED0E6BB4
S315080004C09FED0F7BCCE76FF07400E2E7AFF3008097
S315080004D0D89E05C15D9DBBCB07D57C362A299A6275
S315080004E017DD70305A015991000000000000000025
S315080004F008C9BCF367E6096A3BA7CA8485AE67BB29
S315080005002BF894FE72F36E3C39590EF7D8EC2F157A
S31508000510310BC0FF6726336711155868874AB48EB2
S31508000520A78FF9640D2E0CDBA44FFABE1D48B547FC
S31508000530F1361D5F3AF54FA5D182E6AD7F520E51D1
S315080005401F6C3E2B8C68059B6BBD41FBABD9831F8B
S3150800055079217E1319CDE05B0348044B834202D010
S31508000560034B03B118477047943F0020943F00207F
S3150800057000000000064B0749C91A891048BF013117
S31508000580491003D0044B0BB101481847704700BF08
S31508000590943F0020943F00200000000010B5064C50
S315080005A0237843B9FFF7D8FF044B13B10448AFF3D8
S315080005B000800123237010BD8C2900200000000054
S315080005C0F44B010808B5054B1BB105490548AFF3BF
S315080005D00080BDE80840FFF7CDBF00BF000000005F
S315080005E050100020F44B0108A3F5803A704700BF6D
S315080005F0174B002B08BF134B9D46FFF7F5FF00214D
S315080006008B460F461348144A121A11F0A1FF0E4BD7
S31508000610002B00D098470D4B002B00D098470020A0
S31508000620002104000D000D48002802D00C48AFF345
S31508000630008009F019FC2000290011F0DBFE09F002
S3150800064071FA00BF0000080000000000000000006A
S315080006500010002000100020603400200000000078
S315080006600000000010B58CB004460BF000FC002119
S31508000670102208A811F06CFF01230E4A02A8CDE942
S3150800068003230D4B059407934FF4705302930BF015
S31508000690E1FB029B06930DF05BF90023000240F094
S315080006A00100049001A903A8019310F0D6FF0CB02D
S315080006B010BD00BF127100010906000670B58CB0A6
S315080006C00C46154606460BF0D2FB0021102208A858
S315080006D011F03EFF0123114A02A8CDE90323104B6E
S315080006E0059607934FF4705302930BF0B3FB029BE6
S315080006F006930DF02DF90023000240F00100214673
S315080007002A460490019303A801AB10F09CFD044609
S3150800071003A811F064F820460CB070BD12710001F0
S315080007200906000610B50A4B86B014460293002344
S31508000730059103901A46CDE90033214405A80EF029
S3150800074082FB002814BFAC20002006B010BD00BFF5
S3150800075091BE00082DE9F041BEB0449D98462B682D
S3150800076004460E461746002B57D06B68B3F5007F34
S3150800077053D302A811F0B9FD00213C2207A806911F
S3150800078011F0E6FED8F804308BB1CDE900674021B8
S31508000790D8F80030224A06A809F0E6F906A902A800
S315080007A011F0BAFD58B1AC203EB0BDE8F081334631
S315080007B040211C4A009706A809F0D6F9EEE7092158
S315080007C002A811F0A5FD2068FFF74CFF16A810F047
S315080007D01CF9216816A806F093FC04460028E2D105
S315080007E016A902A811F096FD00942346D5E9001231
S315080007F002A808F051FE04460028D4D1286811F052
S31508000800E9FE6B680130984201D911F020FE686054
S3150800081002A811F06EFD2046C6E72F20C4E700BFE8
S31508000820A8340108C2340108F0B50C46002197B077
S315080008300646154607A83C22069111F089FE402374
S3150800084005AACDE9013206AF009705930E49D4E90A
S315080008500023306810F01DFE044698B9059E6B68A3
S315080008609E420DD832463946286811F0A6FE6B68B6
S315080008709E4201D911F0EBFD20466E6017B0F0BD1F
S315080008801920FBE7AC20F9E709060006044808B575
S3150800089000680DF0FCFC002814BFAE20002008BD3F
S315080008A02436002008B5034B18680DF0DFFC00203D
S315080008B008BD00BF2436002038B504460D4620463C
S315080008C00BF0F5FA2B7C002857D0052B59D0032BB3
S315080008D017D0042B38D0012B4DD1022221462846A9
S315080008E00BF0A3FB002833D1294628460BF0E1FB81
S315080008F070BB95F82430002B0CBF032305232B74FB
S31508000900DDE795F825209AB1214628462A7F0BF07F
S315080009108CFBE8B9294628460BF00CFCC0B995F8BB
S31508000920253073B90223AA691A442A620423E6E722
S315080009302B7D013BDBB2022B9CBF134AD25CAA611A
S31508000940F0E72B7F0233EEE795F824300BB123202E
S3150800095038BDAA690AB91820FAE7214628460BF0D5
S3150800096064FB0028F4D1294628460BF00BFC002826
S31508000970EED10523C3E70320EAE7052B01D00D20B6
S31508000980E6E70020E4E700BFE73401082DE9F04177
S3150800099000240546A046154F86B000F1AC06304641
S315080009A001ABC4F500723919CDF80480FFF76EFF64
S315080009B0C0B194B10E4B04AA04934FF4007302A974
S315080009C02846CDE9027405930BF08AFDDDE9041289
S315080009D085F8C0003046FFF765FF95F8C00006B0F9
S315080009E0BDE8F081019B1C44D9E700BF8D2B002090
S315080009F08D29002000487047681000200021174BF9
S31508000A0010B5174C03F19802626003F1E002236007
S31508000A10A26003F58673802204F12800C4E9041154
S31508000A20C4E90611C4E90811E36011F091FD0D4B04
S31508000A302046C4F8A8300C4BC4F8B440C4F8B0300B
S31508000A400A4BC4F8BC40C4F8B8300123084A84F8F5
S31508000A50C0300849BDE8104011F0F4BC88360108DA
S31508000A6068100020C8370108F43401080835010861
S31508000A700C360020B5C400087FB50E460023044690
S31508000A800DF10601304615468DF8063002938DF8AD
S31508000A90073003930BF0EAFB58BB9DF80630013B81
S31508000AA0032B01D92F2024E0304602A90BF010FCB5
S31508000AB0F8B930460DF107010BF0D8FBC8B94FF469
S31508000AC000723046224903AB0BF01BFC88B99DF82F
S31508000AD00630013B032BE5D8DFE803F0020D151DB0
S31508000AE04FF4CB7160681A4A0368DE6A039BB04705
S31508000AF0C8B104B070BD606840F295110368144A25
S31508000B00DE6A039BF3E7606840F293110368104AB4
S31508000B10DE6A039BEBE760684FF4C17103680C4A11
S31508000B20DE6A039BE3E760680CF0FBF9044608B14C
S31508000B302046DEE7029928460BF077FB2146284631
S31508000B400BF073FB284603990BF06FFBF0E700BF29
S31508000B50993100200023F0B506460D46144685B0A7
S31508000B60ADF80A308DF80930A9682A68EB68914211
S31508000B7058D893425AD8002013E0002370688DF89D
S31508000B800C300368BDF80A10DB6803AA9847D82812
S31508000B9000D030B920469DF80C100BF02AFB00282F
S31508000BA0E2D005B0F0BD00237068ADF80C300368DC
S31508000BB0BDF80A105B6903AA9847D82801D000280F
S31508000BC0EFD12046BDF80C100BF021FBE7E7002318
S31508000BD0706803930368BDF80A10DB6903AA98478F
S31508000BE0D82801D00028DCD1204603990BF01DFB3C
S31508000BF0D5E700237068039303AA036800929F6AE7
S31508000C00204A4FF40073BDF80A10B847D82801D017
S31508000C100028C6D12046039A1A490BF014FBBEE7F2
S31508000C202620BEE7934201D98B42A4D028460DF16F
S31508000C300A010BF034FB0028B3D128460DF109014F
S31508000C400BF014FB0028ACD12046BDF80A100BF0B7
S31508000C50DEFA0028A5D120469DF809100BF0C9FA3E
S31508000C6000289ED19DF80930013B032BD8D801A254
S31508000C7052F823F07B0B0008A70B0008CF0B0008DF
S31508000C80F30B000899310020F0B5CB780C461546D1
S31508000C90806885B003B9A830A378032B5AD8DFE853
S31508000CA003F041021A2E00268DF80C60036821888D
S31508000CB0DB6803AA9847D82802D050B105B0F0BD22
S31508000CC031462A4620880BF0A6FB0028F6D10020DC
S31508000CD0F4E703A9F5E70026036821885B69ADF800
S31508000CE00C6003AA9847D82803D00028E6D103A9A0
S31508000CF000E031462A4620880BF0A0FBE5E70026EF
S31508000D0003682188DB69039603AA9847D82803D085
S31508000D100028D3D103A900E031462A4620880BF0E3
S31508000D20A1FBD2E70026036803AA00929F6A0A4A33
S31508000D304FF4007321880396B847D82803D00028B3
S31508000D40BCD1054900E031462B46039A20880BF0B2
S31508000D509DFBBAE72620B1E7993100202DE9F3413A
S31508000D60054608460C460BF0AFF8064678B1254806
S31508000D700BF09DF858B186423246224928BF0246F2
S31508000D8020460BF036F910B102B0BDE8F0811E4FCF
S31508000D901C4E27E03368013AC6E90233D7F800311A
S31508000DA0C7F8042157F82300013303F03F030190E5
S31508000DB0C7F800312846CB69124A01A99847002886
S31508000DC0E2D120460BF080F8804630460BF06FF8EB
S31508000DD080454246314628BF024620460BF009F9AF
S31508000DE00028D1D120460BF06FF8296818B1D7F83A
S31508000DF00421002ACED12846CB6802B0BDE8F041CE
S31508000E00184700BF341200202C11002070B5044684
S31508000E100D460E4E28460BF04AF828B92368204698
S31508000E20BDE870409B68184731462846FFF744FDE1
S31508000E300D28EFD048B9236820469B69034998478F
S31508000E4018B902480BF0CFFEE4E770BD6412002023
S31508000E5008B50B46498AB1F5817F15D005D840F209
S31508000E60011291420CD0A62009E06FF481728A180B
S31508000E70012AF8D81A7D06480BF0C4FE10B108BD41
S31508000E80DB6AC3600020FAE7DB6A0361FAE700BFA2
S31508000E902C11002008B503480A7D498A0BF0B2FEDA
S31508000EA008BD00BF2C11002091F8263070B50C46FD
S31508000EB0866803B9A83694F82730257D2BB12A46CB
S31508000EC0618A17480BF09EFE48BB032D26D8DFE83B
S31508000ED005F016020E1133689B6894F82420618A7F
S31508000EE05AB904F12C023046BDE8704018473368F9
S31508000EF01B69F2E733689B69EFE70022F3E733687B
S31508000F00618ADD6A94F8243033B9E26A3046AC4621
S31508000F10A369BDE8704060470022F7E7262070BD48
S31508000F202C1100200A46498A10B5B1F5A27F16D0C1
S31508000F3008D840F20513994218D0B1F5A17F0ED012
S31508000F40A62017E040F2A1139942F9D180680368F8
S31508000F50DC6A9369A446BDE81040D26A6047806897
S31508000F602C320368BDE810401B691847127D0248F9
S31508000F700BF048FE10BD00BF2C1100202DE9F041F2
S31508000F8000254B6892B0052B0746884616468DF80D
S31508000F9005508DF806508DF8075040F2B3800A6860
S31508000FA0023B13440DF1050102A8CDE90333029271
S31508000FB005920BF058F80446002840F09F800DF182
S31508000FC0060102A80BF04FF80446002840F0968068
S31508000FD00DF1070102A80BF046F80446002840F078
S31508000FE08D80D8F804203368802A00F286807268DB
S31508000FF07F2A40F2858003F108027E33CDE9073265
S315080010009DF806300692013B0992042B73D8DFE857
S3150800101003F03703646B5C000020089A069B9A422B
S3150800102088BFD41AE5B20446002133680BA803F139
S315080010300802CDE907231C22069309930A9111F0A9
S3150800104087FA022106A80AF04CFF9DF8061006A8A2
S3150800105041F080010AF045FF9DF8071006A80AF03E
S3150800106040FF214606A80AF061FF294606A80AF0AD
S3150800107038FF726805F10A03934245D911F0E7F97A
S31508001080012200257B682A480C932A4B8DF82C20D0
S315080010900A93294BCDE90D5503F50172C0E90123E1
S315080010A00360C3600BF09FFD244A254B02F50271CD
S315080010B0C3E901121A60DA60224BC3F8045106AA82
S315080010C002A90AA80BF0C3FDA7E701227B688DF8E1
S315080010D02C200C931C4B0A93F1E703227B688DF8AE
S315080010E02C200C93194BF6E704227B688DF82C20EC
S315080010F00C93174BEFE72A208FE7C224002593E7C6
S315080011001924FBE719248FE7083573600AAA2946CC
S31508001110306800F03FFF9DF80600BDF82820023829
S3150800112018BF012033685A5312B0BDE8F08100BFDA
S31508001130641200201C350108952F00208D2D0020F3
S31508001140341200202C110020443501086C350108A2
S315080011509435010838B500240125144B144803F5C5
S315080011600172C0E901230360C360C0E9084405743D
S31508001170448204758461047784620BF034FD0D4B58
S315080011800D4803F50272C0E901230360C360C0E994
S3150800119008440574448204758461047784620BF0FC
S315080011A022FD064BC3E9404438BD00BF952F0020F9
S315080011B0641200208D2D0020341200202C110020EE
S315080011C02DE9F041002486B0884617461E460B22B4
S315080011D001AB03A9CDE90344CDE90144CDF8134099
S315080011E000F092FD044670B140F20123984231D0D6
S315080011F001200CF023F868B301211F20174A03AB1E
S315080012000CF00FF826E0019D0A2D01D02F24EFE7F8
S315080012102A4602A903A808F0F1FD029A04AB9A42ED
S31508001220A8F80000F2D12A4602A90DF1110008F02B
S31508001230E5FD029A0DF113039A423870E6D12A4663
S3150800124002A905A808F0DAFD029A0DF116039A42DA
S315080012503070DBD1204606B0BDE8F081B435010810
S315080012600023F0B587B001930C46D1E9001201AB13
S3150800127000F056FD40F20123984225D102AD2A46D8
S31508001280144B03F110072E4618685968083303C62D
S31508001290BB423546F7D163680F2B02D8192007B031
S315080012A0F0BD256806AE134603CBB34228606960D5
S315080012B01A4605F10805F6D110230193019B6268C9
S315080012C0934204D911F0C3F80028E8D1F6E70020C4
S315080012D06360E4E7B037010810B540F26314A14231
S315080012E0034608D040F29710814215D0B1F5B17F78
S315080012F00DD0A62010BD42B11168094BA1F57A722E
S315080013009A4202D800F044FDF4E72F20F2E702B132
S3150800131012681A620020EDE702B112685A62F9E70C
S31508001320B8820100F0B5B1F5AA7F97B01546064612
S315080013301A461C9C3CD8B1F5A07F09D840F2051383
S31508001340994266D040F2111399425BD0A6205EE01E
S315080013506FF4A07319441329F8D801A353F821F0A0
S315080013604D1400084D130008671400084D130008B3
S315080013706D14000873140008791400087F14000817
S315080013804D1300084D1300084D1300084D130008AF
S315080013904D1300084D1300084D1300084D1300089F
S315080013A04D130008851400088B14000895140008CE
S315080013B0B1F5C17F00F08B800ED840F265139942D3
S315080013C07BD0B1F5B37F7DD0B1F5B27FBED12346D0
S315080013D0294600F0F9FC19E040F29313994200F00F
S315080013E0848040F295139942B0D1CDE90D5205B9E2
S315080013F0EAB933683046D3F880300DA9984730B932
S315080014000E9B21E02346294600F094FD48B317B009
S31508001410F0BD00F128073846039211F0DBF8039A6D
S315080014200130CDE906050597089215B90AB111F0FC
S315080014300EF807AB00933046728A318A05AB00F086
S315080014402FFD0028E3D1089B23600AE003681B6B85
S315080014502946304698470028D9D1284611F0BAF8C7
S3150800146020600020D3E703689B6BF1E703681B6CD9
S31508001470EEE703685B6CEBE703689B6CE8E70368D9
S31508001480DB6CE5E703685B6DE2E72346294600F077
S315080014903BFCBBE721230C9303680DAF0392DB6D7E
S315080014A00B970BA99847039A0028B0D11346202119
S315080014B02A4638460BF0AEFED2E72346294600F008
S315080014C08FFCA3E72346294600F040FD9EE7CDE9B9
S315080014D009530DB9002BAAD1336830469B6F09A969
S315080014E09847002893D10A9BAEE7CDE90B520DB970
S315080014F0002A9CD133683046DB6F0BA99847002831
S3150800150085D10C9BA0E700BFF0B54B680646602B5B
S315080015100C461546A5B029D900278222394603A8C4
S31508001520029711F015F801AB8622304602A90197F9
S3150800153000F056FC40F20123984210D184220C494F
S3150800154002A8019211F039F82268019902A800F060
S3150800155037FD28606368984205D910F078FF00289F
S31508001560F2D025B0F0BD60600020FAE71920F8E750
S31508001570D335010870B50026044696B02A220D46D2
S315080015800BA831460A9610F0E3FF01AB2E2220463F
S315080015900AA9019600F018FC40F20123984227D1C7
S315080015A018230193174B0AAC03F11806224618684C
S315080015B05968083303C2B3421446F7D100241C22E3
S315080015C0214603A8029410F0C3FF019902AA0AA8AB
S315080015D000F0F6FC6B680646984210D8024602A947
S315080015E0286810F0EAFF6B689E4205D910F02FFFB5
S315080015F00028E3D016B070BD20466E60FAE71920C1
S31508001600F8E700BF5836010870B5B1F5B27F054650
S3150800161016461C4692B000F0088117D840F21113FE
S31508001620994260D06FF4A07319448BB2132B26D855
S31508001630132924D8DFE801F05E236B237885929F6F
S31508001640232323232323232323ACC8D540F2931330
S31508001650994200F02F81B1F5CA7F1DD240F281135D
S31508001660994200F01481B1F5C17F0AD240F26513A0
S31508001670994200F0E580B1F5B37F00F0E880A62036
S3150800168099E0FCD13146224609A80BF036FC2846DB
S3150800169009A900F0ABFB8EE040F2A113994200F0D5
S315080016A01D81B1F5D17F11D240F29513994200F010
S315080016B00B81B1F5CB7FE2D13146224609A80BF062
S315080016C01CFC284609A900F0D9FB74E0D7D1002AEA
S315080016D0D5D03146224609A80BF00FFC284609A9A1
S315080016E000F046FC67E02246314612B0BDE870407D
S315080016F000F01ABC02B13CB900228249284612B051
S31508001700BDE8704000F024BA22463146F6E702B139
S315080017103CB900227B49284612B0BDE8704000F06B
S315080017203FBA22463146F6E702B13CB9002275496E
S31508001730284612B0BDE8704000F05ABA2246314633
S31508001740F6E702B13CB900226E49284612B0BDE858
S31508001750704000F05FBA22463146F6E702B13CB95E
S3150800176000226849284612B0BDE8704000F064BA05
S3150800177022463146F6E702B13CB9002261492846BD
S3150800178012B0BDE8704000F069BA22463146F6E765
S3150800179002B194B900211C220AA8099110F0D8FEBA
S315080017A02021594AAB8A09A808F0DEF909A9024698
S315080017B0284600F079FA12B070BD2246314612B0BA
S315080017C0BDE8704000F070BA02B13CB90A224F4930
S315080017D0284612B0BDE8704000F090BA224631465D
S315080017E0F6E702B1B4B9102105A80BF0F1FB022304
S315080017F010210093212309AA05A80BF0CBFC002889
S31508001800D9D109A810F0E6FE09A90246284600F033
S3150800181081FAD0E7102C01D92F20CCE702232146E4
S3150800182000933046212309AAE7E7002AF4D0002BC3
S31508001830F2D01A46314612B0BDE8704000F0BEBA82
S315080018402246314612B0BDE8704000F0C3BA02B174
S31508001850B4B90023CDE90933CDF82B302B6A09A892
S315080018600293EB8A0193EB6900936A8A298AAB692A
S315080018700BF0FEFA0B22284609A900F061FB9AE74D
S315080018802246314612B0BDE8704000F059BB02B19D
S3150800189054B9002305AACDE909238DF81430284642
S315080018A009A90BF07CFB86E72246314609A80BF00E
S315080018B024FBF4E73146224609A80BF01EFB28460E
S315080018C009A900F0ABFA76E73146224609A80BF0DB
S315080018D014FB284609A900F0B9FA6CE732B9802248
S315080018E03146283010F034FE002064E77F2C93D868
S315080018F022463146283010F060FE00232C4484F836
S315080019002830F1E7303D01087136010874360108C0
S31508001910012903BF034B00201B78A62008BF1370BC
S31508001920704700BFB9330020022938B514461D4652
S315080019300FD120220021084810F00AFE3CB1202DC4
S315080019402A46214628BF2022034810F036FE0020EA
S3150800195038BDA620FCE700BF99330020104608B51D
S315080019606AB163B102290CD1202B28BF20231A465D
S31508001970029B05491A6010F020FE002008BD2F20A2
S31508001980FCE7A620FAE700BF99330020012905D114
S3150800199002B11278024B00201A707047A6207047D1
S315080019A0B93300200023F0B585B007460E46254812
S315080019B003A91546039300F0F9FB002840D1224CF1
S315080019C0236813B9039811F067FDD5E900121F4B78
S315080019D0184610F0F2FD03466868B0F5007F05D298
S315080019E0C0F50072FF21184410F0B2FD02200BF07A
S315080019F025FC48B16B680221019323681F200093D8
S31508001A00134A039B0BF00DFC236803980F494FF408
S31508001A100072184411F044FD3846216800F0A8FC0D
S31508001A2070B93046696800F0A3FC48B900202268FE
S31508001A306B68134413F03F021CBF40339B1A2360A4
S31508001A4005B0F0BD217208009412002099310020DB
S31508001A50F83701082DE9F0431D46002389B00746EB
S31508001A6008460E461446CDE9053300F03DFB18B985
S31508001A70D82009B0BDE8F083304605A900F096FBEA
S31508001A800028F6D1204600F02FFB0028F0D020468B
S31508001A9006A900F08BFB0028EBD1DDE90596079037
S31508001AA007A9184800F082FB044600BB079919EB02
S31508001AB001081ED10EB110F0CAFC02200BF0BEFBC5
S31508001AC0A0B1079B022100931F203B46CDE9019652
S31508001AD00D4A0BF0A6FB6B689E4210D8324641466B
S31508001AE0286810F06AFD6B689E42E4D86E6020464E
S31508001AF0BFE702200BF0A2FB0028ECD0E1E719248F
S31508001B00F5E700BF217208001D38010800200A4BBE
S31508001B1010B5186032B9094C2146BDE8104008488E
S31508001B2000F026BCA1F500518C1801F0D3FA204626
S31508001B3007F00EFEF0E700BF9412002000E00F0841
S31508001B4021720800014800F031BB00BF217208006D
S31508001B50014800F025BC00BF00720800002307B545
S31508001B600348019301AB00F045FB03B05DF804FBA5
S31508001B7000720800014800F0E3BB00BF0C720800C1
S31508001B8010B506480C4600F0E9FA40F201239842DF
S31508001B9002BF4FF6F1730020238010BD0C720800B7
S31508001BA0014800F0FDBB00BF0D720800002307B511
S31508001BB00348019301AB00F01DFB03B05DF804FB7D
S31508001BC00D720800014800F0BBBB00BF0B7208008D
S31508001BD010B506480C4600F0C1FA40F201239842B7
S31508001BE002BF48F201030020238010BD0B720800D3
S31508001BF0014800F0D5BB00BF0E720800002307B5E8
S31508001C000348019301AB00F0F5FA03B05DF804FB55
S31508001C100E720800014800F0C3BB00BF107208002E
S31508001C20002307B50348019301AB00F0E3FA03B0BC
S31508001C305DF804FB10720800014800F0B1BB00BF54
S31508001C4011720800002307B50348019301AB00F0A1
S31508001C50D1FA03B05DF804FB11720800014800F0E0
S31508001C609FBB00BF12720800002307B50348019303
S31508001C7001AB00F0BFFA03B05DF804FB127208006E
S31508001C80014800F05DBB00BF0873080010B50548A1
S31508001C900C4600F063FA40F20123984204BF002084
S31508001CA0208010BD08730800014800F079BB00BF0A
S31508001CB00F72080073B5002601AB0E480C46154690
S31508001CC0019600F097FA40F2012398420BD164B1CD
S31508001CD00C2D0CD920462A46074910F0FCFB304645
S31508001CE02C4404F8016C02B070BD0B20FBE71920E8
S31508001CF0F9E700BF0F7208003B380108014800F0F9
S31508001D004FBB00BF04720800014800F073BA00BF59
S31508001D1004720800014800F05DBB00BF1F7208008E
S31508001D20014800F0BDBA00BF1F720800014800F064
S31508001D3007BB00BF0772080037B512480D4600F00A
S31508001D400DFA40F201239842044604D14FF4706319
S31508001D502B80002014E098B92B88B3F5805FF8D360
S31508001D6001200BF06BFA50B14FF4BA732F22012100
S31508001D70CDE900322046044B044A0BF052FA2F20D4
S31508001D8003B030BD077208004838010868380108F2
S31508001D90014800F0EDBA00BF0872080010B5064801
S31508001DA00C4600F003FA40F20123984202BF4FF4B2
S31508001DB07A730020236010BD08720800014800F0FD
S31508001DC0EFBA00BF09720800014800F013BA00BF55
S31508001DD009720800014800F0E3BA00BF0A72080059
S31508001DE0014800F007BA00BF0A72080008B50A469B
S31508001DF002480349FFF7D6FD08BD00BF2672080052
S31508001E00277208000B46024A02490348FFF722BE1A
S31508001E1027720800267208007938010808B50A46AC
S31508001E2002480349FFF7BEFD08BD00BF247208003B
S31508001E30257208000B46024A02490348FFF70ABE04
S31508001E4025720800247208009538010808B50A4664
S31508001E5002480349FFF7A6FD08BD00BF2272080025
S31508001E60237208000B46024A02490348FFF7F2BDEF
S31508001E702372080022720800BB380108022307B53E
S31508001E80D1E9001201A80193FEF74CFC18B9019993
S31508001E90024800F06DFA03B05DF804FB20720800F2
S31508001EA01FB5022003900698009003A8FEF752FC7F
S31508001EB018B90399024800F05BFA05B05DF804FB0F
S31508001EC020720800002370B5154886B00D461646E0
S31508001ED0049300F009F908B3114804A900F066F95B
S31508001EE0D0B9049B3246002B08BF0223294605A811
S31508001EF00593FEF799FC044602200BF09FF950B1B2
S31508001F0002947368022101936B681F200093054AA7
S31508001F10049B0BF086F9204606B070BDD824EBE783
S31508001F2020720800D4380108014800F039BA00BF09
S31508001F3029720800014800F05DB900BF297208003F
S31508001F40014800F047BA00BF05720800014800F0D2
S31508001F50A7B900BF05720800014800F0D9B900BF4B
S31508001F6028720800014800F0D1B800BF287208009E
S31508001F70032307B5D1E9001201A8019300F046F83A
S31508001F8018B90199024800F0F3F903B05DF804FBAB
S31508001F90307208001FB513460022039203AA019265
S31508001FA0202200920A46014604480FF0B4F9002898
S31508001FB014BFAC20002005B05DF804FB0900000240
S31508001FC0014B0BF07FB800BFE9CF0008292828BFCE
S31508001FD0002010B4074C04EB8000074CD4E8AF4F40
S31508001FE01CB1A4465DF8044B60475DF8044B0BF042
S31508001FF02EB900BF1F39010898120020024BD3E8FA
S315080020008F0FC0B2704700BFD436002070B50446A3
S315080020108AB000680D4616460BF01AF91022002100
S3150800202006A810F095FA23680B4A03930123CDE915
S3150800203001234FF4007309493246CDE9043101A85A
S3150800204029466B460FF0FFF8014618B1044807F019
S31508002050DFFEAC200AB070BD002480000010C0046A
S31508002060C339010837B50E4D2C686CB903232246CF
S315080020702146009301200B4B0CF034FB23462246E5
S31508002080214628600CF07CFB286808B910F0DFF9B7
S315080020904FF0FF3103B0BDE830400CF0EFBC00BF95
S315080020A0EC1200209C120020064B10B5186808B9DF
S315080020B010F0CDF90023BDE810401A4619460CF079
S315080020C05FBB00BFEC12002050B1064B984205D00A
S315080020D0C0B200F5300040F0A060704740F2012021
S315080020E0704700BF0BE000F007B50146064801AB94
S315080020F06A46006809F0DEFCFFF7E6FFB0FA80F0F2
S31508002100400903B05DF804FB583600207FB500236C
S3150800211004460D468DF807300BF0ABF8C0B10E4EED
S3150800212003AB2146306802AA09F0C4FCFFF7CCFFCE
S3150800213060B9039B214630680DF1070209F018FCC7
S31508002140FFF7C2FF10B99DF807302B7004B070BDB9
S3150800215040F20120FAE700BF583600207FB5002379
S3150800216004460D46ADF806300BF083F8C0B10E4EA6
S3150800217003AB2146306802AA09F09CFCFFF7A4FFCE
S3150800218060B9039B214630680DF1060209F0F0FBA1
S31508002190FFF79AFF10B9BDF806302B8004B070BD62
S315080021A040F20120FAE700BF583600207FB5002329
S315080021B004460D4603930BF05CF8B0B10C4E02AB27
S315080021C02146306801AA09F075FCFFF77DFF50B972
S315080021D0029B2146306803AA09F0CAFBFFF774FF81
S315080021E008B9039B2B6004B070BD40F20120FAE7E2
S315080021F0583600202DE9F0431D46002385B02B6094
S3150800220007460E4691460BF034F800283ED0DFF814
S315080022108C8003AB3946D8F8000002AA09F04AFCBC
S31508002220FFF752FF0446B8B9039B93B3C6B14B45B3
S3150800223031D232463946D8F8000009F099FBFFF743
S3150800224043FFD8B9039B012B03D13378003B18BF52
S31508002250012300222B60F254204605B0BDE8F08326
S31508002260012B01D02B60F7E73946D8F800000DF1AD
S31508002270070209F07DFBFFF727FF08B10446EBE7E5
S315080022809DF8073003B103982860E5E740F201247A
S31508002290E2E71E24E0E71924DEE700BF58360020EF
S315080022A02DE9F7431D4600232B6006460F46904648
S315080022B00AF0DFFF00B3DFF8549001AB6A463146F7
S315080022C0D9F8000009F0F6FBFFF7FEFE044678B9D8
S315080022D0019BA3B167B1434513D83A463146D9F8AD
S315080022E0000009F045FBFFF7EFFE60B9019B2B6084
S315080022F0204603B0BDE8F08340F20124F8E71E2427
S31508002300F6E71924F4E70446F2E700BF583600203A
S3150800231013B504468DF807100AF0ABFF58B1074805
S315080023200123214600680DF1070209F0D7FAFFF7E5
S31508002330CBFE02B010BD2F20FBE700BF58360020A9
S3150800234013B50446ADF806100AF093FF58B10748CE
S315080023500223214600680DF1060209F0BFFAFFF7CD
S31508002360B3FE02B010BD40F20120FAE7583600204D
S3150800237013B5044601910AF07CFF58B104230748B7
S315080023800DEB03022146006809F0A8FAFFF79CFE48
S3150800239002B010BD40F20120FAE700BF583600200F
S315080023A010B504460AF065FF68B179B10848012AF4
S315080023B01346006838BF01230A46214609F08EFAFB
S315080023C0FFF782FE10BD40F20120FBE72F20F9E758
S315080023D05836002010B504460AF04BFF58B101B92B
S315080023E062B90748134600680A46214609F076FA94
S315080023F0FFF76AFE10BD40F20120FBE72F20F9E740
S31508002400583600200348044A0449121A92100AF062
S315080024106ABF00BF700100081C0300086034002072
S3150800242008B500F02FF8FFF7EDFF124B12498B4263
S3150800243012D30020114B12498B4218D3FEF7D8F855
S31508002440186850F82240586840F8224001329868C7
S315080024508242F5D30C33EAE70022F8E71C6844F811
S31508002460220001325C68A242F8D30833E4E700226E
S31508002470F8E700BFFC4B0108084C0108084C0108A6
S31508002480084C01084FF48041124B134A70B59A6004
S31508002490D3F88820114D42F47002C3F88820104AF8
S315080024A005F5005491664FF0FF3222660D4A6266C2
S315080024B00222C3F8D020BFF34F8FBFF36F8F4FF4BC
S315080024C04036002002F0C0F80020E66002F0AEF8C0
S315080024D02E6170BD00ED00E0000000080080004499
S315080024E000900050F7FF3700014B1868704700BF8F
S315080024F014360020084B1B6F03F00703022B04D089
S31508002500032B05D0012B05D0FEE7044B186870474E
S31508002510034BFBE703487047008000501436002041
S315080025201C360020002D310108B5FFF7E3FF054BE7
S315080025301B6FC3F303330133B0FBF3F0024B186090
S3150800254008BD00BF008000501036002000487047C4
S3150800255000B4C404014B1868704700BF1C3600203D
S3150800256000487047002D31014FF0B4439868C0F316
S3150800257004400C280AD8DFE800F00B090909090904
S31508002580072119091B1D1F000F48704700207047B7
S315080025909B6803F04073B3F1807F11D0B3F1007FDD
S315080025A010D00A4A002B08BF1046704708487047E3
S315080025B008487047084870470848704708487047F1
S315080025C00848704708487047405DC60000093D0046
S315080025D0C0EA210180BA8C010048E801005A62026B
S315080025E00024F40080841E0040420F00014B186846
S315080025F0704700BF1836002070B59400224605467D
S315080026000E4610F04DFF431C0AD058B922463146F3
S3150800261028460FF073FF0028034808BF002070BD46
S315080026200248FCE70248FAE710E000F021E000F073
S3150800263024E000F010B5044610F02EFF431C10D01D
S3150800264088B900F07BFD234620F003002044984219
S3150800265001D1002010BD53F8042B0132F7D00348EE
S31508002660F8E70348F6E70348F4E700BF0EE000F092
S3150800267021E000F024E000F0044BD3F88420D206D1
S31508002680FBD4D3F88400C0F3811070470040005093
S3150800269038B5104B0546D3F880300C4603F00303D3
S315080026A0022B0BD0032B0DD0012B0FD1FFF722FFE6
S315080026B00E2305B1286004B1236038BDFFF754FF27
S315080026C00723F6E7FFF710FF0623F2E7002318466D
S315080026D0EFE700BF0080005038B5184B0546D3F821
S315080026E020010C4600F00700062823D8DFE800F092
S315080026F0040A0E16121A1E00012305B1286004B139
S31508002700236038BDFFF7F0FE0523F6E7FFF722FF43
S315080027100323F2E7FFF728FF0723EEE7FFF720FF7B
S315080027200223EAE7FFF7E0FE0623E6E7FFF712FFD4
S315080027300423E2E700231846DFE700BF00800050C5
S3150800274038B5174B0546D3F828310C4603F007036E
S31508002750013B052B20D8DFE803F003131B0F0B17EB
S31508002760FFF7C2FE052305B1286004B1236038BD12
S31508002770FFF7BAFE0623F6E7FFF7F6FE0723F2E7AA
S31508002780FFF7E8FE0323EEE7FFF7E4FE0423EAE794
S31508002790FFF7E6FE0223E6E700231846E3E700BF55
S315080027A00080005073B50D460021114B0191D3F8F6
S315080027B08041064604F00304022C13D0032C0CD0E7
S315080027C0012C13D101A8FFF787FF10240EB1019B36
S315080027D0336005B12C6002B070BDFFF7C5FE072453
S315080027E00190F3E7FFF7BCFE0190EFE70C46EDE733
S315080027F000800050002337B50193164B0546D3F8E1
S3150800280020320C4603F00703042B21D8DFE803F037
S31508002810030B11161B0001230DB1019A2A6004B19E
S31508002820236003B030BD002101A8FFF789FF1223FA
S31508002830F2E7FFF799FE07230190EDE70AF05EFD40
S315080028400A230190E8E7FFF7D1FE09230190E3E7A1
S315080028500023E1E70080005038B5104B0546D3F851
S3150800286040310C4603F00303022B0BD0032B0DD08B
S31508002870012B0FD10AF042FD0A2305B1286004B1E5
S31508002880236038BDFFF7B2FE0923F6E70AF039FDE3
S315080028900C23F2E701230020EFE700BF0080005079
S315080028A0002337B50193164B0546D3F860320C461C
S315080028B003F00703013B032B1FD8DFE803F0020EE2
S315080028C01914002101A8FFF707FF10230DB1019A7B
S315080028D02A6004B1236003B030BD002101A8FFF7C8
S315080028E0BBFF1123F2E7FFF73FFE07230190EDE751
S315080028F0FFF736FE02230190E8E70023E6E700BF6C
S3150800290000800050002337B50193164B0546D3F8CF
S3150800291094320C4603F00703013B032B1FD8DFE86C
S3150800292003F0020E1914002101A8FFF7D5FE1023A3
S315080029300DB1019A2A6004B1236003B030BD0021AD
S3150800294001A8FFF789FF1123F2E7FFF70DFE07231A
S315080029500190EDE7FFF704FE02230190E8E7002364
S31508002960E6E700BF0080005038B5144B0546D3F89B
S3150800297000020C4600F0070004281BD8DFE800F028
S3150800298003090D111500012305B1286004B1236060
S3150800299038BD0AF0B3FC0A23F6E7FFF727FE09233A
S315080029A0F2E70AF0AEFC0C23EEE7FFF7BDFD0F23B6
S315080029B0800AE9E700231846E6E700BF00800050D2
S315080029C038B5144B0546D3F808020C4600F0070044
S315080029D004281BD8DFE800F003090D1115000123B0
S315080029E005B1286004B1236038BD0AF087FC0A23C4
S315080029F0F6E7FFF7FBFD0923F2E70AF082FC0C2352
S31508002A00EEE7FFF791FD0F23800AE9E70023184652
S31508002A10E6E700BF0080005038B5104B0546D3F8EE
S31508002A2040320C4603F00303022B0BD0032B0DD0C8
S31508002A30012B0FD10AF062FC0A2305B1286004B104
S31508002A40236038BDFFF7D2FD0923F6E70AF059FCE3
S31508002A500C23F2E701230020EFE700BF00800050B7
S31508002A6038B5104B0546D3F860310C4603F003031E
S31508002A70022B0BD0032B0DD0012B0FD10AF03EFCF5
S31508002A800A2305B1286004B1236038BDFFF7AEFDFF
S31508002A900923F6E70AF035FC0C23F2E701230020A8
S31508002AA0EFE700BF00800050B0F5207F1FD009D89F
S31508002AB0B0F5007F15D003D868B1B0F5C07F0AD04D
S31508002AC000200CE0B0F5607FFAD10B4BD3F88000FC
S31508002AD0C0F3011003E0084B186FC0F30330013050
S31508002AE07047054BD3F89000C0F30460F7E7024B34
S31508002AF0186FC0F38020F2E70080005002464FF4BA
S31508002B008030104B10B598660020FFF7CDFF504374
S31508002B1041F671320C4BDC69DA635A6804F4803486
S31508002B2022F4401259B90949884294BF002001206D
S31508002B30000502435A600CB10022DA6310BD04494D
S31508002B40F2E700BF0090005000000350005A6202EE
S31508002B50002D31011FB5002180280446CDE900115A
S31508002B6000F0998029D8002800F09980A0F1200467
S31508002B703D2C35D83D2C33D8DFE804F0919991994E
S31508002B80A9A9A9A9A999B33CC9603C9999993232CE
S31508002B9032323232323299999968D3993232323294
S31508002BA0323232323232323232A9919191CE3C3CB3
S31508002BB0D8774DAE323232323288B0F5B06F00F087
S31508002BC090802DD8B0F5207F71D00CD8B0F5C07F95
S31508002BD065D0B0F5007F65D0B0F5807F00F08680BF
S31508002BE0009804B010BDB0F5607F6BD00DD8B0F575
S31508002BF0407FF5D1FFF798FC02464FF42070FFF7A7
S31508002C0053FFB2FBF0F252085AE0B0F5806F5ED07F
S31508002C10B0F5A06FE4D100216846FFF7EBFDDFE7CA
S31508002C20B0F5106F78D016D8B0F5E06F79D00AD81D
S31508002C30B0F5C06F6BD0B0F5D06FD1D10021684622
S31508002C40FFF792FECCE7B0F5F06FC9D100216846D0
S31508002C50FFF706FFC4E7B0F5406F3DD013D8B0F5CF
S31508002C60206F63D0B0F5286FBAD10021324B03919B
S31508002C70D3F8703203F00303012B02D103A8FFF740
S31508002C80EBFD039B3CE0B0F5486FA9D100216846EF
S31508002C90FFF738FEA4E7FFF72DFC0090A0E7FFF743
S31508002CA043FCFAE7FFF726FC0246204604E0FFF756
S31508002CB03BFC02464FF42070FFF7F6FEB2FBF0F23B
S31508002CC000928DE701A8FFF7E3FC019AEDE70021E2
S31508002CD06846FFF701FD83E700216846FFF730FDE8
S31508002CE07EE700216846FFF75DFD79E74FF0E023B0
S31508002CF002911B695B0705D5FFF716FC0290029B3C
S31508002D0000936DE703A902A8FFF7A6FDF7E70021E0
S31508002D106846FFF7A1FD63E700216846FFF750FE06
S31508002D205EE700216846FFF777FE59E70021684607
S31508002D30FFF7B6FD54E700BF0080005008B58020B5
S31508002D40FFF708FF034B98429EBF4FF48032024BB1
S31508002D501A6708BD005A620200A00050B0F5207F2D
S31508002D6010B50C465DD008D8B0F5007F4ED003D814
S31508002D70C0B1B0F5C07F15D010BDB0F5607FFBD1EE
S31508002D802C4B4C1ED3F8FC202B4912F0807F4FEABF
S31508002D90041427D1D1F8803023F030032343C1F837
S31508002DA08030E9E70AF0E1FA0AF0EDFA4FF48031EB
S31508002DB0224B214A1967136F013C23F4704343EAF7
S31508002DC004331367FFF7B0FB0446FFF755FCC0F161
S31508002DD0020120460AF0D1FA00F042F8BDE8104098
S31508002DE0FFF7ACBFD3F8FC2022F08072C3F8FC20B2
S31508002DF0D1F8802022F030022243C1F88020D3F88F
S31508002E00FC2042F08072C3F8FC20B5E70A4A4C1E43
S31508002E10D2F8903023F0F85343EA0463C2F89030AE
S31508002E20AAE7054A4C1E136F23F4806343EA8423FA
S31508002E301367A1E700ED00E0008000500090005005
S31508002E4008B50121022000F02FF80AF08EFA0AF0E0
S31508002E509AFA4FF48032014B1A6708BD0090005069
S31508002E6008B54FF4C070FFF775FEBDE80840044981
S31508002E70884294BF012102214FF42070FFF76EBFEC
S31508002E8080F0FA02024A536B0342FCD1704700BF36
S31508002E9000400950034A0179D36E23F030030B43EF
S31508002EA0D366704700400050F8B504461C4BD3F86B
S31508002EB08420D106FBD4D3F88430C3F381139C4213
S31508002EC02CD0FFF717FB012C064602D121460AF043
S31508002ED054FA0AF0DDF94FF00072124B07465A66AB
S31508002EE020460AF06CFA4FF480630D4D621E93403B
S31508002EF02B676B6E9A0103D4D5F884309B060AD5E6
S31508002F0038460AF0C9F9022C08D13046BDE8F8401F
S31508002F1000210AF032BAD5F88430EAE7F8BD00BFD6
S31508002F20004000500060005010B50C4608B9FFF785
S31508002F30E1FA074B21461B783BB1064B984204D869
S31508002F400120BDE81040FFF7AFBF0220F9E700BF38
S31508002F50BA330020005A62024FF0004238B5244BBB
S31508002F60244C5A664AF6CD33656C014605F00105D0
S31508002F70236428BB0120FFF785FF6368DB0715D5A7
S31508002F801D4B586008461D4B226BD2070CD498423D
S31508002F9008D1072415B1174B194A1A640AF010FA12
S31508002FA0204638BD0130EFE79842F2D00024F1E719
S31508002FB00132236B13F0080305D08A42F8D1E8E7FB
S31508002FC000220E49F5E78A42E3D020210A4A916297
S31508002FD00121A2F5805251600649084A886A80068E
S31508002FE003D49342D5D00133F8E79342DDE700BF17
S31508002FF000900050004009500060095040420F0000
S315080030003254FFFF4FF0004238B5164B01465A6658
S315080030104AF6CD33144C154A656C236443780B2065
S315080030205B0043F00103D363FFF72CFF63688A78DC
S3150800303023F4F87343EA02136360CA784B7943EAC8
S315080030400223A3600A798B7943EA0223236108786D
S31508003050FFF782FFEB0744BF054B23640AF0B0F97C
S31508003060012038BD00900050004009500040005033
S315080030703254FFFF4FF00042124B70B55D6E03F5F8
S3150800308080535A664AF6CD3304460F4980204E6C63
S315080030900B64FFF7F7FE0B6A23F00F030F2C94BFA0
S315080030A0234343F00F030B62F30744BF074B0B643C
S315080030B0002DA2BF4FF00042054B5A660AF080F970
S315080030C070BD00BF00800050004009503254FFFF19
S315080030D000A000504FF48032054B9A6641F67132D3
S315080030E003F51C33DA63012203F50053DA607047EF
S315080030F00090005041F671320121064BDA6303F560
S315080031000052D1600022DA634FF48032A3F51833F7
S315080031109A667047000003504FF48032064B5A6691
S3150800312003F5E6239B69C3F38512827003F03F0219
S315080031301B0B427003707047009000500120034B30
S315080031409B680A3303F01F03984070470080E00F1E
S315080031502DE9F04101F0B4FE0128074624D901F013
S31508003160E3FE051E03DA01242046BDE8F081204B64
S315080031701B78002B3AD100244FF050081D4E06F15B
S3150800318010033046C6E90044B360C6F80C8001F067
S315080031901BFF306680B90124012FE5D9284601F0C6
S315080031A0E5FE0028E0DADEE7114B1B7803F0FF05A1
S315080031B0002BE0D00024D7E70F4E214606F1100376
S315080031C032460120C6E90044C6E9023801F0C6FFC6
S315080031D030660028DFD00321412001F043FA412060
S315080031E001F024FA0122024B1A70D5E70024D5E72C
S315080031F0BB33002004140020A013002008B501F0FA
S315080032005FFE02280FD1094B4FF0FF31186E01F00F
S3150800321025FF002814BF0120002003D14FF4806247
S31508003220034B9A6608BD0020F8E700BF0414002087
S31508003230009000504FF4806208B5084B9A6601F07A
S315080032403FFE022807D1064B186E01F037FF0038FB
S3150800325018BF012008BD0020F9E700BF00A00050F4
S315080032600414002008B54FF098435B6CD90208D5C2
S3150800327001F026FE0238012803D8094B186E01F022
S31508003280FBFF4FF098435A6CD202FCD55B6D054A9A
S3150800329003F4702313604120BDE8084001F0D4B957
S315080032A0A01300202036002010B5044600283BD085
S315080032B0FFF7A4FF002838D120460AF0ECFA94F864
S315080032C0203043B94FF098435A6CD202FCD55C6D56
S315080032D004F4702412E04FF09844A36D43F00203FF
S315080032E0A36501F0EDFD022810D0A36D23F00203BB
S315080032F0A3654FF4A0220D4B1C681A60FFF79AFFCE
S315080033009CB12046BDE810400AF05BB8084B4FF068
S31508003310FF31186E01F07AFFA36D23F00203A3654F
S315080033200028E6D0012000E0212010BD203600202C
S31508003330A01300202DE9FF474FF000080E46174658
S315080033400446CDF80080002859D022B90025284621
S3150800335004B0BDE8F087002951D032F0030902F025
S31508003360030A1FD04FF0E063C0E90038012301913A
S31508003370C0F808800293C0F81C8049F0005301A9E0
S3150800338003930AF075FA494620460AF07BFA204666
S31508003390FFF78AFF054628B14A46414630460FF0F0
S315080033A0D7F8D4E7BAF1000FD0D04FF000084FF0A5
S315080033B0E063C4E900380123CDF804D00293114B29
S315080033C0204601A9C4F80880C4F81C8003930AF0B3
S315080033D04FFA042120460AF055FA2046FFF764FF03
S315080033E0054608B13A46D8E7009A4E44EB0001353F
S315080033F022FA03F3AA4506F8013BF7D1A6E72125E9
S31508003400A5E700BF040000202DE9F04190460278A8
S315080034100C46022A8AB032D0032A35D0012A38D17E
S3150800342014271D4A00F10C05226000229E01C4E9FA
S315080034300122E261314620460AF024FA0123204699
S3150800344047F0005704A946F00056CDF804800293C9
S3150800345003960495059306970795089309970AF026
S31508003460FDF9204601A90AF0F9F9204607A90AF04C
S31508003470FFF92046FFF718FF0AB0BDE8F0812027BC
S31508003480064A00F10C05CFE72027054A00F10C058E
S31508003490CAE72120F0E700BF000201030003010389
S315080034A00004010310B591B188B10023C0E90133C6
S315080034B0084B00F10C0203F1200153F8044B8B4230
S315080034C042F8044BF9D101230370002010BD2120D6
S315080034D0FCE700BF9E3A010810B591B188B10023F8
S315080034E0C0E90133084B00F10C0203F1200153F83F
S315080034F0044B8B4242F8044BF9D102230370002097
S3150800350010BD2120FCE700BF593A010810B591B15A
S3150800351088B10023C0E90133084B00F10C0203F11E
S31508003520200153F8044B8B4242F8044BF9D103238C
S315080035300370002010BD2120FCE700BF7A3A01087D
S315080035402DE9F04F0D46914604468BB000285ED013
S3150800355000295CD0002A5AD00278022A0CD0032A05
S315080035604DD0012A53D114262B4900F10C0B00F13A
S3150800357004082C34374607E020261C27274900F183
S315080035800C0B00F104082C349F4240D8D8F80420CC
S31508003590002A3ED1D8F80030284603F03F0AC5E98C
S315080035A00012AA60EA6151460AF06CF92846D8F872
S315080035B000100AF067F901224AF00053284601A9CB
S315080035C046F0005647F00057CDF804B0029203962D
S315080035D0049405920693CDF81C90089209970AF070
S315080035E03DF9284604A90AF039F9284607A90AF038
S315080035F03FF92846FFF758FE0BB0BDE8F08F2026A6
S31508003600074900F10C0B00F104082C34B2E721201D
S31508003610F2E70F20F0E700BF0002030300030303ED
S31508003620000403032DE9F04387B00D4691461E4674
S315080036300446DDF83880002836D0B8F1000F33D0BC
S3150800364002B98BBB6B1EDBB2022B2DD8174AD75C8F
S315080036500F9B9F4228D80023280200F1407000F5EE
S3150800366080703146C4E901332060E36120460AF0E0
S3150800367009F901236946204646F0005647F00057E7
S31508003680CDF8009001930296CDF80C800493059727
S315080036900AF0E4F8204603A90AF0EAF82046FFF7FC
S315080036A003FE07B0BDE8F0832120FAE79B3A01083C
S315080036B0F0B50F4616461D46044693B010B92120AC
S315080036C013B0F0BD0029FAD0002AF8D0002BF6D0A6
S315080036D0002331461A46384609F059FF0028EFD12B
S315080036E0304602A909F000FF0028E9D138683449B4
S315080036F0029A88426B695ED19342E0D32B68002B0D
S31508003700DDD14FF060623846C4E90023A360E36167
S3150800371001A909F097FF0028D2D10199204621F482
S31508003720F06101910AF0AEF86946284609F08AFF69
S315080037300028C5D1204600990AF0A4F8384609A9F8
S315080037400AF02EF80028BBD1204609A90AF086F807
S3150800375038460CA90AF02FF80028B1D120460CA942
S315080037600AF07CF8EB684BB1284606A90AF018F867
S315080037700028A5D1204606A90AF070F8304603A904
S315080037800AF019F800289BD1204603A90AF066F822
S3150800379028460FA90AF00FF8002891D120460FA94C
S315080037A00AF066F803252046FFF77EFD012887D133
S315080037B0013DF8D184E7B3EB420F9FD27FE700BF04
S315080037C0200000B070B50E46154604468AB000289B
S315080037D05CD000295AD0002A58D0012329461A4617
S315080037E0304609F0D4FE00284ED1B36813F4C04F12
S315080037F04CD0AB6803F4C043B3F5005F46D1254B04
S31508003800A060C4E90030E06107A9304609F01AFF54
S31508003810002839D1204607990AF034F80123029383
S315080038204FF00053204601A903930AF017F83046D3
S3150800383004A909F0C0FF38BB204604A90AF00EF80F
S31508003840EB681BBBAB6803F4C043B3F5005F1DD13F
S315080038506946284609F06BFEB0B9009B6A699A4228
S3150800386016D32A6943F0005307920122204607A976
S3150800387008920325099309F0FBFF2046FFF714FD7C
S31508003880012801D1013DF8D10AB070BD2120FBE71E
S315080038901D20F9E7000001022DE9F04391B00D461D
S315080038A0DDE918760446DDF8688000286DD0002921
S315080038B06BD0002F69D0B8F1000F66D0096801F007
S315080038C07041B1F1404F5BD0002B5BD1531E022BE8
S315080038D05BD8120202F1C06202F580720023284604
S315080038E0C4E901332260E3610DA909F0ABFE0028A3
S315080038F043D120460D9909F0C5FF3146204609F007
S31508003900C1FF284601A909F04BFF002835D12046FA
S3150800391001A909F0A3FF284604A909F04CFF60BBDA
S315080039204FF00109204604A909F098FF46F0005611
S31508003930204607A90797CDF82090099609F08EFF2B
S315080039402B680A9703F07043B3F1404FCDF82C90DB
S315080039500C9603D120460AA909F080FF0123CDF869
S3150800396034800E931B9B204643F000530DA90F93FA
S3150800397009F07EFF2046FFF797FC11B0BDE8F083FB
S31508003980034AABE74FF0C062A8E72120F5E700BF7E
S31508003990000002062DE9F0418CB00D46DDE91286DD
S315080039A00446149F002867D0002965D0B8F1000F97
S315080039B062D0002F60D0896889045DD5296801F036
S315080039C07041B1F1404F4DD0002B4DD1531E022B03
S315080039D052D82A4B03EB022200232846C4E90133B6
S315080039E02260E36109A909F02DFE002837D1204697
S315080039F0099909F047FF3146204609F043FF694611
S31508003A00284609F0CDFE50BB6946204609F026FF38
S31508003A10284603A909F0CFFE08BB204603A909F0EA
S31508003A201DFF012346F00056CDF818800793089627
S31508003A3009970A93159B43F000530B932B6803F0E1
S31508003A407043B3F1404F11D109A9204609F006FF8A
S31508003A5006A9204609F002FF2046FFF725FC0CB010
S31508003A60BDE8F081064AB7E7064AB5E706A9204643
S31508003A7009F0F4FE09A9ECE72120F0E700010106A8
S31508003A80000003060000010610F1860F1BD010F196
S31508003A90850F08DA10F1930F18D010F1870F07D0A9
S31508003AA04FF0FF307047003818BF0120404270477A
S31508003AB0094B99420DD0043399420CBF6FF073003D
S31508003AC06FF06D0070476FF0710070476FF06F0010
S31508003AD070476FF07200704705000002012910B5A3
S31508003AE00CDC084C084B00290CBF2146194600F08F
S31508003AF023FD2146BDE81040FFF7C6BF6FF07300EF
S31508003B0010BD00BF090000020800000208B50AF04F
S31508003B104CFBBDE808400149FFF7B6BF09000002A3
S31508003B20002307B52022019301AB0AF05AFB03498B
S31508003B3003B05DF804EBFFF7A7BF00BF090000025A
S31508003B4010B5044C214600F0F7FC2146BDE81040AC
S31508003B50FFF79ABF0500000208B50AF026FBBDE884
S31508003B6008400149FFF790BF05000002002307B58A
S31508003B701422019301AB0AF034FB034903B05DF844
S31508003B8004EBFFF781BF00BF0500000238B5134DEF
S31508003B90FFF7DEFA124B134A1349144805F0FCF9ED
S31508003BA02B7803F0FF04BBB901F08AF9012802D982
S31508003BB001F0BAF904462B782BB90D4B0D481B6852
S31508003BC0984701232B7001F07BF9012804D9204678
S31508003BD0BDE8384001F0CAB938BD00BFBC33002083
S31508003BE0E1D8000807D9000847D9000831D90008E4
S31508003BF0503600209C210020012300F01F02A0F56A
S31508003C0006200949A0F550604009934051F8202044
S31508003C101A4341F82020054951F8202022EA0302D8
S31508003C2041F82020704700BF7C140020681400204B
S31508003C300121A0F506230E4AA3F550635B0900F09F
S31508003C401F00814052F82300014342F82310094916
S31508003C50D1E90030034488680344C8680969034405
S31508003C605B1802BFC2E90033C2E902331361704729
S31508003C70681400207C1400202DE9F04FA9B00392A7
S31508003C801D4604460822339ECDE90401414021FA27
S31508003C9002F34B40980702F1080218BF9B00202A3E
S31508003CA01C44F4D18123B4FBF3F303EBC313E41AE6
S31508003CB0734B04F506241B7804F55064002B3ED19B
S31508003CC005F03CFD074620B16FF0910029B0BDE82C
S31508003CD0F08F0146402208A80EF03AFC40223946E9
S31508003CE018A80EF035FCDFF8B481DFF8B491C346A6
S31508003CF00BF10F0ACDF800A0102208A95B46D9F8E7
S31508003D0000000FF02CFA0022014608F1100808AF4F
S31508003D10914246D1CDF800A05B461022D9F80000A2
S31508003D2018A90FF025FA4FF0000A834618AFD345B5
S31508003D3041D1544B9845DAD10122514B1A704FF0B4
S31508003D40810A4FF00008DFF85CB1A4F50627A7F54D
S31508003D5050635B095BF8232004F01F01CA40D207B1
S31508003D603DD4494A52F82330CB40DB072AD5B8F16F
S31508003D70000F08BFA0468123A7F6FF47B7FBF3F35A
S31508003D8003EBC313FF1A07F50624BAF1010A04F573
S31508003D905064DAD1039BBBB1B8F1000F14D0444686
S31508003DA019E057F8040BCDE90612FFF725FF079A25
S31508003DB006990132ACE757F8040BFFF739FF0AF109
S31508003DC0010AB4E7039B13B96FF08B007EE7B8F1DD
S31508003DD0000F18BF4446349B00201C6076E7329BD0
S31508003DE013B10023329A13600EB1002333601023F7
S31508003DF0DFF8AC9000932A4600232146D9F8000044
S31508003E0007F004FE60BB32992A68204BC9B99A426A
S31508003E1006D02146D9F8000007F090FE0028D3D135
S31508003E20D5E90223DDE90410834208BF8A42A2D1FC
S31508003E30039B002BCFD06B68012BCCD16FF084008D
S31508003E4044E7102032999A420860E2D1002EE7D062
S31508003E5033462146D9F8000018AA07F02BFE48B1C8
S31508003E600B4B9842D5D00B4B9842D2D00A4B98426E
S31508003E70D6D029E7329A336812689B1A3360CFE79F
S31508003E80BD3300200071080068140020105D175E1D
S31508003E90FFDF00F011E000F0FEDF00F0006D080023
S31508003EA0583600207C14002070B5124D2B7803F08C
S31508003EB0FF04CBB901F004F8012802D901F034F85F
S31508003EC004462B784BB90C48436D43F00103436510
S31508003ED00A4B1B68984701232B7000F0F1FF012855
S31508003EE002D9204601F042F8BDE87040044B02486A
S31508003EF01B681847BE330020901400205036002057
S31508003F0048360020034B1B781BB1034B03481B683C
S31508003F1018477047BE33002044360020901400200E
S31508003F202DE9F04F87B08246894698461646DDF851
S31508003F3040B02AB1002B53D040F26C739A4252D843
S31508003F40BBF1010F52D8002406F1100739460120AB
S31508003F5005940AF029FA054600284AD021463A4629
S31508003F600EF0F6FAFFF7A0FF05ABCDE90143009482
S31508003F702B46012250464946FFF77EFE044690B17D
S31508003F8010F18C0F08BF6FF08D043A4600212846C1
S31508003F900EF0DEFA28460AF0E9F9FFF7B3FF2046E5
S31508003FA007B0BDE8F08F144BC5E902A92B60C5F828
S31508003FB004B02EB13246414605F110000EF0FDFA66
S31508003FC0059E0E483B462A463146006807F086FCA1
S31508003FD018B93046FFF710FED7E76FF09104D4E71B
S31508003FE06FF08604DBE76FF09104D8E76FF085047D
S31508003FF0D5E76FF08C04D2E7105D175E58360020BF
S315080040002DE9F0478CB08146DDE914780C46164652
S315080040101D466BB1B8F1000F49D0002F47D0B7F154
S31508004020005F44D3C3F1005303F500339F423ED8E3
S315080040304FF0000A1022002108A80EF089FACDE9EF
S3150800404005AAFFF731FF07AB029305AB019306AB51
S31508004050214600935246484608ABFFF70DFE044634
S31508004060D0B9059B3DB1B3421CD853EA060504D026
S315080040706FF0860410E0B342FAD3069B0D48C8F8E1
S31508004080005000953A4607990068334407F0BEFC8D
S31508004090002818BF6FF09104FFF734FF20460CB0D4
S315080040A0BDE8F0879B1B9D4228BF1D46E5E76FF0DC
S315080040B08604F3E75836002070B500260C460546F8
S315080040C08CB01022002108A80EF042FACDE9056648
S315080040D0FFF7EAFE07AB029305AB019306AB214651
S315080040E000933246284608ABFFF7C6FD0446D8B902
S315080040F0099B012B1DD0079D114B2946186807F00F
S315080041001DFDC8B90122A5F506230E49A3F550637E
S315080041105B0905F01F00824051F8230042402846FB
S3150800412041F82320FFF784FDFFF7ECFE20460CB08C
S3150800413070BD6FF08404F7E76FF09104F4E700BFF1
S31508004140583600207C140020F8B5134642880C46E1
S315080041500732072A4FEAD20101D0A1424DD146685B
S315080041600588C7682022184600210EF0F1F9360A9C
S315080041700346002E44D1002C3FD041F2010295425D
S3150800418005D0B5F5885F02D0B5F5905F02D15C60C1
S31508004190002011E0B5F5105F07D1182C03D0202CAC
S315080041A001D0102C29D11C60F1E705F44F42B2F575
S315080041B0824F02D06FF08500F8BDEAB2122AF9D113
S315080041C0202CF7D1104A25F0FF05B5F5E24F02601D
S315080041D00CD0B5F5824F10D14FF4005217F4705F2A
S315080041E009D017F4864F04D09A60E3E74FF480426B
S315080041F0F4E742F480629A60CAE76FF08600DBE76C
S315080042006FF08B00D8E700BF200000802DE9F04F43
S3150800421099460388164603F44F42B3B0B2F5824F67
S315080042200F46DDF8F88002D06FF0850002E021B96C
S315080042306FF0860033B0BDE8F08F002EF8D0B8F1E5
S31508004240000FF5D0DAB2122AEED123F0FF03B3F548
S31508004250E24F33D14388C8F8003053BBF300C8F89F
S315080042600030B3F5807FDFD1002318464E49BC19CC
S31508004270314411F8015D14F8012D1043521B0CBF8F
S315080042804FF0FF350025A74203EA050343EA020378
S31508004290EFD10028CCD0002BCADA3C9B9E427FD8AF
S315080042A03246394648460EF088F93D9B00201E6086
S315080042B0C0E7DA1DB6EBD20FD3D0B9E7B3F5824F14
S315080042C06BD10B78042BB3D12422002119A80EF048
S315080042D03FF919A809F0A3F8824600285AD10146E1
S315080042E03C22229023A80EF033F901234FF0400B0D
S315080042F020225146741E01A88DF888300EF028F940
S315080043007B1C20225146069409A8E400059322AD99
S315080043100EF01EF964082022514611A80D95CDF815
S3150800432038B00EF015F9B4F5C07FCDE9155BC8F8BD
S3150800433000403FF479AF28D8E02C03D0B4F5807F4D
S315080043407FF476AF194B0734019309934FF4005362
S3150800435003934FF48043E4080B9301AA11AB64005E
S3150800436009A919A81294FFF7A3F9D8F8003007335A
S31508004370DB085A0033B10021531E013B297005F1B1
S315080043800105FAD2002888D052E7B4F5047F3FF435
S315080043904BAF4DE76FF092004CE76FF0960049E798
S315080043A06FF0890046E700BFBE3A0108200000808A
S315080043B0038810B503F44F42B2F5824F21F0FF028D
S315080043C021F4FF71134C21F0010109D0A1421AD042
S315080043D0114B9A4214BF6FF085006FF0860010BD2E
S315080043E0A142DBB20FD00C498A420CD0122B0DD158
S315080043F04388B3F5807F09D1B2F1062F0CBF0020A0
S315080044006FF08500EBE76FF08600E8E76FF0850050
S31508004410E5E700BF0002000600130006154A20F46F
S31508004420FF7323F0010393420ED0134B20F0FF02D3
S315080044309A4209D0114920F47F7323F003038B4273
S3150800444002D00F4B9A420FD110F0FF0011D00D4B3E
S3150800445040F00070984209D00133984208D0043BD6
S31508004460C31A5842584170470020704702207047C7
S315080044700320704700020006001300060004000629
S3150800448000090006080000022DE9F0478CB017461F
S31508004490DDE914A498460E4609B9002A46D1B8F1B2
S315080044A0000F10D1BAF1000F40D1002C3ED0214B9D
S315080044B0984218D00133984215D0043B984212D03E
S315080044C06FF0850013E08CB31A4B984212D0013373
S315080044D0984213D0043B9842F2D114234FF00109B5
S315080044E09A4523600ED200236FF0890023600CB032
S315080044F0BDE8F0871C234FF00209F1E720234FF0AF
S315080045000309EDE703A808F08AFF054610B16FF026
S315080045109200ECE73B4632464946CDE9008A03A8B5
S31508004520FFF780F80028E2D02560F0E76FF08600F4
S31508004530DDE700BF0800000230B50D4604468BB023
S3150800454030B3031D6C22002118460EF001F8134AF9
S31508004550954211D00132954214D0043A95421AD1A7
S31508004560012201A92270FEF79DFF002814BF6FF0F3
S31508004570920000200BB030BD022201A92270FEF77E
S31508004580ABFFF2E7032201A92270FEF7BFFFECE7B3
S315080045906FF08600EEE76FF08500EBE70800000293
S315080045A007B5094B18689A889B7900906846ADF854
S315080045B004208DF80630FEF725FD0C20FEF75AFD7F
S315080045C0002003B05DF804FBDE3A010813B50024A9
S315080045D0064A6846536F43F00103536700948DF803
S315080045E00440FEF757FC204602B010BD00400050BC
S315080045F06FF00403502110B50A480B4C13F0800FD6
S3150800460003F1010206D123444C2A83F8001313460A
S31508004610F4D110BD03F00F03043B03441976134687
S31508004620ECE700BF00ED00E000E100E0002807DB52
S3150800463001234109034A00F01F00834042F8213054
S31508004640704700BF00E100E0002808DB01224309AB
S31508004650034900F01F008240603341F82320704769
S3150800466000E100E00028ACBF00F16040064B4FEACD
S315080046700111C9B2ABBF00F5614000F00F0080F828
S3150800468000131954704700BF14ED00E073B508F025
S31508004690FFFD0D4D0D4B2E781C6808F0FDFD09F049
S315080046A0C7FE38B1FF2E05D00020297801AA08F0E8
S315080046B012FE019C2CB908F0EBFD054B1C6808F0AE
S315080046C0EBFD204602B070BDD5360020F41400205C
S315080046D0F814002010B5044608F0DAFD024B1C60F9
S315080046E008F0DAFD002010BDF814002013B50023E9
S315080046F001241A4619461846009404F0A7FF002319
S3150800470000941A461946184604F0D2FF0248FFF7E5
S31508004710E1FF002002B010BD2836002073B5002442
S31508004720684600F03BFB0C4B00981C600B4B0C4D8D
S315080047301C600C4E0C4B306018602C6009F056FE5D
S315080047402046019B3268083BDB0853802B680133FF
S315080047502B6002B070BD00BF00150020FC140020BD
S31508004760041500200C150020081500202DE9F04F2F
S315080047700026154689B04A1C0C4614BF89464FF0D8
S31508004780080998460796002B00F0DB801E60002873
S3150800479000F0D980C71D08F082FD27F0070B07AB8C
S315080047A02146039000932A463346584600F000FBFC
S315080047B0079C064604B130B9039808F076FD19201F
S315080047C009B0BDE8F08FDFF89CA16288DAF800101E
S315080047D0D300C0EBC2020139272A0493CAF8001095
S315080047E040F28280002D5AD183450BF1080551D03D
S315080047F04946204609F074FD81460790079A02EB60
S31508004800050B584609F0F2FD0799C5F3CF054A8806
S31508004810ABF80450521BABF80220CA88002A3BD0DA
S31508004820551BADB201EBC202ABF8065095808A88DB
S315080048304849A9F80420BBF80420FF08A9F806206F
S315080048400A68A9F80270944208BFC1F800B0424944
S315080048500A68944201D1C1F800B099F8002042F0E4
S31508004860010289F80020DAF800200132CAF800208F
S315080048703A4A0398136833441360394A11688B42DD
S3150800488088BF136008F011FD09F108030020C8F875
S31508004890003095E7A146B1E7ABF80620C7E704EB79
S315080048A002094846059209F0A1FD079C059AF108F8
S315080048B0E088A9F80210D108A9F8041088B1049B69
S315080048C0C3EBC0013144C1F3CF0104EBC000A9F822
S315080048D006108180083AD2086280B9F80420E2807E
S315080048E0BBE7A9F80600F5E7012D2ED104F1080269
S315080048F0B2FBF9F109FB11224AB34946204609F0F1
S31508004900EFFC814699F80020DAF8003042F00102FF
S31508004910104F114D89F8002083B13B689C4204D1A1
S315080049204946002000F08CFA38602B689C429FD1DB
S315080049304946012000F084FA286099E73B602B601D
S3150800494096E722203CE721203AE78345D5D1A146C0
S31508004950D8E700BF0C150020081500200015002018
S31508004960FC140020041500202DE9F7430446684688
S3150800497000F014FA002C00F0B18008F090FC14F84E
S3150800498008CC81461CF0010F00F0AA8034F8061CFA
S31508004990002900F0A580534D34F8047CD5F800E0D2
S315080049A04A1C0EF10103A4F1080692B22B60002FEF
S315080049B037D0A6EBC70393F800800CF0020C18F06A
S315080049C0010F20D1BCF1000F20D15A8802311144C1
S315080049D08AB2C5F800E034F802CCBCF1000F22D147
S315080049E014F8085C511E6FF3000504F8085C0025EE
S315080049F089B224F8065C5980197865F300011970A4
S31508004A000021D9802FE0BCF1000F0AD014F8081C49
S31508004A1017446FF3410104F8081C0021BAB29980C3
S31508004A20D9E73346D7E706EBCC01DDE90070074442
S31508004A30B942D5D216F83C6016F001072ED014F804
S31508004A40085C6FF3000504F8085C002524F8065C8A
S31508004A50541E5C801C7865F300041C70CC1AC4F3E1
S31508004A60CF04DC808C80204C216819B1994201D88A
S31508004A70498801B923601D4C216819B1994201D3AF
S31508004A80498801B923601A4948460B689B1A0B6086
S31508004A9008F00BFC002003B0BDE8F0834E884F8079
S31508004AA001363244CE8892B2B6B101EBC6012E6801
S31508004AB0013E2E6014F8085C6FF3000504F8085CE4
S31508004AC0002524F8065C541E5C801C7865F30004F7
S31508004AD01C700029C2D193E73146E8E72220DAE7BD
S31508004AE00120D8E7041500200C1500200815002021
S31508004AF0001500202DE9F74F04460D461646002AF4
S31508004B0000F03B810023136048B9002900F0388182
S31508004B100146284603B0BDE8F04F09F021BC21B98B
S31508004B2003B0BDE8F04FFFF71FBF08F0B8FB0090D1
S31508004B3034F8060CE91D4FEAC00821F00705A84518
S31508004B40A4F1080B80F0968034F8023C002B73D051
S31508004B500BEBC30A1BF83330DA076DD4BAF802C078
S31508004B60A8EB050313EBCC0366D41F2BDFF82892BA
S31508004B70854F4BDDC1F3CF0104EB050B24F8061C6A
S31508004B80013124F8021C5846019309F02FFC34F829
S31508004B90021C019BABF80410BAF80610C3F3CF0346
S31508004BA0ABF8023039B101339BB2ABF806300AEBE9
S31508004BB0C1018B8001E0ABF80610504609F016FCDF
S31508004BC0D9F800304BB15946002000F039F959465A
S31508004BD03860012000F034F901E0002038604FF019
S31508004BE000096A4B18603460694A13682B44A3EBC2
S31508004BF008031360674A11688B4200D9136000984E
S31508004C0008F053FB484603B0BDE8F08FD9F800100A
S31508004C1000EB0C0301399BB2C9F80010591C24F8A3
S31508004C20061CBAF8061021B102339BB224F8023CDE
S31508004C30BDE724F8021CC0E7009808F036FB3246A8
S31508004C400021284609F08CFB81460028DAD108F0B5
S31508004C5026FB07464246214630680DF0AEFC38462C
S31508004C6008F023FB2046FFF77FFE814608F017FB76
S31508004C700090B9E77FD934F8023CA8EB0507002B6A
S31508004C804BD00BEBC3091BF83330DB0746D4C1F313
S31508004C90CF0104EB050A24F8061C0131504624F816
S31508004CA0021C09F0A3FBB9F8023034F8022C03EB16
S31508004CB0D703AAF80420B9F806209BB2AAF802304E
S31508004CC0CAB101339BB209EBC202AAF80630938037
S31508004CD0484609F08BFB304B1B687BB151460020D8
S31508004CE000F0AEF8284B51461860012000F0A8F8ED
S31508004CF0264B186007E0AAF80620E9E70023224AAF
S31508004D001360224A1360224B34601A681544A5EBD7
S31508004D1008051D604FF0000971E79946272FF2D95B
S31508004D20C1F3CF0104EB050A24F8061C01315046ED
S31508004D3024F8021C09F05AFB34F8022CC7F3CF03F7
S31508004D40AAF80230AAF80420B9F1000F0FD0B9F872
S31508004D50062062B101339BB209EBC209AAF80630F4
S31508004D60A9F804300C4A136801331360B5E7002329
S31508004D70AAF80630F6E73460CCE74FF0220941E797
S31508004D804FF021093EE700BF0C150020081500204A
S31508004D9000150020FC140020041500200249034ACF
S31508004DA00160521A42607047983F002000000220B6
S31508004DB0F0B54C1C074608BF0821AAB91E48046866
S31508004DC0002C37D06688DB0003EBC606C1F1000C61
S31508004DD02078C0070AD52ABBE08850B304EBC00484
S31508004DE0668803EBC606F3E71448E8E7BE42F2D343
S31508004DF062B904F10805B5FBF1F001FB1055E81995
S31508004E000DB1B042E8D8059B1C60F0BD08290ED04C
S31508004E106588013504EBC505E81B00EA0C00281A6D
S31508004E208642F0D2A08820B1A4EBC004D8E7384661
S31508004E30E9E704462046E6E70C1500200815002099
S31508004E4013B50446084621B96846FFF7A7FF74B9A3
S31508004E5000980378D90708D564B9C388002BF8D019
S31508004E6000EBC3000378DA07F7D402B010BD064B8F
S31508004E701868EEE7012CECD183880BB1A0EBC300D0
S31508004E800378DB07F8D4F0E708150020EFF305836D
S31508004E9073B9EFF31082094B12B9EFF3118212B10D
S31508004EA01A68022A04D0186828B901221A607047BD
S31508004EB06FF0050070474FF0FF307047D01A00209A
S31508004EC008B500F0F1FD38B1022804D0034B186884
S31508004ED0431E5842584108BD0320FCE7D01A00205B
S31508004EE010B5EFF30583BBB9EFF310830D4C13B977
S31508004EF0EFF3118313B12368022B0DD02368012B1E
S31508004F000DD16FF004000021FFF7ACFB02232360EC
S31508004F1000F0A4FB002010BD6FF00500FBE74FF082
S31508004F20FF30F8E7D01A002008B5EFF3058393B9E8
S31508004F30EFF3108313B9EFF311831BB10A4B1B6808
S31508004F40022B08D000F0B0FD40B1022808D100F0CD
S31508004F50BDFB002008BD6FF00500FBE70120F9E75F
S31508004F604FF0FF30F6E700BFD01A002010B5044610
S31508004F70EFF3058303BBEFF3108313B9EFF3118344
S31508004F801BB1104B1B68022B16D000F08DFD30F0BC
S31508004F90020314D1012C03D100F098FB204610BD62
S31508004FA06CB900F02DFC0128F8D000F07DFD841EB8
S31508004FB018BF4FF0FF34F1E76FF00504EEE74FF046
S31508004FC0FF34EBE7D01A002038B50546EFF3058322
S31508004FD013B10024204638BDEFF3108313B9EFF35D
S31508004FE011831BB11C4B1B68022BF2D02DB36B68C7
S31508004FF01A07EED4D5E9021203F0010371B14F2A5C
S31508005000E7D993B1042009F036FC04460028E0D01D
S31508005010296800F00DFA44F00104DBE7002AD8D12C
S31508005020ABB1042009F051FCEFE7012009F023FC9D
S3150800503004460028CDD0296806E0012009F045FC81
S3150800504004460028C5D0294600F0F2F9C2E7012037
S3150800505009F03BFCECE700BFD01A0020034610B568
S3150800506020F001000C4603F00102EFF30581E9B9CF
S31508005070EFF3108111B9EFF3118119B10E490968DF
S31508005080022913D0012B14D9214662B109F076FD05
S31508005090012801D1002010BD002C14BF6FF00100BB
S315080050A06FF00200F7E709F0E9FCF1E76FF0050099
S315080050B0F1E76FF00300EEE7D01A0020024608B5C4
S315080050C020F0010002F00103EFF30581C9B9EFF3FF
S315080050D0108111B9EFF3118119B10D490968022937
S315080050E00FD0012A10D93BB109F0DAFB01280CBF11
S315080050F000206FF0020008BD1A46194609F040FB69
S31508005100F4E76FF00500F6E76FF00300F3E700BF7A
S31508005110D01A002010B5034620F00104EFF30582EB
S315080051209AB9EFF3108212B9EFF311821AB10A4A4B
S315080051301268022A09D0012B0AD9204600F08AF9FA
S31508005140204609F060FD002010BD6FF00500FBE762
S315080051506FF00300F8E700BFD01A002073B50E46BB
S315080051601546EFF30583D3BBEFF3108313B9EFF3BB
S3150800517011831BB1244B1B68022B30D078B3B04285
S315080051802DD375B9012837D10322002109F0C5FAB4
S31508005190044620B3AEB96DBB2946204600F048F94F
S315080051A01EE0D5E90232C3B14F2A18D901281AD10F
S315080051B0032200920022114609F094FA044670B1BF
S315080051C0C6B1002320461A46194609F0D9FA01281D
S315080051D0E1D0204609F017FD01E0002AD2D00024CC
S315080051E0204602B070BD1A46314609F0B3FA0446A5
S315080051F00028F4D02D68CFE7314609F0B8FA0446FE
S315080052000028C8D1EBE700BFD01A002013B50C461A
S3150800521068B3EFF305834BB9EFF3108313B9EFF3D4
S315080052201183D3B1134B1B68022B16D1FCB9214647
S3150800523001AA019409F0B9FC012803D06FF0020015
S3150800524002B010BD019B0BB90020F9E74FF0E0232F
S315080052504FF08052C3F8042DF6E7214609F00EFCFC
S315080052600128F1D0002CE9D06FF00100E8E76FF0D3
S315080052700300E5E7D01A002007B550B3EFF305831E
S315080052804BB9EFF3108313B9EFF31183CBB1124B7C
S315080052901B68022B15D1002301A9019309F059FBBC
S315080052A0012804D06FF0020003B05DF804FB019BEF
S315080052B02BB14FF0E0234FF08052C3F8042D0020A5
S315080052C0F2E700231A46194609F05AFA0128F6D0D9
S315080052D0E8E76FF00300E7E7D01A0020034B036006
S315080052E0034B0B60A0231360704700BF701A0020A1
S315080052F0F0170020034B0360034B0B60A0231360D9
S31508005300704700BF9017002010150020002307B52E
S315080053100193054B1B6809F001F9019B002BFCD092
S3150800532003B05DF804FB00BF343600204FF0E022DE
S3150800533000234FF47A7113619361044B1B68B3FB26
S31508005340F1F3013B536107231361704710360020C0
S3150800535008B509F0E3F8044A136801331360BFF38C
S315080053604F8FBFF36F8F08BD34360020044B1A6881
S315080053701A68013A1A60186808B909F0DAB8704765
S315080053803436002010B54FF0807440E90224184ADC
S315080053904FF0123440F80C2C4FF003324FF0023C19
S315080053A040E905244FF0013240F8203C40E9072C3B
S315080053B04FF010334FF011324FF0093440E90A32FA
S315080053C04FF008334FF0073C40E90C344FF00633F2
S315080053D04FF0053240E90E3C4FF0043340E91032F5
S315080053E06FF0020340F8443C40F8481D10BD00BF6A
S315080053F00D5300084FF0E02310B50024D3F8202DF4
S3150800540042F47F02C3F8202DD3F8202D42F07F42C4
S31508005410C3F8202DFFF78AFF044B1C60FAF7A0FF9C
S3150800542000F050FAFFF772FF204610BD3436002010
S31508005430002330B5064A52F8335002EBC3041DB9AF
S3150800544042F83310606030BD01330A2BF3D1FAE716
S31508005450D41A0020002310B5084A52F83310DC008D
S31508005460814206D10021064A42F83310224451608F
S3150800547010BD01330A2BF0D1FAE700BFD81A002075
S31508005480D41A00202DE9F0410446FFF761FF2D4BA1
S315080054902D4E1A682D4F01321A603568002D43D1FA
S315080054A034601B68012B1FD1B8464046013508F009
S315080054B0C2FF382D08F11408F7D1DFF8B880244D5B
S315080054C0404608F0B8FF284608F0B5FF214808F01E
S315080054D0B2FF214808F0AFFF204808F0ACFF204B88
S315080054E0C3F800801F4B1D6014201F4A1368013340
S315080054F013601E4A23641168E36A8B4200FB03703B
