S01C00006275696C642F64656275672F67656E657261746F722E7333379C
S31508000000001000200D040008DDB20008DDB200086B
S31508000010DDB20008DDB20008DDB20008DDB2000876
S31508000020DDB20008DDB20008DDB20008A102000852
S31508000030DDB20008602D0108310200082DC800084D
S31508000040DDB20008DDB20008DDB20008DDB2000846
S31508000050DDB20008DDB20008DDB20008DDB2000836
S31508000060DDB20008DDB20008DDB20008DDB2000826
S31508000070DDB20008DDB20008DDB20008DDB2000816
S31508000080DDB20008DDB20008DDB20008DDB2000806
S31508000090DDB20008DDB20008DDB20008DDB20008F6
S315080000A0DDB20008DDB20008DDB20008DDB20008E6
S315080000B0DDB20008DDB20008DDB20008DDB20008D6
S315080000C0DDB20008DDB20008DDB20008DDB20008C6
S315080000D0DDB20008DDB20008DDB20008DDB20008B6
S315080000E0DDB20008DDB20008DDB20008DDB20008A6
S315080000F0DDB20008DDB20008DDB20008DDB2000896
S31508000100DDB20008DDB20008DDB20008DDB2000885
S31508000110DDB20008DDB20008DDB20008DDB2000875
S31508000120DDB20008DDB20008DDB20008DDB2000865
S31508000130DDB20008DDB20008DDB20008DDB2000855
S31508000140DDB20008DDB20008DDB20008DDB2000845
S31508000150DDB20008DDB20008DDB20008DDB2000835
S31508000160DDB20008DDB20008DDB20008DDB2000825
S31508000170DDB20008DDB20008DDB20008DDB2000815
S31508000180DDB2000801140008DDB20008DDB200087F
S31508000190DDB20008DDB20008DDB20008DDB20008F5
S315080001A0DDB20008DDB20008DDB20008DDB20008E5
S315080001B0DDB200080000000000000000000000009A
S315080001C00B4A1168086806C881F30B88022181F377
S315080001D01488203080F30988BFF36F8F4FF0000032
S315080001E080F31188104700BFAFF30080AFF300809B
S315080001F0D8280020000000000000000000000000D1
S3150800020007480068006880F3088862B661B6BFF3DD
S315080002104F8FBFF36F8F02DF00BF00BFAFF30080C1
S3150800022008ED00E0000000000000000000000000EB
S31508000230EFF309801EF0100F08BF20ED108AEFF3C8
S315080002400B82734620E9FC0F114A116808604FF0CB
S31508000250300080F31188BFF34F8FBFF36F8F03F021
S315080002603BFA4FF0000080F31188094A11680868C4
S31508000270B0E8FC0F13F0100F08BFB0EC108A82F339
S315080002800B8880F309881847AFF30080AFF3008026
S31508000290D828002000000000000000000000000030
S315080002A01EF0040F0CBFEFF30880EFF30980044932
S315080002B0084700BFAFF30080AFF30080AFF30080BC
S315080002C007C900080348044B834202D0034B03B115
S315080002D018477047341B0020341B0020000000001C
S315080002E0064B0749C91A891048BF0131491003D07E
S315080002F0044B0BB101481847704700BF341B002058
S31508000300341B00200000000010B5064C237843B9C2
S31508000310FFF7D8FF044B13B10448AFF3008001235D
S31508000320237010BDD834002000000000BC4201082C
S3150800033008B5054B1BB105490548AFF30080BDE874
S315080003400840FFF7CDBF00BF00000000881B002053
S31508000350BC420108A3F5803A704700BF174B002B33
S3150800036008BF134B9D46FFF7F5FF00218B460F4646
S315080003701348144A121A11F023FD0E4B002B00D015
S3150800038098470D4B002B00D0984700200021040009
S315080003900D000D48002802D00C48AFF3008008F085
S315080003A043FF2000290011F019FC08F0E5FC00BF06
S315080003B000000800000000000000000000100020F7
S315080003C0341B0020B05F0020000000000000000081
S315080003D00346054A0549106803448B428CBF4FF013
S315080003E0FF301360704700BF04100020000008208B
S315080003F00348044A0449121A92100AF070BF00BF53
S31508000400044E0108044E0108B05F002008B500F04C
S315080004102FF8FFF7EDFF124B12498B4212D300203B
S31508000420114B12498B4218D3FFF798FF186850F8FA
S315080004302240586840F82240013298688242F5D333
S315080004400C33EAE70022F8E71C6844F82200013278
S315080004505C68A242F8D30833E4E70022F8E700BF55
S31508000460C4420108D0420108D0420108D04201081E
S315080004704FF480414FF0FF30124A134B10B593608A
S31508000480D2F8883043F47003C2F888300F4B996667
S315080004900F4901F5005318666FF4003058660D20B1
S315080004A098660220C2F8D000BFF34F8FBFF36F8F54
S315080004B001244FF440320748C0F88041DA600460EE
S315080004C00A6110BD00ED00E0000000080090005031
S315080004D00080004400E100E0014B1868704700BF47
S315080004E00C100020084B1B6F03F00703022B04D0E7
S315080004F0032B05D0012B05D0FEE7044B186870477F
S31508000500034BFBE703487047008000500C1000209F
S3150800051014100020002D310108B5FFF7E3FF054B45
S315080005201B6FC3F303330133B0FBF3F0024B1860C0
S3150800053008BD00BF00800050081000200048704722
S3150800054000B4C404014B1868704700BF141000209B
S3150800055000487047002D31014FF0B4439868C0F346
S3150800056004400C280AD8DFE800F00B090909090934
S31508000570072119091B1D1F000F48704700207047E7
S315080005809B6803F04073B3F1807F11D0B3F1007F0D
S3150800059010D00A4A002B08BF104670470848704713
S315080005A00848704708487047084870470848704721
S315080005B00848704708487047405DC60000093D0076
S315080005C0C0EA210180BA8C010048E801005A62029B
S315080005D00024F40080841E0040420F00014B186876
S315080005E0704700BF1010002070B5940022460546DB
S315080005F00E4612F091FB431C0AD058B922463146E2
S31508000600284611F0B3FB0028034808BF002070BD38
S315080006100248FCE70248FAE710E000F021E000F0A3
S3150800062024E000F010B5044612F07AFB431C10D003
S3150800063088B900F04FFE234620F003002044984274
S3150800064001D1002010BD53F8042B0132F7D003481E
S31508000650F8E70348F6E70348F4E700BF0EE000F0C2
S3150800066021E000F024E000F0044BD3F88420D20601
S31508000670FBD4D3F88400C0F38110704700400050C3
S3150800068038B5104B0546D3F880300C4603F0030303
S31508000690022B0BD0032B0DD0012B0FD1FFF722FF16
S315080006A00E2305B1286004B1236038BDFFF754FF57
S315080006B00723F6E7FFF710FF0623F2E7002318469D
S315080006C0EFE700BF0080005038B5184B0546D3F851
S315080006D020010C4600F00700062823D8DFE800F0C2
S315080006E0040A0E16121A1E00012305B1286004B169
S315080006F0236038BDFFF7F0FE0523F6E7FFF722FF74
S315080007000323F2E7FFF728FF0723EEE7FFF720FFAB
S315080007100223EAE7FFF7E0FE0623E6E7FFF712FF04
S315080007200423E2E700231846DFE700BF00800050F5
S3150800073038B5174B0546D3F828310C4603F007039E
S31508000740013B052B20D8DFE803F003131B0F0B171B
S31508000750FFF7C2FE052305B1286004B1236038BD42
S31508000760FFF7BAFE0623F6E7FFF7F6FE0723F2E7DA
S31508000770FFF7E8FE0323EEE7FFF7E4FE0423EAE7C4
S31508000780FFF7E6FE0223E6E700231846E3E700BF85
S315080007900080005073B50D460021114B0191D3F826
S315080007A08041064604F00304022C13D0032C0CD017
S315080007B0012C13D101A8FFF787FF10240EB1019B66
S315080007C0336005B12C6002B070BDFFF7C5FE072483
S315080007D00190F3E7FFF7BCFE0190EFE70C46EDE763
S315080007E000800050002337B50193164B0546D3F811
S315080007F020320C4603F00703042B21D8DFE803F068
S31508000800030B11161B0001230DB1019A2A6004B1CE
S31508000810236003B030BD002101A8FFF789FF12232A
S31508000820F2E7FFF799FE07230190EDE70AF062FD6C
S315080008300A230190E8E7FFF7D1FE09230190E3E7D1
S315080008400023E1E70080005038B5104B0546D3F881
S3150800085040310C4603F00303022B0BD0032B0DD0BB
S31508000860012B0FD10AF046FD0A2305B1286004B111
S31508000870236038BDFFF7B2FE0923F6E70AF03DFD0F
S315080008800C23F2E701230020EFE700BF00800050A9
S31508000890002337B50193164B0546D3F860320C464C
S315080008A003F00703013B032B1FD8DFE803F0020E12
S315080008B01914002101A8FFF707FF10230DB1019AAB
S315080008C02A6004B1236003B030BD002101A8FFF7F8
S315080008D0BBFF1123F2E7FFF73FFE07230190EDE781
S315080008E0FFF736FE02230190E8E70023E6E700BF9C
S315080008F000800050002337B50193164B0546D3F800
S3150800090094320C4603F00703013B032B1FD8DFE89C
S3150800091003F0020E1914002101A8FFF7D5FE1023D3
S315080009200DB1019A2A6004B1236003B030BD0021DD
S3150800093001A8FFF789FF1123F2E7FFF70DFE07234A
S315080009400190EDE7FFF704FE02230190E8E7002394
S31508000950E6E700BF0080005038B5144B0546D3F8CB
S3150800096000020C4600F0070004281BD8DFE800F058
S3150800097003090D111500012305B1286004B1236090
S3150800098038BD0AF0B7FC0A23F6E7FFF727FE092366
S31508000990F2E70AF0B2FC0C23EEE7FFF7BDFD0F23E2
S315080009A0800AE9E700231846E6E700BF0080005002
S315080009B038B5144B0546D3F808020C4600F0070074
S315080009C004281BD8DFE800F003090D1115000123E0
S315080009D005B1286004B1236038BD0AF08BFC0A23F0
S315080009E0F6E7FFF7FBFD0923F2E70AF086FC0C237E
S315080009F0EEE7FFF791FD0F23800AE9E70023184683
S31508000A00E6E700BF0080005038B5104B0546D3F81E
S31508000A1040320C4603F00303022B0BD0032B0DD0F8
S31508000A20012B0FD10AF066FC0A2305B1286004B130
S31508000A30236038BDFFF7D2FD0923F6E70AF05DFC0F
S31508000A400C23F2E701230020EFE700BF00800050E7
S31508000A5038B5104B0546D3F850320C4603F003035D
S31508000A60022B12D0032B08D0012B0AD000231846DC
S31508000A7005B1286004B1236038BD0AF03EFC0C239A
S31508000A80F6E70AF037FC0A23F2E7FFF7A7FD092382
S31508000A90EEE700BF0080005038B5104B0546D3F886
S31508000AA060310C4603F00303022B0BD0032B0DD049
S31508000AB0012B0FD10AF01EFC0A2305B1286004B1E8
S31508000AC0236038BDFFF78AFD0923F6E70AF015FC0F
S31508000AD00C23F2E701230020EFE700BF0080005057
S31508000AE0B0F5207F1FD009D8B0F5007F15D003D800
S31508000AF068B1B0F5C07F0AD000200CE0B0F5607F81
S31508000B00FAD10B4BD3F88000C0F3011003E0084B71
S31508000B10186FC0F3033001307047054BD3F89000C7
S31508000B20C0F30460F7E7024B186FC0F38020F2E7C2
S31508000B300080005002464FF48030104B10B598667E
S31508000B400020FFF7CDFF504341F671320C4BDC69AC
S31508000B50DA635A6804F4803422F4401259B9094910
S31508000B60884294BF00200120000502435A600CB158
S31508000B700022DA6310BD0449F2E700BF0090005076
S31508000B8000000350005A6202002D31011FB50021F2
S31508000B9080280446CDE9001100F2D2801F2805D826
S31508000BA0002840F0DE80FFF7B7FC39E1A0F1200409
S31508000BB0602C00F2D68001A353F824F0A70B000896
S31508000BC0750D0008A70B0008750D0008450E0008EE
S31508000BD0450E0008450E0008450E0008450E00089B
S31508000BE0750D0008AF0D00082F0E0008850E0008C9
S31508000BF08F0E00082F0E0008750D0008750D0008E9
S31508000C00750D0008630D0008630D0008630D0008E4
S31508000C10630D0008630D0008630D0008630D0008E6
S31508000C20630D0008750D0008750D0008750D0008A0
S31508000C30BF0E0008D50D0008750D0008630D0008E5
S31508000C40630D0008630D0008630D0008630D0008B6
S31508000C50630D0008630D0008630D0008630D0008A6
S31508000C60630D0008630D0008630D0008990E00085F
S31508000C70450E0008A70B0008A70B0008A70B0008DD
S31508000C80E50D00082F0E00082F0E0008FD0D0008C0
S31508000C90A30E00084F0E0008590E0008630D000841
S31508000CA0630D0008630D0008630D0008630D000856
S31508000CB0130E0008A70B0008630D0008450E000870
S31508000CC0450E0008450E0008450E0008450E0008AA
S31508000CD0590E0008590E0008750D0008630D000826
S31508000CE0630D0008630D0008630D0008630D000816
S31508000CF0630D0008630D0008630D0008630D000806
S31508000D00630D0008630D0008630D0008630D0008F5
S31508000D10630D0008630D0008630D0008630D0008E5
S31508000D20630D0008630D0008630D0008630D0008D5
S31508000D30630D0008630D0008630D00081D0E00080A
S31508000D40B0F5C06F00F09E8036D8B0F5407F6ED003
S31508000D501BD8B0F5C07F3FF426AF05D8B0F5807F25
S31508000D607FD0009804B010BDB0F5007F5AD0B0F51A
S31508000D70207FF6D1FFF7D0FB02464FF42070FFF72D
S31508000D80AFFEB2FBF0F20092EBE7B0F5806F59D0F8
S31508000D9007D8B0F5607FE4D101A8FFF771FC019A86
S31508000DA043E0B0F5A06F52D0B0F5B06FD9D10021AD
S31508000DB06846FFF7EFFCD4E7B0F5186F6CD016D885
S31508000DC0B0F5F06F7BD00AD8B0F5D06F5FD0B0F52C
S31508000DD0E06FC6D100216846FFF716FEC1E7B0F5F9
S31508000DE0106FBED100216846FFF7E2FDB9E7B0F5FE
S31508000DF0286F56D007D8B0F5206FB2D100216846C3
S31508000E00FFF746FDADE7B0F5406F25D0B0F5486F62
S31508000E10A7D100216846FFF76DFDA2E7FFF762FB41
S31508000E2000909EE7FFF75EFB02462046A7E7FFF71E
S31508000E3073FB02464FF42070FFF752FEB2FBF0F246
S31508000E405208A0E700216846FFF73EFC89E7002123
S31508000E506846FFF7C7FC84E700216846FFF768FC89
S31508000E607FE74FF0E02302911B695B0705D5FFF783
S31508000E7053FB0290029B009373E703A902A8FFF7AE
S31508000E80E3FCF7E700216846FFF7DEFC69E7002187
S31508000E906846FFF761FD64E700216846FFF7D8FD5D
S31508000EA05FE70021084B0391D3F8703203F0030380
S31508000EB0012B02D103A8FFF7C7FC039BDBE7002140
S31508000EC06846FFF7E9FD4CE70080005008B580202A
S31508000ED0FFF75CFE034B98429EBF4FF48032024BED
S31508000EE01A6708BD005A620200A00050B0F5207FBC
S31508000EF010B50C465DD008D8B0F5007F4ED003D8A3
S31508000F00C0B1B0F5C07F15D010BDB0F5607FFBD17C
S31508000F102C4B4C1ED3F8FC202B4912F0807F4FEA4D
S31508000F20041427D1D1F8803023F030032343C1F8C5
S31508000F308030E9E70AF015FA0AF021FA4FF4803111
S31508000F40224B214A1967136F013C23F4704343EA85
S31508000F5004331367FFF7E0FA0446FFF785FBC0F191
S31508000F60020120460AF005FA00F042F8BDE81040F2
S31508000F70FFF7ACBFD3F8FC2022F08072C3F8FC2040
S31508000F80D1F8802022F030022243C1F88020D3F81D
S31508000F90FC2042F08072C3F8FC20B5E70A4A4C1ED2
S31508000FA0D2F8903023F0F85343EA0463C2F890303D
S31508000FB0AAE7054A4C1E136F23F4806343EA842389
S31508000FC01367A1E700ED00E0008000500090005094
S31508000FD008B50121022000F02FF80AF0C2F90AF03C
S31508000FE0CEF94FF48032014B1A6708BD00900050C5
S31508000FF008B54FF4C070FFF7C9FDBDE808400449BD
S31508001000884294BF012102214FF42070FFF76EBF7A
S3150800101080F0FA02024A536B0342FCD1704700BFC4
S3150800102000800950034A0179D36E23F030030B433D
S31508001030D366704700400050F8B504461C4BD3F8F9
S315080010408420D106FBD4D3F88430C3F381139C42A1
S315080010502CD0FFF747FA012C064602D121460AF0A2
S3150800106088F90AF0A6F94FF00072124B07465A663D
S3150800107020460AF0A5F94FF480630D4D621E934091
S315080010802B676B6E9A0103D4D5F884309B060AD574
S3150800109038460AF092F9022C08D13046BDE8F840E5
S315080010A000210AF066B9D5F88430EAE7F8BD00BF32
S315080010B0004000500060005010B50C4608B9FFF714
S315080010C011FA074B21461B783BB1064B984204D8C8
S315080010D00120BDE81040FFF7AFBF0220F9E700BFC7
S315080010E0D9340020005A62024FF0004238B5244B2A
S315080010F0244C5A664AF6CD33656C014605F001055F
S31508001100236428BB0120FFF785FF6368DB0715D535
S315080011101D4B586008461D4B226BD2070CD49842CB
S3150800112008D1072415B1174B194A1A640AF049F968
S31508001130204638BD0130EFE79842F2D00024F1E7A7
S315080011400132236B13F0080305D08A42F8D1E8E789
S3150800115000220E49F5E78A42E3D020210A4A916225
S315080011600121A2F5805251600649084A886A80061C
S3150800117003D49342D5D00133F8E79342DDE700BFA5
S31508001180009000500080095000A0095040420F000E
S315080011903254FFFF4FF0004238B5164B01465A66E7
S315080011A04AF6CD33144C154A656C236443780B20F4
S315080011B05B0043F00103D363FFF72CFF63688A786B
S315080011C023F4F87343EA02136360CA784B7943EA57
S315080011D00223A3600A798B7943EA022323610878FC
S315080011E0FFF782FFEB0744BF054B23640AF0E9F8D3
S315080011F0012038BD00900050008009500040005082
S315080012003254FFFF4FF00042124B70B55D6E03F586
S3150800121080535A664AF6CD3304460F4980204E6CF1
S315080012200B64FFF7F7FE0B6A23F00F030F2C94BF2E
S31508001230234343F00F030B62F30744BF074B0B64CA
S31508001240002DA2BF4FF00042054B5A660AF0B9F8C6
S3150800125070BD00BF00800050008009503254FFFF67
S3150800126000A000504FF48032054B9A6641F6713261
S3150800127003F51C33DA63012203F50053DA6070477D
S315080012800090005041F671320121064BDA6303F5EE
S315080012900052D1600022DA634FF48032A3F5183386
S315080012A09A667047000003504FF48032084B5A661E
S315080012B003F5EE239B69C3F3461203F00F010A43B5
S315080012C04280C3F30342C3F303334270037070478B
S315080012D0009000500120034B9B680A3303F01F035C
S315080012E0984070470080E00F2DE9F04101F01AFCA4
S315080012F00128074624D901F049FC051E03DA012412
S315080013002046BDE8F081204B1B78002B3AD10024FB
S315080013104FF050081D4E06F110033046C6E900444A
S31508001320B360C6F80C8001F081FC306680B90124F0
S31508001330012FE5D9284601F04BFC0028E0DADEE764
S31508001340114B1B7803F0FF05002BE0D00024D7E7EC
S315080013500F4E214606F1100332460120C6E9004425
S31508001360C6E9023801F02CFD30660028DFD03022AD
S31508001370084B83F851234FF400329A600122024B3E
S315080013801A70D5E70024D5E7DA340020B41C00200B
S31508001390501C002000E100E008B501F0C3FB02285C
S315080013A00FD1094B4FF0FF31186E01F089FC002868
S315080013B014BF0120002003D14FF48062034B9A66C4
S315080013C008BD0020F8E700BFB41C002000900050BC
S315080013D04FF4806208B5084B9A6601F0A3FB022811
S315080013E007D1064B186E01F09BFC003818BF012088
S315080013F008BD0020F9E700BF00A00050B41C00207B
S3150800140008B54FF098435B6CD90208D501F08AFB02
S315080014100238012803D80A4B186E01F05FFD4FF019
S3150800142098435A6CD202FCD55B6D064A03F47023C6
S3150800143013604FF40032044BC3F8882108BD00BF7F
S31508001440501C00201810002000E100E010B50446EA
S3150800145000283BD0FFF7A0FF002838D1204609F026
S31508001460CEFF94F8203043B94FF098435A6CD20215
S31508001470FCD55C6D04F4702412E04FF09844A36D1B
S3150800148043F00203A36501F04DFB022810D0A36DBB
S3150800149023F00203A3654FF4A0220D4B1C681A60C3
S315080014A0FFF796FF9CB12046BDE8104009F0C4BF7F
S315080014B0084B4FF0FF31186E01F0DAFCA36D23F0EC
S315080014C00203A3650028E6D0012000E0212010BD14
S315080014D018100020501C00202DE9FF474FF0000887
S315080014E00E4617460446CDF80080002859D022B982
S315080014F00025284604B0BDE8F087002951D032F00F
S31508001500030902F0030A1FD04FF0E063C0E9003870
S3150800151001230191C0F808800293C0F81C8049F0A5
S31508001520005301A9039309F057FF4946204609F0DD
S315080015305DFF2046FFF78AFF054628B14A46414621
S31508001540304610F03DFCD4E7BAF1000FD0D04FF08A
S3150800155000084FF0E063C4E900380123CDF804D051
S315080015600293114B204601A9C4F80880C4F81C80D0
S31508001570039309F031FF0421204609F037FF20467E
S31508001580FFF764FF054608B13A46D8E7009A4E4485
S31508001590EB00013522FA03F3AA4506F8013BF7D119
S315080015A0A6E72125A5E700BF040000202DE9F041A4
S315080015B00F4601780446013990468AB0042947D86F
S315080015C0DFE801F00332373C410040251426214963
S315080015D00C3400225D43C7E90122FA6138463960B6
S315080015E0294609F003FF0123384646F0005604A9A8
S315080015F045F00055CDF804800293039504940593AD
S31508001600069607940893099609F0DCFE384601A960
S3150800161009F0D8FE384607A909F0DEFE3846FFF776
S3150800162015FF0AB0BDE8F081402520260A490C348A
S31508001630CFE74025202609490C34CAE780254026ED
S3150800164007491434C5E78025402606491434C0E7FF
S315080016502120E6E700020103000301030004010359
S31508001660000501030006010310B591B188B10023F6
S31508001670C0E90133084B00F10C0203F1200153F8CD
S31508001680044B8B4242F8044BF9D101230370002026
S3150800169010BD2120FCE700BF9A2E010810B591B1B4
S315080016A088B10023C0E90133084B00F10C0203F1AD
S315080016B0200153F8044B8B4242F8044BF9D102231C
S315080016C00370002010BD2120FCE700BFD12D0108C2
S315080016D010B591B188B10023C0E90133084B00F178
S315080016E00C0203F1200153F8044B8B4242F8044BD9
S315080016F0F9D103230370002010BD2120FCE700BFA9
S31508001700F22D010810B5A1B198B10023C0E9013343
S31508001710C0E90333084B00F1140203F1400153F802
S31508001720044B8B4242F8044BF9D104230370002082
S3150800173010BD2120FCE700BF132E010810B5A1B18A
S3150800174098B10023C0E90133C0E90333084B00F11F
S31508001750140203F1400153F8044B8B4242F8044B40
S31508001760F9D105230370002010BD2120FCE700BF36
S31508001770542E01082DE9F04F0D46904604468BB0CD
S3150800178000287DD000297BD0002A79D00278013A3A
S31508001790042A75D8DFE802F0030C58606B0014279A
S315080017A0394A00F10C0B00F1040A2C34B94608E05A
S315080017B020274FF01C09354A00F10C0B00F1040AEA
S315080017C02C34402199455BD80AF104030AEBD1066B
S315080017D053F8040B002855D1B342F9D1DAF8003092
S315080017E0013901EA0306C5E900203146A860E86127
S315080017F0284609F0FBFD2846DAF8001009F0F6FD40
S31508001800012249F00053284601A947F0005746F03F
S315080018100056CDF804B002920397049405920696F2
S31508001820CDF81C800892099309F0CCFD284604A936
S3150800183009F0C8FD284607A909F0CEFD2846FFF796
S3150800184005FE0BB0BDE8F08F2027114A00F10C0BFE
S3150800185000F1040A2C34A9E740274FF030090D4A55
S3150800186000F1140B00F1040A54348021AAE740273A
S31508001870094AB94600F1140B00F1040A5434F4E796
S315080018802120DEE70F20DCE7000203030003030341
S315080018900004030300050303000603032DE9F043D0
S315080018A087B00D4691461E460446DDF83880002866
S315080018B036D0B8F1000F33D002B98BBB6B1EDBB242
S315080018C0042B2DD8174AD75C0F9B9F4228D8002394
S315080018D0280200F1407000F580703146C4E90133F2
S315080018E02060E361204609F081FD01236946204610
S315080018F046F0005647F00057CDF80090019302963F
S31508001900CDF80C800493059709F05CFD204603A9E1
S3150800191009F062FD2046FFF799FD07B0BDE8F083A0
S315080019202120FAE7952E0108F0B50F4616461D4602
S31508001930044693B010B9212013B0F0BD0029FAD09F
S31508001940002AF8D0002BF6D0002331461A4638462E
S3150800195009F091FE0028EFD1304602A909F027FECA
S315080019600028E9D1EB68022B0AD039683F48029A69
S3150800197081426B6902D01830814270D19A42DAD816
S315080019802B68002BD7D14FF060623846C4E9002394
S31508001990A360E36101A909F0C9FE0028CCD1019929
S315080019A0204621F4F061019109F020FD6946284698
S315080019B009F0BCFE0028BFD12046009909F016FDA3
S315080019C0384609A900F054F80028B5D1204609A9D7
S315080019D009F0F8FC38460CA909F0A7FF0028ABD196
S315080019E020460CA909F0EEFCEB684BB1284606A97F
S315080019F000F03EF800289FD1204606A909F0E2FC2F
S31508001A00304603A909F091FF002895D1B368DA0496
S31508001A100CD59B0427D50621F36932691B6801FB9F
S31508001A2003225B0043F0005303920593204603A963
S31508001A3009F0C8FC28460FA909F077FF00287FF4AB
S31508001A407BAF20460FA909F0C7FC03252046FFF700
S31508001A50FDFC01287FF470AF013DF7D16CE7B3EBCD
S31508001A60420F8DD267E7292066E700BF200000B045
S31508001A7090B189B101234B60C368013B012B08D89B
S31508001A808269064B1AB10A6000208B607047044AC7
S31508001A90F9E74FF00053F7E72120704708000020C8
S31508001AA0BC2E010870B50E46154604468AB00028B5
S31508001AB05BD0002959D0002A57D0012329461A4657
S31508001AC0304609F0D8FD00284DD1B36813F4C04F4D
S31508001AD04BD0AB6803F4C043B3F5005F45D1254B43
S31508001AE0A060C4E90030E06107A9304609F01EFE8F
S31508001AF0002838D12046079909F078FC304601A914
S31508001B00FFF7B6FF78BB204609F05CFC304604A90F
S31508001B1009F00BFF38BB204604A909F053FCEB6813
S31508001B201BBBAB6803F4C043B3F5005F1DD1694620
S31508001B30284609F067FDB0B9009B6A699A4216D330
S31508001B402A6943F0005307920122204607A9089202
S31508001B500325099309F040FC2046FFF777FC012886
S31508001B6001D1013DF8D10AB070BD2120FBE71D2047
S31508001B70F9E700BF000001022DE9F04391B00D46D8
S31508001B80DDE918760446DDF8688000286DD000295E
S31508001B906BD0002F69D0B8F1000F66D0096801F044
S31508001BA07041B1F1404F5BD0002B5BD1531E042B23
S31508001BB05BD8120202F1C06202F580720023284641
S31508001BC0C4E901332260E3610DA909F0AFFD0028DD
S31508001BD043D120460D9909F009FC3146204609F003
S31508001BE005FC284601A9FFF743FF002835D1204602
S31508001BF001A909F0E7FB284604A909F096FE60BB8F
S31508001C004FF00109204604A909F0DCFB46F000560E
S31508001C10204607A90797CDF82090099609F0D2FB28
S31508001C202B680A9703F07043B3F1404FCDF82C9018
S31508001C300C9603D120460AA909F0C4FB0123CDF866
S31508001C4034800E931B9B204643F000530DA90F9337
S31508001C5009F0C2FB2046FFF7F9FB11B0BDE8F08397
S31508001C60034AABE74FF0C062A8E72120F5E700BFBB
S31508001C70000002062DE9F0418CB00D46DDE912861A
S31508001C800446149F002867D0002965D0B8F1000FD4
S31508001C9062D0002F60D0896889045DD5296801F073
S31508001CA07041B1F1404F4DD0002B4DD1531E042B3E
S31508001CB052D82A4B03EB022200232846C4E90133F3
S31508001CC02260E36109A909F031FD002837D12046D1
S31508001CD0099909F08BFB3146204609F087FB6946CE
S31508001CE02846FFF7C5FE50BB6946204609F06AFB41
S31508001CF0284603A909F019FE08BB204603A909F0DE
S31508001D0061FB012346F00056CDF818800793089624
S31508001D1009970A93159B43F000530B932B6803F01E
S31508001D207043B3F1404F11D109A9204609F04AFB87
S31508001D3006A9204609F046FB2046FFF787FB0CB0AC
S31508001D40BDE8F081064AB7E7064AB5E706A9204680
S31508001D5009F038FB09A9ECE72120F0E700010106A4
S31508001D60000003060000010610F1860F14D010F1DA
S31508001D70850F07DA10F1930F11D0873007D04FF08F
S31508001D80FF307047003818BF012040427047054BA6
S31508001D90194411F9050C70476FF0710070476FF020
S31508001DA06F007047C42E0106012910B50CDC084CDB
S31508001DB0084B00290CBF214619460AF028FC214683
S31508001DC0BDE81040FFF7D0BF6FF0740010BD00BF2C
S31508001DD00B0000020A00000208B50AF05AFCBDE82A
S31508001DE008400149FFF7C0BF0B000002002307B5F2
S31508001DF04022019301AB0AF068FC034903B05DF881
S31508001E0004EBFFF7B1BF00BF0B000002012910B5B4
S31508001E100CDC084C084B00290CBF214619460AF071
S31508001E20F6FB2146BDE81040FFF79EBF6FF0730032
S31508001E3010BD00BF090000020800000208B50AF03C
S31508001E4028FCBDE808400149FFF78EBF09000002DB
S31508001E50002307B52022019301AB0AF036FC03499B
S31508001E6003B05DF804EBFFF77FBF00BF090000026F
S31508001E7010B5044C21460AF0CAFB2146BDE81040BD
S31508001E80FFF772BF0500000208B50AF002FCBDE8BC
S31508001E9008400149FFF768BF05000002002307B59F
S31508001EA01422019301AB0AF010FC034903B05DF854
S31508001EB004EBFFF759BF00BF0500000238B5134D04
S31508001EC0FFF712FA124B134A1349144804F0B8FAEA
S31508001ED02B7803F0FF04BBB900F024FE012802D9D1
S31508001EE000F054FE04462B782BB90D4B0D481B68A1
S31508001EF0984701232B7000F015FE012804D92046C7
S31508001F00BDE8384000F064BE38BD00BFDB340020B1
S31508001F100FBB000835BB00087DBB00085FBB000887
S31508001F2048100020582A0020012300F01F02A0F5BF
S31508001F3006200949A0F550604009934051F8202031
S31508001F401A4341F82020054951F8202022EA0302C5
S31508001F5041F82020704700BF2C1D0020181D0020C6
S31508001F600121A0F506230E4AA3F550635B0900F08C
S31508001F701F00814052F82300014342F82310094903
S31508001F80D1E90030034488680344C86809690344F2
S31508001F905B1802BFC2E90033C2E902331361704716
S31508001FA0181D00202C1D00202DE9F04FA9B0039222
S31508001FB01D4604460822339ECDE90401414021FA14
S31508001FC002F34B40980702F1080218BF9B00202A2B
S31508001FD01C44F4D18123B4FBF3F303EBC313E41AD3
S31508001FE0734B04F506241B7804F55064002B3ED188
S31508001FF006F0C8FC074620B16FF0910029B0BDE88D
S31508002000F08F0146402208A80FF0DAFE4022394632
S3150800201018A80FF0D5FEDFF8B481DFF8B491C346EF
S315080020200BF10F0ACDF800A0102208A95B46D9F8D3
S31508002030000010F0D4FC0022014608F1100808AF91
S31508002040914246D1CDF800A05B461022D9F800008F
S3150800205018A910F0CDFC4FF0000A834618AFD345F7
S3150800206041D1544B9845DAD10122514B1A704FF0A1
S31508002070810A4FF00008DFF85CB1A4F50627A7F53A
S3150800208050635B095BF8232004F01F01CA40D2079E
S315080020903DD4494A52F82330CB40DB072AD5B8F15C
S315080020A0000F08BFA0468123A7F6FF47B7FBF3F347
S315080020B003EBC313FF1A07F50624BAF1010A04F560
S315080020C05064DAD1039BBBB1B8F1000F14D0444673
S315080020D019E057F8040BCDE90612FFF725FF079A12
S315080020E006990132ACE757F8040BFFF739FF0AF1F6
S315080020F0010AB4E7039B13B96FF08B007EE7B8F1CA
S31508002100000F18BF4446349B00201C6076E7329BBC
S3150800211013B10023329A13600EB1002333601023E3
S31508002120DFF8AC9000932A4600232146D9F8000030
S3150800213008F096FE60BB32992A68204BC9B99A42C4
S3150800214006D02146D9F8000008F022FF0028D3D18E
S31508002150D5E90223DDE90410834208BF8A42A2D1E9
S31508002160039B002BCFD06B68012BCCD16FF084007A
S3150800217044E7102032999A420860E2D1002EE7D04F
S3150800218033462146D9F8000018AA08F0BDFE48B122
S315080021900B4B9842D5D00B4B9842D2D00A4B98425B
S315080021A0D6D029E7329A336812689B1A3360CFE78C
S315080021B0DC34002000710800181D0020105D175E31
S315080021C0FFDF00F011E000F0FEDF00F0006D080010
S315080021D0501000202C1D002070B5104D2B7803F0F0
S315080021E0FF04ABB900F09EFC012802D900F0CEFC32
S315080021F004462B782BB90A4B0A481B6898470123D3
S315080022002B7000F08FFC012802D9204600F0E0FC74
S31508002210BDE87040044B03481B681847DD340020AE
S3150800222048100020401D002040100020034B1B785A
S315080022301BB1034B03481B6818477047DD34002061
S315080022403C100020401D00202DE9F04F87B0824643
S31508002250894698461646DDF840B02AB1002B53D079
S3150800226040F26C739A4252D8BBF1010F52D800243F
S3150800227006F110073946012005940AF0BAFA054610
S3150800228000284AD021463A460FF09AFDFFF7A4FFE8
S3150800229005ABCDE9014300942B4601225046494639
S315080022A0FFF782FE044690B110F18C0F08BF6FF05D
S315080022B08D043A46002128460FF082FD28460AF08A
S315080022C0A8FAFFF7B3FF204607B0BDE8F08F144B16
S315080022D0C5E902A92B60C5F804B02EB132464146BD
S315080022E005F110000FF0A1FD059E0E483B462A4653
S315080022F03146006808F01CFD18B93046FFF714FE91
S31508002300D7E76FF09104D4E76FF08604DBE76FF048
S315080023109104D8E76FF08504D5E76FF08C04D2E70F
S31508002320105D175E501000202DE9F0478CB08146ED
S31508002330DDE914780C4616461D466BB1B8F1000F58
S3150800234049D0002F47D0B7F1005F44D3C3F10053FB
S3150800235003F500239F423ED84FF0000A10220021C1
S3150800236008A80FF02DFDCDE905AAFFF735FF07AB45
S31508002370029305AB019306AB2146009352464846A5
S3150800238008ABFFF711FE0446D0B9059B3DB1B34231
S315080023901CD853EA060504D06FF0860410E0B34251
S315080023A0FAD3069B0D48C8F8005000953A46079997
S315080023B00068334408F054FD002818BF6FF09104F4
S315080023C0FFF734FF20460CB0BDE8F0879B1B9D4203
S315080023D028BF1D46E5E76FF08604F3E75010002096
S315080023E070B500260C4605468CB01022002108A8B8
S315080023F00FF0E6FCCDE90566FFF7EEFE07AB0293A4
S3150800240005AB019306AB214600933246284608AB36
S31508002410FFF7CAFD0446D8B9099B012B1DD0079DB5
S31508002420114B2946186808F0B3FDC8B90122A5F56D
S3150800243006230E49A3F550635B0905F01F00824089
S3150800244051F823004240284641F82320FFF788FD2B
S31508002450FFF7ECFE20460CB070BD6FF08404F7E77A
S315080024606FF09104F4E700BF501000202C1D0020E7
S315080024702DE9F0410D4614461E46C4B010B96FF05A
S3150800248086000DE00029FAD0002AF8D0002BF6D0F5
S31508002490038803F44F42B2F5824F04D06FF08500EB
S315080024A044B0BDE8F081DAB2122AF7D123F0FF036F
S315080024B0B3F5E24F27D143883360FBB9E3003360B5
S315080024C0B3F5807FEAD10023184642492E192144E4
S315080024D011F8014D16F8012D1043121B0CBF4FF0D1
S315080024E0FF340024B54203EA040343EA0203EFD1AA
S315080024F00028C4D0002BC2DA0020D1E7DA1DB4EBDD
S31508002500D20FDDD0BBE7B3F5824F5FD10B78042B32
S31508002510B5D12422002119A80FF052FC19A808F0F9
S31508002520B9FF00284FD100278422394623A82297CD
S315080025300FF046FC01234FF0880820223946013C5B
S3150800254001A88DF8883001350FF03AFC202239466B
S31508002550069409A8E400059564080FF031FC22AD3D
S315080025602022394611A80D95CDF838800FF028FCA1
S31508002570E02CCDE91558346003D0B4F5807F7FF49C
S315080025807EAF154B0734019309934FF40053039319
S315080025904FF48043E4080B9301AA11AB640009A920
S315080025A019A81294FFF7C0F933680733DB085A00F5
S315080025B033B10021531E013B297005F10105FAD2FA
S315080025C0002899D05BE76FF0920069E76FF09600F4
S315080025D066E700BFCB2E010820000080F8B5134639
S315080025E042880C460732072A4FEAD20101D0A14297
S315080025F06DD146680588C7682022184600210FF065
S31508002600DFFB360A034626B1012E11D06FF08B0088
S31508002610F8BD002C5BD041F20102954205D0B5F514
S31508002620885F02D0B5F5905F1BD15C600020EFE7AC
S31508002630C660002C4BD041F2010295420BD15C607A
S31508002640B90707F001021FD4002AEFD19A6842F0B1
S3150800265080729A60EAE7B5F5885FF0D0B5F5905FC5
S31508002660EDD0B5F5105F0AD1182C03D0202C01D077
S31508002670102C2CD1C3E90044002ED7D0E0E705F48E
S315080026804F42B2F5824F02D06FF08500C0E7EAB23A
S31508002690122AF9D1202CF7D10E4A25F0FF05B5F5F7
S315080026A0E24F1A600CD0B5F5824F10D14FF40052A4
S315080026B017F4705F09D017F4864F04D09A60E3E7E1
S315080026C04FF48042F4E742F480629A60D4E76FF0F0
S315080026D086009DE7200000802DE9F041174600227C
S315080026E01C4643688CB01B0A80460D46009204D0EF
S315080026F0012B56D06FF08B008EE0008820F0FF0388
S31508002700B3F5824F15D1B8F802200732D2080092E5
S3150800271009F08DFA002800F0E1800B78042B05D12A
S31508002720013FB7EB420F05F1010503D06FF08600B4
S3150800273072E00097009E224631464046FFF74EFF5C
S31508002740002869D1FA1CC4E9030522F00302626174
S31508002750002E00F0A4802022002101A80FF030FBF3
S315080027603146404601AAFFF739FF002840F0978016
S315080027702368019A9A4240F092806368029A9A42C4
S3150800278040F08D80A368039A9A4240F08880A36936
S31508002790079A9A4240F08380E369089A9A423BD0A6
S315080027A07DE0032FC2D90B78012B40F09A80497837
S315080027B000294BD0F73908299CD801A353F821F0F2
S315080027C029280008E5270008F52600081F2800081C
S315080027D0F526000843280008F526000833280008CF
S315080027E03B2800084FF41056F8253F4F1C220021BD
S315080027F002A80FF0E5FA03230197CDE904350396FD
S3150800280001AA09AD134603CBAB42206061601A46A4
S3150800281004F10804F6D100200CB0BDE8F0811027B9
S315080028204FF08076FA25E1E720274FF00076F72566
S31508002830DCE7FE252C4F2D4ED8E7FF252A4F2C4ED8
S31508002840D4E74FF41056FC25274FCFE72B2F7FF6FA
S315080028506DAF202220460FF0B3FA05F1100323616D
S31508002860AB070DD001AB05F128061A46286869683A
S31508002870083503C2B5421346F7D1286801AD106082
S315080028806B68103F2360AB6869466360EB68204657
S31508002890A36001236761E36008F089FE28B120225E
S315080028A0002120460FF08CFA40E7B8F80030009E69
S315080028B003F44F42B2F5824F0ED1DAB2122A0BD187
S315080028C023F0FF03B3F5824F06D1730062691C3308
S315080028D09A42BFF43DAFE2E73346F7E76FF085006B
S315080028E09AE76FF0910097E7200000800044000205
S315080028F000440003038810B503F44F42B2F5824F33
S3150800290021F0FF0221F4FF71134C21F0010109D0D7
S31508002910A1421AD0114B9A4214BF6FF085006FF08E
S31508002920860010BDA142DBB20FD00C498A420CD0FA
S31508002930122B0DD14388B3F5807F09D1B2F1062F4A
S315080029400CBF00206FF08500EBE76FF08600E8E724
S315080029506FF08500E5E700BF0002000600130006D9
S31508002960184A20F4FF7323F0010393420ED0164B46
S3150800297020F0FF029A4209D0144920F47F7323F00D
S3150800298003038B4202D0124B9A4217D110F0FF0074
S3150800299017D040F0007000F17E40053806280DD8A3
S315080029A0DFE800F0040C0C0E06080A000120704748
S315080029B003207047042070470520704700207047A1
S315080029C002207047000200060013000600040006F5
S315080029D00009000607B5094B18689A889B79009084
S315080029E06846ADF804208DF80630FEF7D3FB0C20B8
S315080029F0FEF708FC002003B05DF804FBEB2E010887
S31508002A0013B50024064A6846536F43F0010353671B
S31508002A1000948DF80440FEF705FB204602B010BD71
S31508002A20004000506FF00403502110B50A480B4CC3
S31508002A3013F0800F03F1010207D123445D2A83F8BE
S31508002A4000131346F4D1002010BD03F00F03043B16
S31508002A50034419761346EBE700ED00E000E100E0D9
S31508002A6073B508F0A6FC0D4D0D4B2E781C6808F0C2
S31508002A70A4FC09F0E8FE38B1FF2E05D0002029781D
S31508002A8001AA08F024FC019C2CB908F092FC054B1D
S31508002A901C6808F092FC204602B070BDCC100020DD
S31508002AA0A41D0020A81D002010B5044608F081FCCE
S31508002AB0024B1C6008F081FC002010BDA81D0020F8
S31508002AC013B5002301241A4619461846009404F043
S31508002AD011F8002300941A461946184604F03CF8E3
S31508002AE00248FFF7E1FF002002B010BD20100020C9
S31508002AF0EFF3058373B9EFF31082094B12B9EFF3BD
S31508002B00118212B11A68022A04D0186828B901225B
S31508002B101A6070476FF0050070474FF0FF30704736
S31508002B206C23002008B500F0C9FE38B1022804D08D
S31508002B30034B1868431E5842584108BD0320FCE75A
S31508002B406C23002010B5EFF30583ABB9EFF31082C1
S31508002B500C4B12B9EFF3118212B11A68022A0BD084
S31508002B601A68012A0BD10024074AD47702221A6070
S31508002B7000F07EFC204610BD6FF00500FBE74FF025
S31508002B80FF30F8E76C23002000ED00E008B5EFF30E
S31508002B90058393B9EFF3108313B9EFF311831BB1D0
S31508002BA00A4B1B68022B08D000F088FE40B10228A9
S31508002BB008D100F095FC002008BD6FF00500FBE782
S31508002BC00120F9E74FF0FF30F6E700BF6C2300203D
S31508002BD010B50446EFF3058303BBEFF3108313B96F
S31508002BE0EFF311831BB1104B1B68022B16D000F0B4
S31508002BF065FE30F0020314D1012C03D100F070FCFD
S31508002C00204610BD6CB900F005FD0128F8D000F08B
S31508002C1055FE841E18BF4FF0FF34F1E76FF0050428
S31508002C20EEE74FF0FF34EBE76C23002038B5054696
S31508002C30EFF3058313B10024204638BDEFF3108364
S31508002C4013B9EFF311831BB11C4B1B68022BF2D08F
S31508002C502DB36B681A07EED4D5E9021203F0010307
S31508002C6071B14F2AE7D993B1042009F0F6FF04465B
S31508002C700028E0D0296800F0E5FA44F00104DBE713
S31508002C80002AD8D1ABB104200AF011F8EFE70120E9
S31508002C9009F0E3FF04460028CDD0296806E00120A4
S31508002CA00AF005F804460028C5D0294600F0CAFAF5
S31508002CB0C2E7012009F0FBFFECE700BF6C23002008
S31508002CC0034610B520F001000C4603F00102EFF3AD
S31508002CD00581E9B9EFF3108111B9EFF3118119B143
S31508002CE00E490968022913D0012B14D9214662B16D
S31508002CF00AF036F9012801D1002010BD002C14BFB6
S31508002D006FF001006FF00200F7E70AF0A9F8F1E7A3
S31508002D106FF00500F1E76FF00300EEE76C23002083
S31508002D20024608B520F0010002F00103EFF3058121
S31508002D30C9B9EFF3108111B9EFF3118119B10D4932
S31508002D40096802290FD0012A10D93BB109F09AFF68
S31508002D5001280CBF00206FF0020008BD1A4619466C
S31508002D6009F000FFF4E76FF00500F6E76FF00300DF
S31508002D70F3E700BF6C23002010B5034620F00104DA
S31508002D80EFF305829AB9EFF3108212B9EFF31182C5
S31508002D901AB10A4A1268022A09D0012B0AD9204612
S31508002DA000F062FA20460AF020F9002010BD6FF004
S31508002DB00500FBE76FF00300F8E700BF6C2300206F
S31508002DC073B50E461546EFF30583D3BBEFF31083B1
S31508002DD013B9EFF311831BB1244B1B68022B30D0B8
S31508002DE078B3B0422DD375B9012837D10322002113
S31508002DF009F085FE044620B3AEB96DBB29462046C8
S31508002E0000F020FA1EE0D5E90232C3B14F2A18D9DC
S31508002E1001281AD1032200920022114609F054FE15
S31508002E20044670B1C6B1002320461A46194609F071
S31508002E3099FE0128E1D020460AF0D7F801E0002AD9
S31508002E40D2D00024204602B070BD1A46314609F099
S31508002E5073FE04460028F4D02D68CFE7314609F002
S31508002E6078FE04460028C8D1EBE700BF6C23002093
S31508002E7013B50C4668B3EFF305834BB9EFF310832C
S31508002E8013B9EFF31183D3B1134B1B68022B16D179
S31508002E90FCB9214601AA01940AF079F8012803D061
S31508002EA06FF0020002B010BD019B0BB90020F9E7D4
S31508002EB04FF0E0234FF08052C3F8042DF6E7214681
S31508002EC009F0CEFF0128F1D0002CE9D06FF00100FF
S31508002ED0E8E76FF00300E5E76C23002007B550B379
S31508002EE0EFF305834BB9EFF3108313B9EFF31183AF
S31508002EF0CBB1124B1B68022B15D1002301A90193F4
S31508002F0009F019FF012804D06FF0020003B05DF83C
S31508002F1004FB019B2BB14FF0E0234FF08052C3F81E
S31508002F20042D0020F2E700231A46194609F01AFE76
S31508002F300128F6D0E8E76FF00300E7E76C230020E6
S31508002F40034B0360034B0B60A0231360704700BF5D
S31508002F500C2300208C200020034B0360034B0B60DE
S31508002F60A0231360704700BF2C200020AC1D002052
S31508002F70002307B50193054B1B6809F0DAFC019B92
S31508002F80002BFCD003B05DF804FB00BF2C1000201A
S31508002F904FF0E02200234FF47A7113619361044BDA
S31508002FA01B68B3FBF1F3013B5361072313617047B9
S31508002FB00810002008B509F0BCFC044A1368013360
S31508002FC01360BFF34F8FBFF36F8F08BD2C1000201F
S31508002FD0044B1A681A68013A1A60186808B909F0A1
S31508002FE0B3BC70472C10002010B54FF0807440E930
S31508002FF00224184A4FF0123440F80C2C4FF00332D2
S315080030004FF0023C40E905244FF0013240F8203CDD
S3150800301040E9072C4FF010334FF011324FF00934C6
S3150800302040E90A324FF008334FF0073C40E90C34C8
S315080030304FF006334FF0053240E90E3C4FF00433AB
S3150800304040E910326FF0020340F8443C40F8481D4E
S3150800305010BD00BF712F00084FF0E02310B5002403
S31508003060D3F8202D42F47F02C3F8202DD3F8202D63
S3150800307042F07F42C3F8202DFFF78AFF044B1C60FD
S31508003080FDF7BEF800F028FBFFF772FF204610BDDB
S315080030902C10002030B5114B1A461B688342FBD30F
S315080030A0546841681519A84206D12144501883422C
S315080030B0516010D1104602E04418A3420CD1084CC6
S315080030C02468A3421FBF5C68641844601C680460D7
S315080030D0824218BF106030BD0360F9E788230020DC
S315080030E0842300202DE9F041054600F0F9F9384916
S315080030F0384C0B680BBB384A384E50071FBFD01DDB
S3150800310020F0070002F50052131A0CBF4FF40053C3
S31508003110024600201344083B23F007037060326020
S31508003120C3E90000981AC2E900300B602C4B1860FE
S315080031302C4B18604FF000432360276817EA0504F4
S3150800314044D16B1E0A3308D86B0705F1080209D06B
S3150800315022F007030833934205D800F05BFA2046AD
S31508003160BDE8F0811346DFF87C80D8F800609E42FF
S315080031702CD31A4A15686868984201D22C6814BB81
S315080031800968A94222D0296814681160C21A102A4F
S3150800319004F1080404D9E81842606B60FFF77AFF67
S315080031A000236A680E49B61A17430F4A08682B6047
S315080031B01368864203F10103C8F8006038BF0E6041
S315080031C06F601360C9E72A462546D4E70024C4E79A
S315080031D08423002070230020DE340020882300206A
S315080031E07C230020802300207823002010B5044685
S315080031F000B3114A50F8043C126813421AD050F82A
S31508003200081CB9B923EA020340F8043C00F068F93F
S315080032100A4A54F8043C1168A4F108000B441360E8
S31508003220FFF738FFBDE81040054A136801331360FD
S3150800323000F0F0B910BD00BF7023002080230020E5
S3150800324074230020002330B5064A52F8335002EBA7
S31508003250C3041DB942F83310606030BD01330A2B30
S31508003260F3D1FAE790230020002310B5084A52F854
S315080032703310DC00814206D10021064A42F8331099
S315080032802244516010BD01330A2BF0D1FAE700BF82
S3150800329094230020902300202DE9F0410446FFF7EF
S315080032A089FE2D4B2D4E1A682D4F01321A6035684E
S315080032B0002D43D134601B68012B1FD1B846404608
S315080032C0013509F0C3FA382D08F11408F7D1DFF8EB
S315080032D0B880244D404609F0B9FA284609F0B6FAEE
S315080032E0214809F0B3FA214809F0B0FA204809F054
S315080032F0ADFA204BC3F800801F4B1D6014201F4AEF
S315080033001368013313601E4A23641168E36A8B420B
S3150800331000FB037004F1040188BF136009F0A4FAE6
S31508003320FFF756FE174B1B689BB13368DA6AE36AE8
S315080033309A420ED2BDE8F04109F0C8BA114B1A6894
S31508003340E36A002ADAD13268D26A9A4298BF3460B0
S31508003350D4E7BDE8F08100BF04240020D828002067
S315080033607824002050240020342400202024002023
S31508003370082400204C24002048240020E8230020AC
S31508003380FC230020F823002064240020F8B5064614
S31508003390144B154D1C6828680F46043009F086FA48
S315080033A0731C07D137B1296810480431BDE8F840C5
S315080033B009F05ABA2B68A4195C6007D30C4B186835
S315080033C02968BDE8F840043109F059BA094B18686C
S315080033D02968043109F053FA074B1A68A24288BFD4
S315080033E01C60F8BD00240020D828002008240020EE
S315080033F0482400204C240020E4230020064A1368B1
S315080034001968064B19B94FF0FF321A6070471268EF
S31508003410D2681268F9E700BF4C240020E423002094
S3150800342080B50F4C0F4F104D236833B90F4B1B68EF
S31508003430012BF8D909F04AFAF5E7FFF7BBFDFB6857
S31508003440DE68301D09F032FA2B68013B2B602368D1
S31508003450013B2360FFF7BCFD304609F0F4FDE3E7C6
S315080034601C24002020240020042400207824002086
S3150800347030B5002489B007AA06A905A8CDE90544F0
S31508003480FFF75EFD059B079A0293069B0E49CDE959
S3150800349000430E48234609F037FE80B100F020FBB2
S315080034A0012805460BD109F044FA4FF0FF32084BC4
S315080034B01A60084B1D60084B1C60FFF7CDFD074BD3
S315080034C01B6809B030BD00BFF22E01082134000880
S315080034D0E4230020F82300200024002030100020D8
S315080034E0024A136801331360704700BFE0230020C7
S315080034F0014B1868704700BF002400203A4B2DE99D
S31508003500F74F1B68002B68D1384B1C6801341C60C8
S315080035106CB9374B1A681268364A19681068186009
S315080035201160354A136801331360FFF767FF334D9F
S315080035304FF0000B2B68324E9C42324F12D21421A8
S315080035403A68D26A4A43B258022A2F4A28BF4FF02D
S31508003550010B1268002A18BF4FF0010B584603B03A
S31508003560BDE8F08FDFF88890DFF8A4A0D9F800202E
S3150800357012681AB94FF0FF322A60E0E7D9F800203E
S31508003580D268D2F80C80D8F804108C4201D229608F
S31508003590D5E708F104031846019309F087F9D8F826
S315080035A0281019B108F1180009F080F91423D8F881
S315080035B02C00DAF80010884288BFCAF80000019982
S315080035C003FB006009F050F93868D8F82C10C26A75
S315080035D0914228BF4FF0010BC8E70C4A4FF0000B89
S315080035E0136801331360B9E7E023002000240020A4
S315080035F04C24002048240020EC230020E42300204B
S3150800360078240020D8280020F0230020F423002066
S31508003610FC2300202DE9F041274C2368FFF7CAFC5C
S315080036202368013B236024682CB10024FFF7D0FCF3
S315080036302046BDE8F081214B1B68002BF5D0204DB4
S31508003640204EDFF890801DE0EB68DC68271D04F14A
S31508003650180009F02BF9384609F028F91420E36A0E
S31508003660326800FB03809342394688BF336009F00D
S31508003670FBF8154BE26A1B68DB6A9A4202D3012201
S31508003680124B1A602B68002BDED10CB1FFF7B6FE81
S315080036900F4D2C6844B101270C4EFFF72FFF00B1E0
S315080036A03760013CF9D12C60084B1B68002BBCD055
S315080036B009F00CF90124B9E7E023002004240020CE
S315080036C034240020FC230020D8280020F0230020E2
S315080036D0F423002078240020F8B51E4B1A681E4BE8
S315080036E012B101221A60F8BD1C4C1A6023681B6BC4
S315080036F01A68B2F1A53F0BD15A68B2F1A53F07D1B6
S315080037009A68B2F1A53F03D1DB68B3F1A53F04D0AF
S3150800371020682168343109F098F81427104E114AA8
S31508003720316807FB01F3D558D0188DB145680833C1
S315080037306D6813449D4208BF6B68456008BF4360C7
S31508003740142303FB01225368DB6823603160CAE750
S315080037500139E6E7E0230020F0230020D8280020DE
S31508003760FC2300207824002010B50C46054B196868
S31508003770183109F084F82046BDE810400121FFF70A
S3150800378005BE00BFD828002038B514460D46084B9C
S315080037901968183109F068F8002C214608BF284630
S315080037A0BDE8384018BF4FF0FF30FFF7EFBD00BF48
S315080037B0D828002038B5C368DC6804F118052846FF
S315080037C009F074F8104B1B68DBB9251D284609F06B
S315080037D06DF80E4A14201168E36A8B42294688BFA1
S315080037E013600B4A00FB032009F03EF8094BE26A16
S315080037F01B68DB6A9A4285BF0120074B00201860C8
S3150800380038BD29460548EFE7E0230020FC230020C1
S3150800381078240020D8280020F02300203424002013
S31508003820034B1B680360034B1B684360704700BF6C
S31508003830EC2300200024002070B50D460446FFF74F
S31508003840B9FB0F4B19682B685A1C17D00D48266808
S3150800385000686268864208D08A4206D80023012496
S315080038602B60FFF7B5FB204670BD881A8342F5D951
S315080038705B1A134420462B60FFF7D2FF0024F0E7BB
S3150800388000240020EC2300200122014B1A60704717
S31508003890F0230020012906DC08B9044B1868143106
S315080038A050F8210070470020704700BFD828002034
S315080038B0014B1868704700BFD8280020054B1B68C5
S315080038C033B1054B1868B0FA80F0400940007047DC
S315080038D001207047F8230020E0230020F8B50446AD
S315080038E038B31A4DC36A2A68D26A934226D28269C5
S315080038F0174E002AA1BF2A68D26AC2F1380282612D
S31508003900142202FB036342699A4213D1071D384603
S3150800391008F0CCFF14202B680E4ADB6A116800FBFE
S3150800392003608B42E362394688BF136008F09CFF48
S315080039300120F8BD2B68DB6AC362F9E72B68806C47
S31508003940DB6A98422CBF00200120F2E7D828002025
S3150800395078240020FC23002038B5044608B9002046
S3150800396038BD114BC16A1B68826CC36C914203F166
S31508003970FF33C364F3D0002BF1D1051D284608F0A8
S3150800398095FF1420A36CC3F13802A261074AE362CB
S3150800399011688B4288BF1360054A294600FB03203D
S315080039A008F062FF0120DBE7D8280020FC2300206E
S315080039B07824002070B5044660B3836C994238BFFA
S315080039C01946C36A8B4225D0C26C012A22D1124AF3
S315080039D0124D12688269C162002A4FF0140202FB76
S315080039E003534269A4BFC1F1380181619A4211D1DA
S315080039F0061D304608F05AFF1420094AE36A116882
S31508003A0000FB03508B423146BDE8704088BF136007
S31508003A1008F02ABF70BD00BFD828002078240020EF
S31508003A20FC230020044B1A681AB11968CA6C0132C3
S31508003A30CA641868704700BFD8280020914208B5A4
S31508003A40416000610AD8D21A83699A420DD2084B9E
S31508003A50011D186808F013FF002008BD9A4201D21C
S31508003A60994202D2034B011DF3E70120F5E700BF97
S31508003A70382900203C290020F7B5114CFFF79AFA9F
S31508003A802568BDB90F4F104E384608F0DFFE3046A0
S31508003A9008F0DCFE0D4B10211F600D4B0A201E603E
S31508003AA00C4A0D4B009509F00FF8206010B10B4930
S31508003AB0FFF7C8FB03B0BDE8F040FFF789BA00BFBF
S31508003AC03429002054290020402900203C290020C0
S31508003AD038290020DE540020DC280020F72E0108B3
S31508003AE010B588B0FFF7C8FF0E4B00241868B8B1A8
S31508003AF007AA06A905A8CDE90544FFF72DFA059BEF
S31508003B00079A0293069B08490193282307480093BE
S31508003B10234609F0F9FA064B1860001B18BF012066
S31508003B2008B010BD34290020FC2E0108093C000805
S31508003B30302900207FB50F4C0546206816461A46E0
S31508003B4080B10529CDE9001602950DDCFFF7B6FE12
S31508003B500023022818BF1A46694608BF089A206833
S31508003B6009F000F804B070BD0023694609F0B1F801
S31508003B70F8E700BF342900202DE9F3470646FFF78A
S31508003B80B7FCDFF880800546D8F80030834209D9AB
S31508003B901A4F3B681A686AB9194A1168136039607E
S31508003BA0012300E0002328463360C8F8005002B01D
S31508003BB0BDE8F087DB68DC68D3F8009004F1040AF6
S31508003BC0504608F073FE236A2046984794F8283032
S31508003BD05B07DED5A3694B44994506D2514638683A
S31508003BE06360246108F04BFED3E700234A46194672
S31508003BF020460093FFF79EFFCBE700BF3C29002035
S31508003C00382900202C2900202DE9F04700275E4D91
S31508003C1088B02B68D3F80080B8F1000F50D0002484
S31508003C20DB68D3F80080FFF75BFC04A8FFF7A4FF66
S31508003C30049B8246554E002B5CD1002C47D140454B
S31508003C404BD3FFF7E7FC2B68DB68D3F80C9009F138
S31508003C50040008F02BFE99F82830580732D5D9F811
S31508003C6018104346524648464144FFF7E7FE30B12E
S31508003C7023464246214648460094FFF75BFF4846DE
S31508003C80D9F8203098470022306804A909F07BF853
S31508003C900028BED0049B0698002B2EDB069C636981
S31508003CA0002B31D103A8FFF767FF049B0246092BB7
S31508003CB0E9D8DFE803F02D2D2D4C53612D2D4C53FB
S31508003CC00124B0E723F0010389F82830D7E7304B01
S31508003CD01B681C68B4FA84F4640922463068A8EBA9
S31508003CE00A0109F08DF9FFF795FC0028CBD108F0F9
S31508003CF0EDFDC8E7FFF78EFCC5E7059B07999847D2
S31508003D00049B002BBFDBC9E7201D08F0CFFDC9E7E0
S31508003D1094F82830A16943F0010384F82830059BFC
S31508003D2020461944FFF78AFE0028ACD0236A2046AD
S31508003D30984794F828305907A5D50023A26905990C
S31508003D4020460A4400971946FFF7F4FE9BE794F8C5
S31508003D50283023F0010384F8283094E794F82830B3
S31508003D6043F0010384F8283005990346A16101440C
S31508003D702046FFF763FE86E794F828309A07E8D4CA
S31508003D802046FFF733FA7EE73C2900203429002035
S31508003D903829002030B5074C256824686A40D2B215
S31508003DA0891A101A090A41EA1021634023EA010018
S31508003DB0C0B230BD68290020044B1B685840430830
S31508003DC05B4240421843C017704700BF682900206D
S31508003DD0F8B50E46C9880546144609F099FC074603
S31508003DE0D0B92046FFF7E8FF0446E4430F4B316895
S31508003DF01A68B5F90430424023EA0203B6F90420EA
S31508003E0002401343AB80F2880346286800F00CFA98
S31508003E10F388E888834201D33846F8BD296851F803
S31508003E202320224041F823200133F3E768290020A4
S31508003E302DE9F04F834699B00F46184600211646DD
S31508003E40049309F0DBFD002800F087810024012592
S31508003E50774B30461493049915ABCDE90B45CDE95C
S31508003E600D45CDE90F45CDE91145139309F04FFDF1
S31508003E70A04228DABBF1000F05D1E7B90024204695
S31508003E8019B0BDE8F08F2146584609F0B5FC04463E
S31508003E900028F2D00BA809F02DFC0DA809F02AFC81
S31508003EA00FA809F027FC11A809F024FC0C2115A875
S31508003EB001F04AFBE3E73146384609F068FC044658
S31508003EC00028E7D1DAE731460BA809F060FC04467A
S31508003ED00028DFD104990DA809F059FC04460028EA
S31508003EE0D8D1F1880FA80231ADF83850ADF8305066
S31508003EF009F00EFC04460028CCD101460FA809F0AB
S31508003F007BFC04460028C5D1F18811A8023109F0C6
S31508003F10FFFB04460028BDD10DA809F0ACFC00F053
S31508003F201F001F2873D0C0F11F0319460BA8019361
S31508003F3009F0C7FC04460028ACD101990DA809F080
S31508003F40C0FC04460028A5D1BDF83250BDF83A8019
S31508003F500DA8A5EB080A4FEA4A19494609F0B1FC2B
S31508003F600446002896D14FEA8A0A0DA90BA809F03B
S31508003F70FDFC00284DDA49460DA809F0BFFC0446A9
S31508003F80002887D108F1FF3302939B0005F1FF3A19
S31508003F90069305F1804508F18043023B013D9B00ED
S31508003FA0A5EB08050993AB000393029B9A4541D8F4
S31508003FB0BBF1000F0DD058460FA909F0E8FB002801
S31508003FC040F0C780049AB388928813FB02F3ABF8D3
S31508003FD00430002F3FF45EAF01990BA809F08EFC60
S31508003FE0002840F0B680B3880BA93846ADF83030C3
S31508003FF009F0CDFB0146002840F0AD80384609F0AF
S31508004000FDFC00287FF446AF0123BB8042E70194FC
S315080040109AE70F9A0BA952F80A300846013342F874
S315080040200A300DAA09F0CFFD044600289DD031E7D5
S31508004030010003000D9B069A05931344DDF82C90A6
S315080040400893059B4FEA8A089A5859F82A10A8F146
S3150800405004030F9D0793039B91421D4474D207984E
S31508004060002359F8000004F0EBFC002914BF4FF0B8
S31508004070FF330346BAF1010F2B600EBF002309EB8D
S31508004080080353F8083C099A1593079B59F8033017
S31508004090169359F8083017932B6801332B60059B44
S315080040A0134498462B680021013B2B6011A809F0A0
S315080040B0A3FB00284DD1029B002B48D0D8F800203E
S315080040C0119B11A91A60089A084612685A602A684C
S315080040D009F001FE00283CD113A911A809F046FCF5
S315080040E00028DFDC2A680DA911A809F0F4FD80BBB9
S315080040F0039B11A84FEAC308414609F0E2FB40BBFF
S315080041000BA9084611AA09F05EFD014618BB0BA8C3
S3150800411009F074FC002812DA0DA911A809F037FB7A
S31508004120B8B9414611A809F0CCFB90B90BA90846C5
S3150800413011AA09F045FD60B92B68013B2B60039B6A
S315080041400AF1FF3A043B2FE74FF0FF3392E7029A52
S31508004150B6E704469EE60C469CE66FF00B048EE630
S31508004160044B1B68584043085B4240421843C0173B
S31508004170704700BF6829002010B50B4C22682368D9
S315080041804240594081EA0200C00FFFF7E9FF236861
S31508004190521A434022EA030208401043C00FBDE802
S315080041A01040FFF7DDBF00BF68290020F8B50D46AF
S315080041B0014628681746FFF7DFFF0124C143074B6E
S315080041C01E68BC4202D346EA0100F8BD55F8240031
S315080041D0FFF7C6FF01340643F3E700BF682900204E
S315080041E02DE9F04707460F4B88461E6819681D6873
S315080041F0541E631C02D13046BDE8F08758F824A047
S3150800420057F8249050464946FFF7B6FF51460543EE
S315080042104846FFF7B1FF20EA05031E430543013C64
S31508004220E7E700BF682900208842F0B504D00025DA
S31508004230084F0438AA4200D1F0BD3E6850F8044F32
S315080042405E4024EA060451F8256001351E403443D1
S315080042500460EFE7682900202DE9F04F1C4685B079
S31508004260DFF884900391064621461046D9F80030B7
S31508004270D9F8003009F07FFFC51D272D90468CBF61
S315080042804FF01E0A4FF0FA0AEB0825F007050293CD
S315080042902D1A0F9B2146009330460E9B029A0AF070
S315080042A067F90746C0B92A462146304609F0DCFFB9
S315080042B0BAF1010A14D0224631460398FFF776FF71
S315080042C02246834641463046FFF78AFFD9F8002042
S315080042D00BEA00039A42DCD0384605B0BDE8F08FF9
S315080042E06FF00D07F8E700BF6829002070B50C4687
S315080042F00646114620461A4609F081FC0546A0B92D
S31508004300B36C33B921462046321DBDE8704009F02A
S3150800431013BDB4F90430002B09DB204609F0ABFACB
S31508004320F36BB0EB430F09D9184D284670BD01460B
S31508004330204609F063FB0028EFD0F5E72046B36C6A
S31508004340984705460028F0D10436B4F90430002B06
S3150800435004DA0021204609F051FB68B931462046A7
S3150800436009F004FB0028E0DB32462146204609F026
S31508004370A5FB0028F2D006E032462146204609F081
S315080043801FFC0028E1D00546CFE700BF80B0FFFF3D
S31508004390F0B514461F46054685B002A80E4609F034
S315080043A0A4F92346022100972A1D02A809F072FDE6
S315080043B0044648BB06F110021146284602ABFFF731
S315080043C095FF044600BB06F108073A4639462846D3
S315080043D002ABFFF78BFF0446B0B902AB1A46194683
S315080043E02846FFF783FF044670B932463146284609
S315080043F002ABFFF77BFF044630B93A4639462846F2
S3150800440002ABFFF773FF044602A809F073F90348E5
S3150800441014F10E0F18BF204605B0F0BD00B3FFFF1C
S315080044200246044803780BB9184670479342FCD0F5
S315080044300C30F7E7102F01082DE9F14F9A461B6952
S3150800444004460E4691460A9D1BB9724801B0BDE85E
S31508004450F08F02F110070021384609F0CFFA30B97B
S315080044605146304601B0BDE8F04F0AF059BB0AF193
S3150800447010080021404609F0C1FA08B94946F0E794
S315080044800121404609F0BAFA0028DED13B463A46F1
S3150800449029462046FFF72AFF0028D7D105F1080844
S315080044A03B462A4641462046FFF720FF0028CDD145
S315080044B053462A4629462046FFF718FF0028C5D145
S315080044C04246414620460AF10803FFF70FFF002837
S315080044D0BCD14B462A46294620460AF014F900283C
S315080044E0B4D109F1080B5B464246414620460AF01C
S315080044F00AF90028AAD10021284609F07FFA0146C0
S3150800450090B9404609F07AFA40B92B464A463146F0
S31508004510204601B0BDE8F04F0AF072B9304601B046
S31508004520BDE8F04F0AF012BB2B463A46204606F184
S315080045301001FFF7DBFE002888D105F110072B468E
S315080045402A4639462046FFF7D1FE00287FF47EAF7B
S3150800455005F1180A2B463A4651462046FFF7C6FE8D
S3150800456000287FF473AF4B463A4639462046FFF794
S31508004570BDFE00287FF46AAF3946284609F007F9D8
S3150800458000287FF463AF294620460AF02AF9002856
S315080045907FF45CAF4346424631462046FFF7A6FE07
S315080045A000287FF453AF2B463246314620460AF0A0
S315080045B0AAF800287FF44AAF5346324631462046C9
S315080045C00AF0A1F800287FF441AF33463A46394647
S315080045D020460AF098F800287FF438AF43463A4652
S315080045E039462046FFF782FE00287FF42FAF5B4648
S315080045F0524651462046FFF779FE00287FF426AF3B
S3150800460053463A46204606F1080101B0BDE8F04F88
S315080046100AF079B880B0FFFF2DE9F047012A8246F3
S31508004620DDE908490E4690461F4644D8043009F08D
S3150800463026F9054650460AF0E9F9012882463CD192
S31508004640002106F1100009F0D9F948B9B9F1000FAF
S3150800465002D11B48BDE8F0872070C7F800A0F9E72B
S31508004660B8F1000F17D16B0001334B453B60F0D80A
S31508004670214604232A46304601F8013B09F01BF976
S315080046800028E7D12A46691C214406F10800BDE83E
S31508004690F04709F010B96B1C4B453B60D9D800218F
S315080046A006F1080009F0C4F82146023001F8010BAA
S315080046B02A463046EBE70348CCE70348CAE700BF7B
S315080046C000B1FFFF80B0FFFF80B1FFFF2DE9F8437F
S315080046D080460C4615461F4613B91D48BDE8F883A3
S315080046E0043009F0CCF8064640460AF08FF901284E
S315080046F081462AD12B7833B9012FEED12046BDE861
S31508004700F8430AF023BA06F10108B845E5D8324657
S315080047102046691C09F0B9F80028DFD1494604F19A
S31508004720100009F069F80028D8D12B78042BD4D1C9
S3150800473073000133BB42D0D1324605EB080104F1C0
S315080047400800BDE8F84309F0A0B80248C6E700BF6C
S3150800475080B0FFFF80B1FFFF2DE9FF410E460546F9
S31508004760012106F1100009F049F9044650B9284616
S315080047700AF04CF901287AD12146304609F03EF96B
S31508004780002801DA3B4C6EE006F10808214640464F
S3150800479009F034F90028F5DB2F1D3946304609F0B3
S315080047A0E5F80028EEDA3946404609F0DFF8002831
S315080047B0E8DA684608F099FF02A808F096FF43462B
S315080047C0424669462846FFF791FD0446002844D12B
S315080047D033463246284602A9FFF788FD04460028D4
S315080047E03BD1EB687BBB02A90322084609F0EFF927
S315080047F0044690BBBDF90C30002B04DA002102A850
S3150800480009F0FCF8C8B902AA334611462846FFF74C
S315080048106DFD044608BB02AA1146284605F1140395
S3150800482009F061FF0446C0B9684602A909F09EF876
S31508004830104B041E18BF1C460FE002A93A4608464C
S3150800484009F0BEF9D4E702AA1146284605F10C0379
S3150800485009F049FF04460028D5D0684608F04AFF03
S3150800486002A808F047FF204604B0BDE8F081024CD4
S31508004870F9E700BF80B3FFFF80B0FFFF38B50546F4
S315080048800AF0C4F801280C4601460DD1204609F065
S31508004890B5F8002806DB204605F1340109F066F86C
S315080048A0002803DB024838BD0248FCE70020FAE787
S315080048B080B3FFFF80B0FFFF2DE9F04F0F46B5B07C
S315080048C0114606469A460292FFF7D8FF0446002884
S315080048D040F09F8151463046FFF73EFF04460028C8
S315080048E040F0978130460AF091F8012840F09A8105
S315080048F0336C1821013302204FEA530907F079FF78
S315080049000546002800F08C8105F118080AF087F89A
S3150800491040460AF084F80DF14C0B0BEB0400083402
S3150800492008F0E3FE202CF8D1514628460AF0F8F89C
S31508004930044698BB8246D1451ED14146304609F009
S3150800494057FE044650BB43462A4641463046CDF8F4
S3150800495000B0FFF771FD044600BB4146304609F03A
S3150800496047FE0446D0B905F1100008F0C3FE05F16C
S31508004970280008F0BFFE11E0BAFBF9F1012318225E
S315080049808B4009FB11A1DBB202FB0352F9B11146B8
S31508004990304613AB09F034FF044638B34FF0000A2B
S315080049A00BEB0A000AF1080A08F0A4FEBAF1200F78
S315080049B0F6D1F4B1B36D9D422DD028460AF06CF8B5
S315080049C040460AF069F8284607F023FF23E003F07B
S315080049D0FE0101EB5301104605EBC10103920AF0F3
S315080049E09FF8039A04460028D1D0D7E70AF1010AAE
S315080049F0A1E705A808F079FE06F1340B0BA808F024
S31508004A0074FE2146584608F013FF012811D0B36DED
S31508004A109D4204D1844C38460AF03EF8F9E028460F
S31508004A200AF03AF840460AF037F8284607F0F1FE49
S31508004A30F0E72146029808F0FBFE0299824605A88F
S31508004A4008F0A5FE044630B10BA808F053FE05A8E9
S31508004A5008F050FEAEE75946029A0BA809F0B3F8DB
S31508004A6004460028F0D1BAFA8AFA4FEA5A1A524688
S31508004A700BA905A8FFF7ACF904460028E4D10146BE
S31508004A8009F1010213A80DF09BF913AB1A46A346C8
S31508004A90D94502925DD0594605A8039308F0C8FE89
S31508004AA0029A09EB0B0114780BF1010B044305A8D4
S31508004AB008F0BEFEE4B2029A44EA4004039B02F8F8
S31508004AC0014BE5E75C781A7884EA010E6FEA0E0076
S31508004AD000F0010012FB00F20C4002EA0E0182EA25
S31508004AE00E0203F8012F13F8012C214342EAC012E3
S31508004AF003F8012C0CF1010CE345E3D20BA808F0EE
S31508004B00F9FD05A808F0F6FD05A809F088FF0024B8
S31508004B100BAB1819083408F0E8FD202CF8D10BF176
S31508004B20D0036B442A463946304613F8843C09F0CC
S31508004B3017FE0446002831D13E9B002B6DD0DDE9D7
S31508004B403E2339463046FFF723FC002865D0044645
S31508004B5024E000214FF0010CCEE74B463A46394691
S31508004B6030460BF1FF3B09F04BFE0028EFD113ABA3
S31508004B702A46304613F80B3005A909F0F1FD00283E
S31508004B80E5D13A4639463046CDF8009005ABFFF7F1
S31508004B9053FC0028DBD1BBF1000FDED105A809F0D4
S31508004BA0D1FD4FF000090BAB03EB090009F1080929
S31508004BB008F0A0FDB9F1200FF5D1002C7FF4FAAE6C
S31508004BC052463946304609F057FD044600287FF418
S31508004BD0F1AE3E9B4BB1DDE93E2339463046FFF741
S31508004BE0D7FB044600287FF4E5AE3946304609F07F
S31508004BF0FFFCB36D04469D4208D0284609F04CFFD9
S31508004C00404609F049FF284607F003FE002C7FF4CA
S31508004C1002AF204635B0BDE8F08F0DF12C09BAE792
S31508004C20024CF8E6004CF4E780B0FFFF80B2FFFFC5
S31508004C3030B4DDE9024524B1CDE9024530BCFFF7C1
S31508004C403BBE014830BC704780B0FFFF73B50546D0
S31508004C501E4609F0DBFE01280C4601460ED1134616
S31508004C602046009605F1340209F014F9044B10F1B8
S31508004C700E0F18BF0346184602B070BD014BFAE77F
S31508004C8000B3FFFF80B0FFFF10B5044609F0BEFE73
S31508004C90012805D104F16000BDE8104008F00BBEFC
S31508004CA0004810BD80B1FFFF38B504460D4609F02F
S31508004CB0F7FE204609F0C1FE032D257023D1144BBB
S31508004CC0144AA360A361A3632362A362124B6260C2
S31508004CD063624FF00113114A23636261104A114B54
S31508004CE06263114AE362E261201D08F0C4FDE063D5
S31508004CF004F1340008F0BFFD206400200123C4E954
S31508004D001600636438BD002308482370FAE700BF1D
S31508004D1001000800A82F0108482F0108882F01085C
S31508004D20282F010834100020682F010880B1FFFFE2
S31508004D300538C0B206289ABF024B53F82000002057
S31508004D40704700BFC82F01080023F0B5044603606A
S31508004D500A276FF067000C4E0B68934203D21D7842
S31508004D60303D092D00D9F0BD2568B54209D87D43E7
S31508004D70256013F8010B28443038206000200B60AA
S31508004D80EAE76FF06700EEE79999991970B5094C4B
S31508004D90256815B96FF02D0009E0667C864207D1B3
S31508004DA0267C8E4204D10020156062681A6070BDA8
S31508004DB01434EDE7A038010830B5084B1C6814B95F
S31508004DC06FF02D0006E01D7C854204D100205B684B
S31508004DD00C60136030BD1433F0E700BF503801088B
S31508004DE030B5084B1C6814B96FF02D0006E01D7C21
S31508004DF0854204D100205B680C60136030BD143313
S31508004E00F0E700BF283801082DE9F04F0F460021CA
S31508004E10054687B00846009390469B46134605AA62
S31508004E20109E08F0DBFB28460DF00CF804463846C1
S31508004E300DF008F8059902290A4638BF02224B1CCC
S31508004E40023A03EB921323441844119B984207D95C
S31508004E506FF02908129B1860404607B0BDE8F08F2E
S31508004E6039B1012007F0C5FC044618B9DFF8A0805F
S31508004E70F2E70C46434620460599CDF800B005AA48
S31508004E8008F0ACFB804618B1204607F0C2FCE3E701
S31508004E9028460CF0D7FF2946024630460CF0C5FFD7
S31508004EA028460CF0CFFFA1464FF00A0A3518DDF860
S31508004EB014B0BBF1000F18D138460CF0C3FF3946C1
S31508004EC0024628460CF0B1FF38460CF0BBFF0246F6
S31508004ED02B18581C129B05F802B0821B1A60119BEE
S31508004EE059469A1A0CF06CFFCEE75A46402A28BF54
S31508004EF040224946284603920CF097FF039AABEBEB
S31508004F00020015440590914405F801ABCFE700BFB0
S31508004F1080EEFFFFF0B505468BB00E462422002131
S31508004F2001A80CF04DFF1DB9114C20460BB0F0BD81
S31508004F302B68002BF8D1304601A90AF0E6FA044698
S31508004F400028F1D1BDF8047001A80AF088FE27F000
S31508004F50FF03B3F5E24F07D047F201039F4205D19D
S31508004F60044B2B60AE60E0E7034BFAE7034CDCE743
S31508004F7080C1FFFF303901086039010880C6FFFF8C
S31508004F802DE9F74F1646DDE90C89DDE90EAB044637
S31508004F900D46109AE1B92BB9036803BB164803B04E
S31508004FA0BDE8F08F002EF9D001680029F6D02168F7
S31508004FB04F69FFB1CDE90FB2294632462046BC46B5
S31508004FC0CDE90D9ACDF8308003B0BDE8F04F6047C3
S31508004FD0002EE3D001680029E0D0002BE7D128464F
S31508004FE00192FFF7A5FE09F03AFE019A034600284A
S31508004FF0DDD1D3E70148D2E780C1FFFF00C1FFFF3B
S315080050000048704780C6FFFF2DE9F04F07468FB06E
S315080050100C46DDE918650021914605A824229A4622
S31508005020DDF868800CF0CCFE384605A90AF06DFA62
S3150800503030B10722294B2A490BF0D7F9044647E035
S31508005040DDF824B005A80AF00AFE264A2BF0FF036D
S315080050509342384608BF44EA03014A465346CDE917
S31508005060015818BF44F0062100960AF042FC07468C
S315080050700028DED1D8F8001035444FEA51094A46CF
S3150800508006EB510104A8049509F005FF041E1FDB71
S315080050904A46314604A809F0FEFE051E1CDB2544D7
S315080050A02A46314604A808F02CF9041E10DB3022E3
S315080050B0314604A808F049F90028BFDB25443C46D8
S315080050C005442A46304604990CF060FEC8F800509C
S315080050D020460FB0BDE8F08F2C46F9E7E5630008D7
S315080050E0B8390108000700062DE9F0431D469FB0B0
S315080050F004460E4617460021242205A8DDF8A0908E
S315080051000CF05EFE00230735ED0802934FEA4508CA
S3150800511027B9384C20461FB0BDE8F08347F48241D2
S315080051204FF0062705A809F022FF4FF4005105A8FD
S3150800513009F082FE3246214602AB09970AF07DFA4B
S3150800514078B101F04FF90546029800F08FFC044645
S31508005150002D4DD1002CDDD0204601F043F9044640
S31508005160D8E7B8F1400F3FD8299E30234E44314640
S3150800517004AA03A8CDF80C9008F043F8044618B121
S31508005180029800F073FCC5E70DF138092B464A462C
S31508005190314603A809F0BDFE04460028F0D12B4687
S315080051A0314609EB050203A809F0B3FE04460028B8
S315080051B0E6D1DDE926233946CDE9009802980AF0BA
S315080051C046FC28B107220C4B0C490BF00EF9BAE73E
S315080051D0DDE902039E4203D100F048FC0446B9E724
S315080051E000F044FC064C95E7029800F03FFC90E777
S315080051F02C468FE780C1FFFFE5630008B839010830
S3150800520000C7FFFF2DE9F0410546A0B0002116466C
S3150800521006A824221F460CF0D3FDA86806A90AF0A2
S3150800522074F938B10722144B14490BF0DEF820B094
S31508005230BDE8F081BDF8184006A804F44F43B3F55D
S31508005240824F18BF0024BDF81A800AF008FD4122D3
S31508005250A86805AB0FA90AF0B6F90028E2D1279B82
S3150800526005990393269B0096CDE90173E2B243465E
S315080052700FA8FFF739FFDAE7E5630008B839010830
S3150800528070B5002306460846BEB0CDE90333412271
S31508005290806803AB05A90AF096F9044618B101F02F
S315080052A0A1F83EB070BD16ADA022314628460CF0D6
S315080052B0BCFD284609F0BBFD0238314602284FF0EE
S315080052C0A002284698BF179C0CF0AFFD284609F0A7
S315080052D0AEFD0238022888BF00214FF0410398BF6F
S315080052E01799CDE900530022204604AB6831FFF731
S315080052F093F90028D5D1DDE903239A4208D1294636
S3150800530005A80CF033FD034B002818BF1846C8E75C
S315080053100048C6E780C1FFFF2DE9F0419046002707
S31508005320ACB004ACA02205460E462046414603977B
S315080053300CF07BFD204609F07AFD0238022840462B
S3150800534098BF059F09F073FD072812D1412221460F
S31508005350D8F8080003AB0AF036F900BB039A2868A8
S31508005360801A214628600CF060FD03982CB0BDE831
S31508005370F08141230022CDE90043384603AB07F10B
S315080053806801FFF749F90028F0D12868B04203D32D
S31508005390039A861B9642E3D26FF06B00E6E7014854
S315080053A0E4E700BF80C1FFFF73B5054610460C460B
S315080053B0164609F03CFD022809D132462146284600
S315080053C0FFF7AAFF00280DDB034618460AE0304619
S315080053D009F02DFD07281BD100232A680193944262
S315080053E002D90C4802B070BD2146B06801AB121B49
S315080053F00AF0E9F80028F4D12868019A2146801AAB
S3150800540028600CF0C3FC019B002B1846DDDAE9E79F
S315080054100148E7E780C1FFFF80C6FFFF2DE9F04797
S31508005420002786B080460E46CDE904772AB96FF084
S315080054306B04204606B0BDE8F0870A44039202468C
S3150800544003A8FFF7B1FF041EF3DB039B9A1B002A90
S31508005450EDDD5A1E651C039231462A4603F8017C87
S3150800546003A807F04EFFB0F1000A66DB03223146B7
S3150800547003A807F06AFFB0F1000960DB404609F0AF
S31508005480D6FC022837D1404609F08FFD04AA05A9A3
S31508005490074609F009FC0446002843D010F12E0FF0
S315080054A0C7D13A46314603A809F06EFD041EC0DB93
S315080054B0274602200124049BBBB3DDE90432CDE96B
S315080054C00074314603A807F0B5FF041EB1DB554446
S315080054D04D4425442A46314603A807F012FF041E08
S315080054E0A7DB3022314603A807F02FFF002822DB6E
S315080054F0254444199DE70728DCD1D8F8080009F0A7
