S01C00006275696C642F64656275672F67656E657261746F722E7333379C
S31508000000001000202124000861D3000861D30008ED
S3150800001061D3000861D3000861D3000861D30008E2
S3150800002061D3000861D3000861D300080104000801
S3150800003061D30008083A0108910300083DE4000866
S3150800004061D3000861D3000861D3000861D30008B2
S3150800005061D3000861D3000861D3000861D30008A2
S3150800006061D3000861D3000861D3000861D3000892
S3150800007061D3000861D3000861D3000861D3000882
S3150800008061D3000861D3000861D3000861D3000872
S3150800009061D3000861D3000861D3000861D3000862
S315080000A061D3000861D3000861D3000861D3000852
S315080000B061D3000861D3000861D3000861D3000842
S315080000C061D3000861D3000861D3000861D3000832
S315080000D061D3000861D3000861D3000861D3000822
S315080000E061D3000861D3000861D3000861D3000812
S315080000F061D3000861D3000861D3000861D3000802
S3150800010061D3000861D3000861D3000861D30008F1
S3150800011061D3000861D3000861D3000861D30008E1
S3150800012061D3000861D3000861D3000861D30008D1
S3150800013061D3000861D3000861D3000861D30008C1
S3150800014061D300086532000861D3000861D300084E
S3150800015061D3000861D3000861D3000861D30008A1
S3150800016061D3000861D3000861D3000861D3000891
S31508000170F0B5114A114C124E00F00105E3695F070C
S3150800018013D40DB9334213D103EA00078F4207D1BE
S315080001900B4A1A40002A0CBF00206FF00100F0BD80
S315080001A0013AEBD16FF00200F9E74FF0FF30F6E7BE
S315080001B06FF00100F3E700BF809698000000035037
S315080001C0020001000B4B70B5D96911F480310DD1CD
S315080001D001244FF48072084E084DF46020462C64C2
S315080001E01A61FFF7C5FF3464EC6070BD6FF001005B
S315080001F0FBE700BF00000350001003500020035027
S315080002004FF4803238B50E4B0E4C9A66E56941F6C6
S31508000210713315400122E3630B4B0021DA60022398
S31508000220606121202361FFF7A3FF10B92120FFF7A2
S315080002309FFF0122054BDA600DB10023E36338BD49
S315080002400090005000000350001003500020035097
S3150800025070B5134C6061E3695B071ED40E4656F809
S31508000260043B8D18A361AE420BD104230021212043
S315080002702361FFF77DFF58B9BDE870402120FFF7DD
S3150800028077BF08210846FFF773FF10B104232361DF
S3150800029070BD56F8043BA361E5E74FF0FF30F7E77A
S315080002A0000003502DE9F84315464FF48032184BE9
S315080002B089469A6603F51C33DF690646174041F6F8
S315080002C07132DA63012203F58053DFF84C80DA6075
S315080002D055B9284601220F4BDA601FB10022A3F553
S315080002E00053DA63BDE8F88306F5005404EA080407
S315080002F0A41BAC4228BF2C46494622463046FFF787
S31508000300A7FF0028E6D12644A1442D1BE0E700BF3D
S31108000310009000500020035000E0FFFFA2
S315080003200B4A1168086806C881F30B88022181F315
S315080003301488203080F30988BFF36F8F4FF00000D0
S3150800034080F31188104700BFAFF30080AFF3008039
S315080003501820002000000000000000000000000037
S3150800036007480068006880F3088862B661B6BFF37C
S315080003704F8FBFF36F8F02DF00BF00BFAFF3008060
S3150800038008ED00E00000000000000000000000008A
S31508000390EFF309801EF0100F08BF20ED108AEFF367
S315080003A00B82734620E9FC0F114A116808604FF06A
S315080003B0300080F31188BFF34F8FBFF36F8F05F0BE
S315080003C0BFFA4FF0000080F31188094A11680868DF
S315080003D0B0E8FC0F13F0100F08BFB0EC108A82F3D8
S315080003E00B8880F309881847AFF30080AFF30080C5
S315080003F01820002000000000000000000000000097
S315080004001EF0040F0CBFEFF30880EFF309800449D0
S31508000410084700BFAFF30080AFF30080AFF300805A
S3150800042017E500080000000001292DE9F04F4AD819
S3150800043089B30FF2D40BDBE900AB0FF2D409D9E983
S31508000440008935A7D7E9006735A5D5E9004536A35C
S31508000450D3E900239FED1E5B9FED1F6B9FED207B6D
S315080004609FED214B80ED045B80ED004B80ED024B48
S3150800047080ED066B80ED087BC0E90AABC0E90C8904
S31508000480C0E90E67C0E91045C0E91223C0F8D010CC
S315080004900020BDE8F08F9FED165B0FF2940BDBE9A9
S315080004A000AB0FF29409D9E9008925A7D7E90067B7
S315080004B025A5D5E9004526A3D3E900239FED0E6BB4
S315080004C09FED0F7BCCE76FF07400E2E7AFF3008097
S315080004D0D89E05C15D9DBBCB07D57C362A299A6275
S315080004E017DD70305A015991000000000000000025
S315080004F008C9BCF367E6096A3BA7CA8485AE67BB29
S315080005002BF894FE72F36E3C39590EF7D8EC2F157A
S31508000510310BC0FF6726336711155868874AB48EB2
S31508000520A78FF9640D2E0CDBA44FFABE1D48B547FC
S31508000530F1361D5F3AF54FA5D182E6AD7F520E51D1
S315080005401F6C3E2B8C68059B6BBD41FBABD9831F8B
S3150800055079217E1319CDE05B0348044B834202D010
S31508000560034B03B118477047903F0020903F002087
S3150800057000000000064B0749C91A891048BF013117
S31508000580491003D0044B0BB101481847704700BF08
S31508000590903F0020903F00200000000010B5064C58
S315080005A0237843B9FFF7D8FF044B13B10448AFF3D8
S315080005B000800123237010BD882900200000000058
S315080005C0144C010808B5054B1BB105490548AFF39E
S315080005D00080BDE80840FFF7CDBF00BF000000005F
S315080005E060100020144C0108A3F5803A704700BF3C
S315080005F0174B002B08BF134B9D46FFF7F5FF00214D
S315080006008B460F461348144A121A11F0B4FF0E4BC4
S31508000610002B00D098470D4B002B00D098470020A0
S31508000620002104000D000D48002802D00C48AFF345
S31508000630008009F057FC2000290011F0EEFE09F0B1
S31508000640AFFA00BF0000080000000000000000002C
S3150800065000100020001000205C340020000000007C
S315080006600000000010B58CB004460BF03EFC0021DB
S31508000670102208A811F07FFF01230E4A02A8CDE92F
S3150800068003230D4B059407934FF4705302930BF015
S315080006901FFC029B06930DF099F90023000240F017
S315080006A00100049001A903A8019310F0E9FF0CB01A
S315080006B010BD00BF127100010906000670B58CB0A6
S315080006C00C46154606460BF010FC0021102208A819
S315080006D011F051FF0123114A02A8CDE90323104B5B
S315080006E0059607934FF4705302930BF0F1FB029BA8
S315080006F006930DF06BF90023000240F00100214635
S315080007002A460490019303A801AB10F0AFFD0446F6
S3150800071003A811F077F820460CB070BD12710001DD
S315080007200906000610B50A4B86B014460293002344
S31508000730059103901A46CDE90033214405A80EF029
S3150800074095FB002814BFAC20002006B010BD00BFE2
S315080007500DBF00082DE9F041BEB0449D98462B68B0
S3150800076004460E461746002B57D06B68B3F5007F34
S3150800077053D302A811F0CCFD00213C2207A806910C
S3150800078011F0F9FED8F804308BB1CDE900674021A5
S31508000790D8F80030224A06A809F024FA06A902A8C1
S315080007A011F0CDFD58B1AC203EB0BDE8F08133461E
S315080007B040211C4A009706A809F014FAEEE7092119
S315080007C002A811F0B8FD2068FFF74CFF16A810F034
S315080007D02FF9216816A806F0D1FC04460028E2D1B4
S315080007E016A902A811F0A9FD00942346D5E900121E
S315080007F002A808F08FFE04460028D4D1286811F014
S31508000800FCFE6B680130984201D911F033FE68602E
S3150800081002A811F081FD2046C6E72F20C4E700BFD5
S31508000820C8340108E2340108F0B50C46002197B037
S315080008300646154607A83C22069111F09CFE402361
S3150800084005AACDE9013206AF009705930E49D4E90A
S315080008500023306810F030FE044698B9059E6B6890
S315080008609E420DD832463946286811F0B9FE6B68A3
S315080008709E4201D911F0FEFD20466E6017B0F0BD0C
S315080008801920FBE7AC20F9E709060006044808B575
S3150800089000680DF00FFD002814BFAE20002008BD2B
S315080008A02036002008B5034B18680DF0F2FC00202E
S315080008B008BD00BF2036002038B504460D46204640
S315080008C00BF033FB2B7C002857D0052B59D0032B74
S315080008D017D0042B38D0012B4DD1022221462846A9
S315080008E00BF0E1FB002833D1294628460BF01FFC04
S315080008F070BB95F82430002B0CBF032305232B74FB
S31508000900DDE795F825209AB1214628462A7F0BF07F
S31508000910CAFBE8B9294628460BF04AFCC0B995F83F
S31508000920253073B90223AA691A442A620423E6E722
S315080009302B7D013BDBB2022B9CBF134AD25CAA611A
S31508000940F0E72B7F0233EEE795F824300BB123202E
S3150800095038BDAA690AB91820FAE7214628460BF0D5
S31508000960A2FB0028F4D1294628460BF049FC0028AA
S31508000970EED10523C3E70320EAE7052B01D00D20B6
S31508000980E6E70020E4E700BF073501082DE9F04156
S3150800099000240546A046154F86B000F1AC06304641
S315080009A001ABC4F500723919CDF80480FFF76EFF64
S315080009B0C0B194B10E4B04AA04934FF4007302A974
S315080009C02846CDE9027405930BF0C8FDDDE904124B
S315080009D085F8C0003046FFF765FF95F8C00006B0F9
S315080009E0BDE8F081019B1C44D9E700BF892B002094
S315080009F08929002000487047781000200021174BED
S31508000A0010B5174C03F19802626003F1E002236007
S31508000A10A26003F58673802204F12800C4E9041154
S31508000A20C4E90611C4E90811E36011F0A4FD0D4BF1
S31508000A302046C4F8A8300C4BC4F8B440C4F8B0300B
S31508000A400A4BC4F8BC40C4F8B8300123084A84F8F5
S31508000A50C0300849BDE8104011F007BDA8360108A6
S31508000A6078100020E83701081435010828350108F0
S31508000A700836002031C500087FB50E460023044617
S31508000A800DF10601304615468DF8063002938DF8AD
S31508000A90073003930BF028FC58BB9DF80630013B42
S31508000AA0032B01D92F2024E0304602A90BF04EFC77
S31508000AB0F8B930460DF107010BF016FCC8B94FF42A
S31508000AC000723046224903AB0BF059FC88B99DF8F1
S31508000AD00630013B032BE5D8DFE803F0020D151DB0
S31508000AE04FF4CB7160681A4A0368DE6A039BB04705
S31508000AF0C8B104B070BD606840F295110368144A25
S31508000B00DE6A039BF3E7606840F293110368104AB4
S31508000B10DE6A039BEBE760684FF4C17103680C4A11
S31508000B20DE6A039BE3E760680CF039FA044608B10D
S31508000B302046DEE7029928460BF0B5FB21462846F3
S31508000B400BF0B1FB284603990BF0ADFBF0E700BFAD
S31508000B50953100200023F0B506460D46144685B0AB
S31508000B60ADF80A308DF80930A9682A68EB68914211
S31508000B7058D893425AD8002013E0002370688DF89D
S31508000B800C300368BDF80A10DB6803AA9847D82812
S31508000B9000D030B920469DF80C100BF068FB0028F1
S31508000BA0E2D005B0F0BD00237068ADF80C300368DC
S31508000BB0BDF80A105B6903AA9847D82801D000280F
S31508000BC0EFD12046BDF80C100BF05FFBE7E70023DA
S31508000BD0706803930368BDF80A10DB6903AA98478F
S31508000BE0D82801D00028DCD1204603990BF05BFBFE
S31508000BF0D5E700237068039303AA036800929F6AE7
S31508000C00204A4FF40073BDF80A10B847D82801D017
S31508000C100028C6D12046039A1A490BF052FBBEE7B4
S31508000C202620BEE7934201D98B42A4D028460DF16F
S31508000C300A010BF072FB0028B3D128460DF1090111
S31508000C400BF052FB0028ACD12046BDF80A100BF079
S31508000C501CFB0028A5D120469DF809100BF007FBC0
S31508000C6000289ED19DF80930013B032BD8D801A254
S31508000C7052F823F07B0B0008A70B0008CF0B0008DF
S31508000C80F30B000895310020F0B5CB780C461546D5
S31508000C90806885B003B9A830A378032B5AD8DFE853
S31508000CA003F041021A2E00268DF80C60036821888D
S31508000CB0DB6803AA9847D82802D050B105B0F0BD22
S31508000CC031462A4620880BF0E4FB0028F6D100209E
S31508000CD0F4E703A9F5E70026036821885B69ADF800
S31508000CE00C6003AA9847D82803D00028E6D103A9A0
S31508000CF000E031462A4620880BF0DEFBE5E70026B1
S31508000D0003682188DB69039603AA9847D82803D085
S31508000D100028D3D103A900E031462A4620880BF0E3
S31508000D20DFFBD2E70026036803AA00929F6A0A4AF5
S31508000D304FF4007321880396B847D82803D00028B3
S31508000D40BCD1054900E031462B46039A20880BF0B2
S31508000D50DBFBBAE72620B1E7953100202DE9F34100
S31508000D60054608460C460BF0EDF8064678B12548C8
S31508000D700BF0DBF858B186423246224928BF0246B4
S31508000D8020460BF074F910B102B0BDE8F0811E4F91
S31508000D901C4E27E03368013AC6E90233D7F800311A
S31508000DA0C7F8042157F82300013303F03F030190E5
S31508000DB0C7F800312846CB69124A01A99847002886
S31508000DC0E2D120460BF0BEF8804630460BF0ADF86F
S31508000DD080454246314628BF024620460BF047F971
S31508000DE00028D1D120460BF0ADF8296818B1D7F8FC
S31508000DF00421002ACED12846CB6802B0BDE8F041CE
S31508000E00184700BF441200203C11002070B5044664
S31508000E100D460E4E28460BF088F828B9236820465A
S31508000E20BDE870409B68184731462846FFF744FDE1
S31508000E300D28EFD048B9236820469B69034998478F
S31508000E4018B902480BF00DFFE4E770BD74120020D4
S31508000E5008B50B46498AB1F5817F15D005D840F209
S31508000E60011291420CD0A62009E06FF481728A180B
S31508000E70012AF8D81A7D06480BF002FF10B108BD02
S31508000E80DB6AC3600020FAE7DB6A0361FAE700BFA2
S31508000E903C11002008B503480A7D498A0BF0F0FE8C
S31508000EA008BD00BF3C11002091F8263070B50C46ED
S31508000EB0866803B9A83694F82730257D2BB12A46CB
S31508000EC0618A17480BF0DCFE48BB032D26D8DFE8FD
S31508000ED005F016020E1133689B6894F82420618A7F
S31508000EE05AB904F12C023046BDE8704018473368F9
S31508000EF01B69F2E733689B69EFE70022F3E733687B
S31508000F00618ADD6A94F8243033B9E26A3046AC4621
S31508000F10A369BDE8704060470022F7E7262070BD48
S31508000F203C1100200A46498A10B5B1F5A27F16D0B1
S31508000F3008D840F20513994218D0B1F5A17F0ED012
S31508000F40A62017E040F2A1139942F9D180680368F8
S31508000F50DC6A9369A446BDE81040D26A6047806897
S31508000F602C320368BDE810401B691847127D0248F9
S31508000F700BF086FE10BD00BF3C1100202DE9F041A4
S31508000F8000254B6892B0052B0746884616468DF80D
S31508000F9005508DF806508DF8075040F2B3800A6860
S31508000FA0023B13440DF1050102A8CDE90333029271
S31508000FB005920BF096F80446002840F09F800DF144
S31508000FC0060102A80BF08DF80446002840F096802A
S31508000FD00DF1070102A80BF084F80446002840F03A
S31508000FE08D80D8F804203368802A00F286807268DB
S31508000FF07F2A40F2858003F108027E33CDE9073265
S315080010009DF806300692013B0992042B73D8DFE857
S3150800101003F03703646B5C000020089A069B9A422B
S3150800102088BFD41AE5B20446002133680BA803F139
S315080010300802CDE907231C22069309930A9111F0A9
S315080010409AFA022106A80AF08AFF9DF8061006A851
S3150800105041F080010AF083FF9DF8071006A80AF000
S315080010607EFF214606A80AF09FFF294606A80AF031
S3150800107076FF726805F10A03934245D911F0FAF929
S31508001080012200257B682A480C932A4B8DF82C20D0
S315080010900A93294BCDE90D5503F50172C0E90123E1
S315080010A00360C3600BF0DDFD244A254B02F502718F
S315080010B0C3E901121A60DA60224BC3F8045106AA82
S315080010C002A90AA80BF001FEA7E701227B688DF8A2
S315080010D02C200C931C4B0A93F1E703227B688DF8AE
S315080010E02C200C93194BF6E704227B688DF82C20EC
S315080010F00C93174BEFE72A208FE7C224002593E7C6
S315080011001924FBE719248FE7083573600AAA2946CC
S31508001110306800F03FFF9DF80600BDF82820023829
S3150800112018BF012033685A5312B0BDE8F08100BFDA
S31508001130741200203C350108912F0020892D0020CB
S31508001140441200203C110020643501088C35010842
S31508001150B435010838B500240125144B144803F5A5
S315080011600172C0E901230360C360C0E9084405743D
S31508001170448204758461047784620BF072FD0D4B1A
S315080011800D4803F50272C0E901230360C360C0E994
S3150800119008440574448204758461047784620BF0FC
S315080011A060FD064BC3E9404438BD00BF912F0020BF
S315080011B074120020892D0020441200203C110020C2
S315080011C02DE9F041002486B0884617461E460B22B4
S315080011D001AB03A9CDE90344CDE90144CDF8134099
S315080011E000F092FD044670B140F20123984231D0D6
S315080011F001200CF061F868B301211F20174A03ABE0
S315080012000CF04DF826E0019D0A2D01D02F24EFE7BA
S315080012102A4602A903A808F02FFE029A04AB9A42AE
S31508001220A8F80000F2D12A4602A90DF1110008F02B
S3150800123023FE029A0DF113039A423870E6D12A4624
S3150800124002A905A808F018FE029A0DF116039A429B
S315080012503070DBD1204606B0BDE8F081D4350108F0
S315080012600023F0B587B001930C46D1E9001201AB13
S3150800127000F056FD40F20123984225D102AD2A46D8
S31508001280144B03F110072E4618685968083303C62D
S31508001290BB423546F7D163680F2B02D8192007B031
S315080012A0F0BD256806AE134603CBB34228606960D5
S315080012B01A4605F10805F6D110230193019B6268C9
S315080012C0934204D911F0D6F80028E8D1F6E70020B1
S315080012D06360E4E7D037010810B540F26314A14211
S315080012E0034608D040F29710814215D0B1F5B17F78
S315080012F00DD0A62010BD42B11168094BA1F57A722E
S315080013009A4202D800F044FDF4E72F20F2E702B132
S3150800131012681A620020EDE702B112685A62F9E70C
S31508001320B8820100F0B5B1F5AA7F97B01546064612
S315080013301A461C9C3CD8B1F5A07F09D840F2051383
S31508001340994266D040F2111399425BD0A6205EE01E
S315080013506FF4A07319441329F8D801A353F821F0A0
S315080013604D1400084D130008671400084D130008B3
S315080013706D14000873140008791400087F14000817
S315080013804D1300084D1300084D1300084D130008AF
S315080013904D1300084D1300084D1300084D1300089F
S315080013A04D130008851400088B14000895140008CE
S315080013B0B1F5C17F00F08B800ED840F265139942D3
S315080013C07BD0B1F5B37F7DD0B1F5B27FBED12346D0
S315080013D0294600F0F9FC19E040F29313994200F00F
S315080013E0848040F295139942B0D1CDE90D5205B9E2
S315080013F0EAB933683046D3F880300DA9984730B932
S315080014000E9B21E02346294600F094FD48B317B009
S31508001410F0BD00F128073846039211F0EEF8039A5A
S315080014200130CDE906050597089215B90AB111F0FC
S3150800143021F807AB00933046728A318A05AB00F073
S315080014402FFD0028E3D1089B23600AE003681B6B85
S315080014502946304698470028D9D1284611F0CDF8B4
S3150800146020600020D3E703689B6BF1E703681B6CD9
S31508001470EEE703685B6CEBE703689B6CE8E70368D9
S31508001480DB6CE5E703685B6DE2E72346294600F077
S315080014903BFCBBE721230C9303680DAF0392DB6D7E
S315080014A00B970BA99847039A0028B0D11346202119
S315080014B02A4638460BF0ECFED2E72346294600F0CA
S315080014C08FFCA3E72346294600F040FD9EE7CDE9B9
S315080014D009530DB9002BAAD1336830469B6F09A969
S315080014E09847002893D10A9BAEE7CDE90B520DB970
S315080014F0002A9CD133683046DB6F0BA99847002831
S3150800150085D10C9BA0E700BFF0B54B680646602B5B
S315080015100C461546A5B029D900278222394603A8C4
S31508001520029711F028F801AB8622304602A90197E6
S3150800153000F056FC40F20123984210D184220C494F
S3150800154002A8019211F04CF82268019902A800F04D
S3150800155037FD28606368984205D910F08BFF00288C
S31508001560F2D025B0F0BD60600020FAE71920F8E750
S31508001570F335010870B50026044696B02A220D46B2
S315080015800BA831460A9610F0F6FF01AB2E2220462C
S315080015900AA9019600F018FC40F20123984227D1C7
S315080015A018230193174B0AAC03F11806224618684C
S315080015B05968083303C2B3421446F7D100241C22E3
S315080015C0214603A8029410F0D6FF019902AA0AA898
S315080015D000F0F6FC6B680646984210D8024602A947
S315080015E0286810F0FDFF6B689E4205D910F042FF8F
S315080015F00028E3D016B070BD20466E60FAE71920C1
S31508001600F8E700BF7836010870B5B1F5B27F054630
S3150800161016461C4692B000F0088117D840F21113FE
S31508001620994260D06FF4A07319448BB2132B26D855
S31508001630132924D8DFE801F05E236B237885929F6F
S31508001640232323232323232323ACC8D540F2931330
S31508001650994200F02F81B1F5CA7F1DD240F281135D
S31508001660994200F01481B1F5C17F0AD240F26513A0
S31508001670994200F0E580B1F5B37F00F0E880A62036
S3150800168099E0FCD13146224609A80BF074FC28469D
S3150800169009A900F0ABFB8EE040F2A113994200F0D5
S315080016A01D81B1F5D17F11D240F29513994200F010
S315080016B00B81B1F5CB7FE2D13146224609A80BF062
S315080016C05AFC284609A900F0D9FB74E0D7D1002AAC
S315080016D0D5D03146224609A80BF04DFC284609A963
S315080016E000F046FC67E02246314612B0BDE870407D
S315080016F000F01ABC02B13CB900228249284612B051
S31508001700BDE8704000F024BA22463146F6E702B139
S315080017103CB900227B49284612B0BDE8704000F06B
S315080017203FBA22463146F6E702B13CB9002275496E
S31508001730284612B0BDE8704000F05ABA2246314633
S31508001740F6E702B13CB900226E49284612B0BDE858
S31508001750704000F05FBA22463146F6E702B13CB95E
S3150800176000226849284612B0BDE8704000F064BA05
S3150800177022463146F6E702B13CB9002261492846BD
S3150800178012B0BDE8704000F069BA22463146F6E765
S3150800179002B194B900211C220AA8099110F0EBFEA7
S315080017A02021594AAB8A09A808F01CFA09A9024659
S315080017B0284600F079FA12B070BD2246314612B0BA
S315080017C0BDE8704000F070BA02B13CB90A224F4930
S315080017D0284612B0BDE8704000F090BA224631465D
S315080017E0F6E702B1B4B9102105A80BF02FFC0223C5
S315080017F010210093212309AA05A80BF009FD00284A
S31508001800D9D109A810F0F9FE09A90246284600F020
S3150800181081FAD0E7102C01D92F20CCE702232146E4
S3150800182000933046212309AAE7E7002AF4D0002BC3
S31508001830F2D01A46314612B0BDE8704000F0BEBA82
S315080018402246314612B0BDE8704000F0C3BA02B174
S31508001850B4B90023CDE90933CDF82B302B6A09A892
S315080018600293EB8A0193EB6900936A8A298AAB692A
S315080018700BF03CFB0B22284609A900F061FB9AE70E
S315080018802246314612B0BDE8704000F059BB02B19D
S3150800189054B9002305AACDE909238DF81430284642
S315080018A009A90BF0BAFB86E72246314609A80BF0D0
S315080018B062FBF4E73146224609A80BF05CFB284692
S315080018C009A900F0ABFA76E73146224609A80BF0DB
S315080018D052FB284609A900F0B9FA6CE732B980220A
S315080018E03146283010F047FE002064E77F2C93D855
S315080018F022463146283010F073FE00232C4484F823
S315080019002830F1E7503D0108913601089436010860
S31508001910012903BF034B00201B78A62008BF1370BC
S31508001920704700BFB5330020022938B514461D4656
S315080019300FD120220021084810F01DFE3CB1202DB1
S315080019402A46214628BF2022034810F049FE0020D7
S3150800195038BDA620FCE700BF95330020104608B521
S315080019606AB163B102290CD1202B28BF20231A465D
S31508001970029B05491A6010F033FE002008BD2F208F
S31508001980FCE7A620FAE700BF95330020012905D118
S3150800199002B11278024B00201A707047A6207047D1
S315080019A0B53300200023F0B585B007460E46254816
S315080019B003A91546039300F0F9FB002840D1224CF1
S315080019C0236813B9039811F077FDD5E900121F4B68
S315080019D0184610F005FE03466868B0F5007F05D284
S315080019E0C0F50072FF21184410F0C5FD02200BF067
S315080019F063FC48B16B680221019323681F2000939A
S31508001A00134A039B0BF04BFC236803980F494FF4CA
S31508001A100072184411F054FD3846216800F0A8FCFD
S31508001A2070B93046696800F0A3FC48B900202268FE
S31508001A306B68134413F03F021CBF40339B1A2360A4
S31508001A4005B0F0BD21720800A412002095310020CF
S31508001A50183801082DE9F0431D46002389B00746CA
S31508001A6008460E461446CDE9053300F03DFB18B985
S31508001A70D82009B0BDE8F083304605A900F096FBEA
S31508001A800028F6D1204600F02FFB0028F0D020468B
S31508001A9006A900F08BFB0028EBD1DDE90596079037
S31508001AA007A9184800F082FB044600BB079919EB02
S31508001AB001081ED10EB110F0DDFC02200BF0FCFB74
S31508001AC0A0B1079B022100931F203B46CDE9019652
S31508001AD00D4A0BF0E4FB6B689E4210D8324641462D
S31508001AE0286810F07DFD6B689E42E4D86E6020463B
S31508001AF0BFE702200BF0E0FB0028ECD0E1E7192451
S31508001B00F5E700BF217208003D38010800200A4B9E
S31508001B1010B5186032B9094C2146BDE8104008488E
S31508001B2000F026BCA1F500518C1801F0D3FA204626
S31508001B3007F04CFEF0E700BFA412002000E00F08F3
S31508001B4021720800014800F031BB00BF217208006D
S31508001B50014800F025BC00BF00720800002307B545
S31508001B600348019301AB00F045FB03B05DF804FBA5
S31508001B7000720800014800F0E3BB00BF0C720800C1
S31508001B8010B506480C4600F0E9FA40F201239842DF
S31508001B9002BF4FF6F1730020238010BD0C720800B7
S31508001BA0014800F0FDBB00BF0D720800002307B511
S31508001BB00348019301AB00F01DFB03B05DF804FB7D
S31508001BC00D720800014800F0BBBB00BF0B7208008D
S31508001BD010B506480C4600F0C1FA40F201239842B7
S31508001BE002BF48F201030020238010BD0B720800D3
S31508001BF0014800F0D5BB00BF0E720800002307B5E8
S31508001C000348019301AB00F0F5FA03B05DF804FB55
S31508001C100E720800014800F0C3BB00BF107208002E
S31508001C20002307B50348019301AB00F0E3FA03B0BC
S31508001C305DF804FB10720800014800F0B1BB00BF54
S31508001C4011720800002307B50348019301AB00F0A1
S31508001C50D1FA03B05DF804FB11720800014800F0E0
S31508001C609FBB00BF12720800002307B50348019303
S31508001C7001AB00F0BFFA03B05DF804FB127208006E
S31508001C80014800F05DBB00BF0873080010B50548A1
S31508001C900C4600F063FA40F20123984204BF002084
S31508001CA0208010BD08730800014800F079BB00BF0A
S31508001CB00F72080073B5002601AB0E480C46154690
S31508001CC0019600F097FA40F2012398420BD164B1CD
S31508001CD00C2D0CD920462A46074910F00FFC304631
S31508001CE02C4404F8016C02B070BD0B20FBE71920E8
S31508001CF0F9E700BF0F7208005B380108014800F0D9
S31508001D004FBB00BF04720800014800F073BA00BF59
S31508001D1004720800014800F05DBB00BF1F7208008E
S31508001D20014800F0BDBA00BF1F720800014800F064
S31508001D3007BB00BF0772080037B512480D4600F00A
S31508001D400DFA40F201239842044604D14FF4706319
S31508001D502B80002014E098B92B88B3F5805FF8D360
S31508001D6001200BF0A9FA50B14FF4BA732F220121C2
S31508001D70CDE900322046044B044A0BF090FA2F2096
S31508001D8003B030BD077208006838010888380108B2
S31508001D90014800F0EDBA00BF0872080010B5064801
S31508001DA00C4600F003FA40F20123984202BF4FF4B2
S31508001DB07A730020236010BD08720800014800F0FD
S31508001DC0EFBA00BF09720800014800F013BA00BF55
S31508001DD009720800014800F0E3BA00BF0A72080059
S31508001DE0014800F007BA00BF0A72080008B50A469B
S31508001DF002480349FFF7D6FD08BD00BF2672080052
S31508001E00277208000B46024A02490348FFF722BE1A
S31508001E1027720800267208009938010808B50A468C
S31508001E2002480349FFF7BEFD08BD00BF247208003B
S31508001E30257208000B46024A02490348FFF70ABE04
S31508001E402572080024720800B538010808B50A4644
S31508001E5002480349FFF7A6FD08BD00BF2272080025
S31508001E60237208000B46024A02490348FFF7F2BDEF
S31508001E702372080022720800DB380108022307B51E
S31508001E80D1E9001201A80193FEF74CFC18B9019993
S31508001E90024800F06DFA03B05DF804FB20720800F2
S31508001EA01FB5022003900698009003A8FEF752FC7F
S31508001EB018B90399024800F05BFA05B05DF804FB0F
S31508001EC020720800002370B5154886B00D461646E0
S31508001ED0049300F009F908B3114804A900F066F95B
S31508001EE0D0B9049B3246002B08BF0223294605A811
S31508001EF00593FEF799FC044602200BF0DDF950B174
S31508001F0002947368022101936B681F200093054AA7
S31508001F10049B0BF0C4F9204606B070BDD824EBE745
S31508001F2020720800F4380108014800F039BA00BFE9
S31508001F3029720800014800F05DB900BF297208003F
S31508001F40014800F047BA00BF05720800014800F0D2
S31508001F50A7B900BF05720800014800F0D9B900BF4B
S31508001F6028720800014800F0D1B800BF287208009E
S31508001F70032307B5D1E9001201A8019300F046F83A
S31508001F8018B90199024800F0F3F903B05DF804FBAB
S31508001F90307208001FB513460022039203AA019265
S31508001FA0202200920A46014604480FF0C7F9002885
S31508001FB014BFAC20002005B05DF804FB0900000240
S31508001FC0014B0BF0BDB800BF65D00008292828BF13
S31508001FD0002010B4074C04EB8000074CD4E8AF4F40
S31508001FE01CB1A4465DF8044B60475DF8044B0BF042
S31508001FF06CB900BF3F390108A8120020024BD3E88C
S315080020008F0FC0B2704700BFD036002070B50446A7
S315080020108AB000680D4616460BF058F910220021C2
S3150800202006A810F0A8FA23680B4A03930123CDE902
S3150800203001234FF4007309493246CDE9043101A85A
S3150800204029466B460FF012F9014618B1044807F005
S315080020501DFFAC200AB070BD002480000010C0042B
S31508002060E339010837B50E4D2C686CB903232246AF
S315080020702146009301200B4B0CF047FB23462246D2
S31508002080214628600CF08FFB286808B910F0F2F991
S315080020904FF0FF3103B0BDE830400CF002BD00BF81
S315080020A0FC120020AC120020064B10B5186808B9BF
S315080020B010F0E0F90023BDE810401A4619460CF066
S315080020C072BB00BFFC12002050B1064B984205D0E7
S315080020D0C0B200F5300040F0A060704740F2012021
S315080020E0704700BF0BE000F007B50146064801AB94
S315080020F06A46006809F01CFDFFF7E6FFB0FA80F0B3
S31508002100400903B05DF804FB543600207FB5002370
S3150800211004460D468DF807300BF0E9F8C0B10E4EAF
S3150800212003AB2146306802AA09F002FDFFF7CCFF8F
S3150800213060B9039B214630680DF1070209F056FC89
S31508002140FFF7C2FF10B99DF807302B7004B070BDB9
S3150800215040F20120FAE700BF543600207FB500237D
S3150800216004460D46ADF806300BF0C1F8C0B10E4E68
S3150800217003AB2146306802AA09F0DAFCFFF7A4FF90
S3150800218060B9039B214630680DF1060209F02EFC62
S31508002190FFF79AFF10B9BDF806302B8004B070BD62
S315080021A040F20120FAE700BF543600207FB500232D
S315080021B004460D4603930BF09AF8B0B10C4E02ABE9
S315080021C02146306801AA09F0B3FCFFF77DFF50B934
S315080021D0029B2146306803AA09F008FCFFF774FF42
S315080021E008B9039B2B6004B070BD40F20120FAE7E2
S315080021F0543600202DE9F0431D46002385B02B6098
S3150800220007460E4691460BF072F800283ED0DFF8D6
S315080022108C8003AB3946D8F8000002AA09F088FC7E
S31508002220FFF752FF0446B8B9039B93B3C6B14B45B3
S3150800223031D232463946D8F8000009F0D7FBFFF705
S3150800224043FFD8B9039B012B03D13378003B18BF52
S31508002250012300222B60F254204605B0BDE8F08326
S31508002260012B01D02B60F7E73946D8F800000DF1AD
S31508002270070209F0BBFBFFF727FF08B10446EBE7A7
S315080022809DF8073003B103982860E5E740F201247A
S31508002290E2E71E24E0E71924DEE700BF54360020F3
S315080022A02DE9F7431D4600232B6006460F46904648
S315080022B00BF01DF800B3DFF8549001AB6A463146BF
S315080022C0D9F8000009F034FCFFF7FEFE044678B999
S315080022D0019BA3B167B1434513D83A463146D9F8AD
S315080022E0000009F083FBFFF7EFFE60B9019B2B6046
S315080022F0204603B0BDE8F08340F20124F8E71E2427
S31508002300F6E71924F4E70446F2E700BF543600203E
S3150800231013B504468DF807100AF0E9FF58B10748C7
S315080023200123214600680DF1070209F015FBFFF7A6
S31508002330CBFE02B010BD2F20FBE700BF54360020AD
S3150800234013B50446ADF806100AF0D1FF58B1074890
S315080023500223214600680DF1060209F0FDFAFFF78F
S31508002360B3FE02B010BD40F20120FAE75436002051
S3150800237013B5044601910AF0BAFF58B10423074879
S315080023800DEB03022146006809F0E6FAFFF79CFE0A
S3150800239002B010BD40F20120FAE700BF5436002013
S315080023A010B504460AF0A3FF68B179B10848012AB6
S315080023B01346006838BF01230A46214609F0CCFABD
S315080023C0FFF782FE10BD40F20120FBE72F20F9E758
S315080023D05436002010B504460AF089FF58B101B9F1
S315080023E062B90748134600680A46214609F0B4FA56
S315080023F0FFF76AFE10BD40F20120FBE72F20F9E740
S31508002400543600200348044A0449121A92100AF066
S31508002410A8BF00BF700100081C0300085C34002038
S3150800242008B500F02FF8FFF7EDFF124B12498B4263
S3150800243012D30020114B12498B4218D3FEF7D8F855
S31508002440186850F82240586840F8224001329868C7
S315080024508242F5D30C33EAE70022F8E71C6844F811
S31508002460220001325C68A242F8D30833E4E700226E
S31508002470F8E700BF1C4C0108284C0108284C010845
S31508002480284C01084FF48041124B134A70B59A60E4
S31508002490D3F88820114D42F47002C3F88820104AF8
S315080024A005F5005491664FF0FF3222660D4A6266C2
S315080024B00222C3F8D020BFF34F8FBFF36F8F4FF4BC
S315080024C04036002002F0FEF80020E66002F0ECF844
S315080024D02E6170BD00ED00E0000000080080004499
S315080024E000900050F7FF3700014B1868704700BF8F
S315080024F010360020084B1B6F03F00703022B04D08D
S31508002500032B05D0012B05D0FEE7044B186870474E
S31508002510034BFBE703487047008000501036002045
S3150800252018360020002D310108B5FFF7E3FF054BEB
S315080025301B6FC3F303330133B0FBF3F0024B186090
S3150800254008BD00BF008000500C36002000487047C8
S3150800255000B4C404014B1868704700BF1836002041
S3150800256000487047002D31014FF0B4439868C0F316
S3150800257004400C280AD8DFE800F00B090909090904
S31508002580072119091B1D1F000F48704700207047B7
S315080025909B6803F04073B3F1807F11D0B3F1007FDD
S315080025A010D00A4A002B08BF1046704708487047E3
S315080025B008487047084870470848704708487047F1
S315080025C00848704708487047405DC60000093D0046
S315080025D0C0EA210180BA8C010048E801005A62026B
S315080025E00024F40080841E0040420F00014B186846
S315080025F0704700BF1436002070B594002246054681
S315080026000E4610F05DFF431C0AD058B922463146E3
S3150800261028460FF086FF0028034808BF002070BD33
S315080026200248FCE70248FAE710E000F021E000F073
S3150800263024E000F010B5044610F03EFF431C10D00D
S3150800264088B900F07BFD234620F003002044984219
S3150800265001D1002010BD53F8042B0132F7D00348EE
S31508002660F8E70348F6E70348F4E700BF0EE000F092
S3150800267021E000F024E000F0044BD3F88420D206D1
S31508002680FBD4D3F88400C0F3811070470040005093
S3150800269038B5104B0546D3F880300C4603F00303D3
S315080026A0022B0BD0032B0DD0012B0FD1FFF722FFE6
S315080026B00E2305B1286004B1236038BDFFF754FF27
S315080026C00723F6E7FFF710FF0623F2E7002318466D
S315080026D0EFE700BF0080005038B5184B0546D3F821
S315080026E020010C4600F00700062823D8DFE800F092
S315080026F0040A0E16121A1E00012305B1286004B139
S31508002700236038BDFFF7F0FE0523F6E7FFF722FF43
S315080027100323F2E7FFF728FF0723EEE7FFF720FF7B
S315080027200223EAE7FFF7E0FE0623E6E7FFF712FFD4
S315080027300423E2E700231846DFE700BF00800050C5
S3150800274038B5174B0546D3F828310C4603F007036E
S31508002750013B052B20D8DFE803F003131B0F0B17EB
S31508002760FFF7C2FE052305B1286004B1236038BD12
S31508002770FFF7BAFE0623F6E7FFF7F6FE0723F2E7AA
S31508002780FFF7E8FE0323EEE7FFF7E4FE0423EAE794
S31508002790FFF7E6FE0223E6E700231846E3E700BF55
S315080027A00080005073B50D460021114B0191D3F8F6
S315080027B08041064604F00304022C13D0032C0CD0E7
S315080027C0012C13D101A8FFF787FF10240EB1019B36
S315080027D0336005B12C6002B070BDFFF7C5FE072453
S315080027E00190F3E7FFF7BCFE0190EFE70C46EDE733
S315080027F000800050002337B50193164B0546D3F8E1
S3150800280020320C4603F00703042B21D8DFE803F037
S31508002810030B11161B0001230DB1019A2A6004B19E
S31508002820236003B030BD002101A8FFF789FF1223FA
S31508002830F2E7FFF799FE07230190EDE70AF09CFD02
S315080028400A230190E8E7FFF7D1FE09230190E3E7A1
S315080028500023E1E70080005038B5104B0546D3F851
S3150800286040310C4603F00303022B0BD0032B0DD08B
S31508002870012B0FD10AF080FD0A2305B1286004B1A7
S31508002880236038BDFFF7B2FE0923F6E70AF077FDA5
S315080028900C23F2E701230020EFE700BF0080005079
S315080028A0002337B50193164B0546D3F860320C461C
S315080028B003F00703013B032B1FD8DFE803F0020EE2
S315080028C01914002101A8FFF707FF10230DB1019A7B
S315080028D02A6004B1236003B030BD002101A8FFF7C8
S315080028E0BBFF1123F2E7FFF73FFE07230190EDE751
S315080028F0FFF736FE02230190E8E70023E6E700BF6C
S3150800290000800050002337B50193164B0546D3F8CF
S3150800291094320C4603F00703013B032B1FD8DFE86C
S3150800292003F0020E1914002101A8FFF7D5FE1023A3
S315080029300DB1019A2A6004B1236003B030BD0021AD
S3150800294001A8FFF789FF1123F2E7FFF70DFE07231A
S315080029500190EDE7FFF704FE02230190E8E7002364
S31508002960E6E700BF0080005038B5144B0546D3F89B
S3150800297000020C4600F0070004281BD8DFE800F028
S3150800298003090D111500012305B1286004B1236060
S3150800299038BD0AF0F1FC0A23F6E7FFF727FE0923FC
S315080029A0F2E70AF0ECFC0C23EEE7FFF7BDFD0F2378
S315080029B0800AE9E700231846E6E700BF00800050D2
S315080029C038B5144B0546D3F808020C4600F0070044
S315080029D004281BD8DFE800F003090D1115000123B0
S315080029E005B1286004B1236038BD0AF0C5FC0A2386
S315080029F0F6E7FFF7FBFD0923F2E70AF0C0FC0C2314
S31508002A00EEE7FFF791FD0F23800AE9E70023184652
S31508002A10E6E700BF0080005038B5104B0546D3F8EE
S31508002A2040320C4603F00303022B0BD0032B0DD0C8
S31508002A30012B0FD10AF0A0FC0A2305B1286004B1C6
S31508002A40236038BDFFF7D2FD0923F6E70AF097FCA5
S31508002A500C23F2E701230020EFE700BF00800050B7
S31508002A6038B5104B0546D3F860310C4603F003031E
S31508002A70022B0BD0032B0DD0012B0FD10AF07CFCB7
S31508002A800A2305B1286004B1236038BDFFF7AEFDFF
S31508002A900923F6E70AF073FC0C23F2E7012300206A
S31508002AA0EFE700BF00800050B0F5207F1FD009D89F
S31508002AB0B0F5007F15D003D868B1B0F5C07F0AD04D
S31508002AC000200CE0B0F5607FFAD10B4BD3F88000FC
S31508002AD0C0F3011003E0084B186FC0F30330013050
S31508002AE07047054BD3F89000C0F30460F7E7024B34
S31508002AF0186FC0F38020F2E70080005002464FF4BA
S31508002B008030104B10B598660020FFF7CDFF504374
S31508002B1041F671320C4BDC69DA635A6804F4803486
S31508002B2022F4401259B90949884294BF002001206D
S31508002B30000502435A600CB10022DA6310BD04494D
S31508002B40F2E700BF0090005000000350005A6202EE
S31508002B50002D31011FB5002180280446CDE900115A
S31508002B6000F0998029D8002800F09980A0F1200467
S31508002B703D2C35D83D2C33D8DFE804F0919991994E
S31508002B80A9A9A9A9A999B33CC9603C9999993232CE
S31508002B9032323232323299999968D3993232323294
S31508002BA0323232323232323232A9919191CE3C3CB3
S31508002BB0D8774DAE323232323288B0F5B06F00F087
S31508002BC090802DD8B0F5207F71D00CD8B0F5C07F95
S31508002BD065D0B0F5007F65D0B0F5807F00F08680BF
S31508002BE0009804B010BDB0F5607F6BD00DD8B0F575
S31508002BF0407FF5D1FFF798FC02464FF42070FFF7A7
S31508002C0053FFB2FBF0F252085AE0B0F5806F5ED07F
S31508002C10B0F5A06FE4D100216846FFF7EBFDDFE7CA
S31508002C20B0F5106F78D016D8B0F5E06F79D00AD81D
S31508002C30B0F5C06F6BD0B0F5D06FD1D10021684622
S31508002C40FFF792FECCE7B0F5F06FC9D100216846D0
S31508002C50FFF706FFC4E7B0F5406F3DD013D8B0F5CF
S31508002C60206F63D0B0F5286FBAD10021324B03919B
S31508002C70D3F8703203F00303012B02D103A8FFF740
S31508002C80EBFD039B3CE0B0F5486FA9D100216846EF
S31508002C90FFF738FEA4E7FFF72DFC0090A0E7FFF743
S31508002CA043FCFAE7FFF726FC0246204604E0FFF756
S31508002CB03BFC02464FF42070FFF7F6FEB2FBF0F23B
S31508002CC000928DE701A8FFF7E3FC019AEDE70021E2
S31508002CD06846FFF701FD83E700216846FFF730FDE8
S31508002CE07EE700216846FFF75DFD79E74FF0E023B0
S31508002CF002911B695B0705D5FFF716FC0290029B3C
S31508002D0000936DE703A902A8FFF7A6FDF7E70021E0
S31508002D106846FFF7A1FD63E700216846FFF750FE06
S31508002D205EE700216846FFF777FE59E70021684607
S31508002D30FFF7B6FD54E700BF0080005008B58020B5
S31508002D40FFF708FF034B98429EBF4FF48032024BB1
S31508002D501A6708BD005A620200A00050B0F5207F2D
S31508002D6010B50C465DD008D8B0F5007F4ED003D814
S31508002D70C0B1B0F5C07F15D010BDB0F5607FFBD1EE
S31508002D802C4B4C1ED3F8FC202B4912F0807F4FEABF
S31508002D90041427D1D1F8803023F030032343C1F837
S31508002DA08030E9E70AF01FFB0AF02BFB4FF480316D
S31508002DB0224B214A1967136F013C23F4704343EAF7
S31508002DC004331367FFF7B0FB0446FFF755FCC0F161
S31508002DD0020120460AF00FFB00F042F8BDE8104059
S31508002DE0FFF7ACBFD3F8FC2022F08072C3F8FC20B2
S31508002DF0D1F8802022F030022243C1F88020D3F88F
S31508002E00FC2042F08072C3F8FC20B5E70A4A4C1E43
S31508002E10D2F8903023F0F85343EA0463C2F89030AE
S31508002E20AAE7054A4C1E136F23F4806343EA8423FA
S31508002E301367A1E700ED00E0008000500090005005
S31508002E4008B50121022000F02FF80AF0CCFA0AF0A2
S31508002E50D8FA4FF48032014B1A6708BD009000502B
S31508002E6008B54FF4C070FFF775FEBDE80840044981
S31508002E70884294BF012102214FF42070FFF76EBFEC
S31508002E8080F0FA02024A536B0342FCD1704700BF36
S31508002E9000400950034A0179D36E23F030030B43EF
S31508002EA0D366704700400050F8B504461C4BD3F86B
S31508002EB08420D106FBD4D3F88430C3F381139C4213
S31508002EC02CD0FFF717FB012C064602D121460AF043
S31508002ED092FA0AF01BFA4FF00072124B07465A662E
S31508002EE020460AF0AAFA4FF480630D4D621E9340FD
S31508002EF02B676B6E9A0103D4D5F884309B060AD5E6
S31508002F0038460AF007FA022C08D13046BDE8F840E0
S31508002F1000210AF070BAD5F88430EAE7F8BD00BF98
S31508002F20004000500060005010B50C4608B9FFF785
S31508002F30E1FA074B21461B783BB1064B984204D869
S31508002F400120BDE81040FFF7AFBF0220F9E700BF38
S31508002F50B6330020005A62024FF0004238B5244BBF
S31508002F60244C5A664AF6CD33656C014605F00105D0
S31508002F70236428BB0120FFF785FF6368DB0715D5A7
S31508002F801D4B586008461D4B226BD2070CD498423D
S31508002F9008D1072415B1174B194A1A640AF04EFAD4
S31508002FA0204638BD0130EFE79842F2D00024F1E719
S31508002FB00132236B13F0080305D08A42F8D1E8E7FB
S31508002FC000220E49F5E78A42E3D020210A4A916297
S31508002FD00121A2F5805251600649084A886A80068E
S31508002FE003D49342D5D00133F8E79342DDE700BF17
S31508002FF000900050004009500060095040420F0000
S315080030003254FFFF4FF0004238B5164B01465A6658
S315080030104AF6CD33144C154A656C236443780B2065
S315080030205B0043F00103D363FFF72CFF63688A78DC
S3150800303023F4F87343EA02136360CA784B7943EAC8
S315080030400223A3600A798B7943EA0223236108786D
S31508003050FFF782FFEB0744BF054B23640AF0EEF93E
S31508003060012038BD00900050004009500040005033
S315080030703254FFFF4FF00042124B70B55D6E03F5F8
S3150800308080535A664AF6CD3304460F4980204E6C63
S315080030900B64FFF7F7FE0B6A23F00F030F2C94BFA0
S315080030A0234343F00F030B62F30744BF074B0B643C
S315080030B0002DA2BF4FF00042054B5A660AF0BEF932
S315080030C070BD00BF00800050004009503254FFFF19
S315080030D000A000504FF48032054B9A6641F67132D3
S315080030E003F51C33DA63012203F50053DA607047EF
S315080030F00090005041F671320121064BDA6303F560
S315080031000052D1600022DA634FF48032A3F51833F7
S315080031109A667047000003504FF48032064B5A6691
S3150800312003F5E6239B69C3F38512827003F03F0219
S315080031301B0B427003707047009000500120034B30
S315080031409B680A3303F01F03984070470080E00F1E
S315080031502DE9F04101F0F2FE0128074624D901F0D5
S3150800316021FF051E03DA01242046BDE8F081204B25
S315080031701B78002B3AD100244FF050081D4E06F15B
S3150800318010033046C6E90044B360C6F80C8001F067
S3150800319059FF306680B90124012FE5D9284601F088
S315080031A023FF0028E0DADEE7114B1B7803F0FF0562
S315080031B0002BE0D00024D7E70F4E214606F1100376
S315080031C032460120C6E90044C6E9023802F004F88E
S315080031D030660028DFD00321412001F081FA412022
S315080031E001F062FA0122024B1A70D5E70024D5E7EE
S315080031F0B733002014140020B013002008B501F0DE
S315080032009DFE02280FD1094B4FF0FF31186E01F0D1
S3150800321063FF002814BF0120002003D14FF4806209
S31508003220034B9A6608BD0020F8E700BF1414002077
S31508003230009000504FF4806208B5084B9A6601F07A
S315080032407DFE022807D1064B186E01F075FF00387F
S3150800325018BF012008BD0020F9E700BF00A00050F4
S315080032601414002008B54FF098435B6CD90208D5B2
S3150800327001F064FE0238012803D8094B186E02F0E3
S3150800328039F84FF098435A6CD202FCD55B6D054A63
S3150800329003F4702313604120BDE8084001F012BA18
S315080032A0B01300201C36002010B5044600283BD079
S315080032B0FFF7A4FF002838D120460AF02AFB94F825
S315080032C0203043B94FF098435A6CD202FCD55C6D56
S315080032D004F4702412E04FF09844A36D43F00203FF
S315080032E0A36501F02BFE022810D0A36D23F002037C
S315080032F0A3654FF4A0220D4B1C681A60FFF79AFFCE
S315080033009CB12046BDE810400AF099B8084B4FF02A
S31508003310FF31186E01F0B8FFA36D23F00203A36511
S315080033200028E6D0012000E0212010BD1C36002030
S31508003330B01300202DE9FF474FF000080E46174648
S315080033400446CDF80080002859D022B90025284621
S3150800335004B0BDE8F087002951D032F0030902F025
S31508003360030A1FD04FF0E063C0E90038012301913A
S31508003370C0F808800293C0F81C8049F0005301A9E0
S3150800338003930AF0B3FA494620460AF0B9FA2046EA
S31508003390FFF78AFF054628B14A46414630460FF0F0
S315080033A0EAF8D4E7BAF1000FD0D04FF000084FF092
S315080033B0E063C4E900380123CDF804D00293114B29
S315080033C0204601A9C4F80880C4F81C8003930AF0B3
S315080033D08DFA042120460AF093FA2046FFF764FF87
S315080033E0054608B13A46D8E7009A4E44EB0001353F
S315080033F022FA03F3AA4506F8013BF7D1A6E72125E9
S31508003400A5E700BF040000202DE9F04190460278A8
S315080034100C46022A8AB032D0032A35D0012A38D17E
S3150800342014271D4A00F10C05226000229E01C4E9FA
S315080034300122E261314620460AF062FA012320465B
S3150800344047F0005704A946F00056CDF804800293C9
S3150800345003960495059306970795089309970AF026
S315080034603BFA204601A90AF037FA204607A90AF0CE
S315080034703DFA2046FFF718FF0AB0BDE8F08120277D
S31508003480064A00F10C05CFE72027054A00F10C058E
S31508003490CAE72120F0E700BF000201030003010389
S315080034A00004010310B591B188B10023C0E90133C6
S315080034B0084B00F10C0203F1200153F8044B8B4230
S315080034C042F8044BF9D101230370002010BD2120D6
S315080034D0FCE700BFBE3A010810B591B188B10023D8
S315080034E0C0E90133084B00F10C0203F1200153F83F
S315080034F0044B8B4242F8044BF9D102230370002097
S3150800350010BD2120FCE700BF793A010810B591B13A
S3150800351088B10023C0E90133084B00F10C0203F11E
S31508003520200153F8044B8B4242F8044BF9D103238C
S315080035300370002010BD2120FCE700BF9A3A01085D
S315080035402DE9F04F0D46914604468BB000285ED013
S3150800355000295CD0002A5AD00278022A0CD0032A05
S315080035604DD0012A53D114262B4900F10C0B00F13A
S3150800357004082C34374607E020261C27274900F183
S315080035800C0B00F104082C349F4240D8D8F80420CC
S31508003590002A3ED1D8F80030284603F03F0AC5E98C
S315080035A00012AA60EA6151460AF0AAF92846D8F834
S315080035B000100AF0A5F901224AF00053284601A98D
S315080035C046F0005647F00057CDF804B0029203962D
S315080035D0049405920693CDF81C90089209970AF070
S315080035E07BF9284604A90AF077F9284607A90AF0BC
S315080035F07DF92846FFF758FE0BB0BDE8F08F202668
S31508003600074900F10C0B00F104082C34B2E721201D
S31508003610F2E70F20F0E700BF0002030300030303ED
S31508003620000403032DE9F04387B00D4691461E4674
S315080036300446DDF83880002836D0B8F1000F33D0BC
S3150800364002B98BBB6B1EDBB2022B2DD8174AD75C8F
S315080036500F9B9F4228D80023280200F1407000F5EE
S3150800366080703146C4E901332060E36120460AF0E0
S3150800367047F901236946204646F0005647F00057A9
S31508003680CDF8009001930296CDF80C800493059727
S315080036900AF022F9204603A90AF028F92046FFF77E
S315080036A003FE07B0BDE8F0832120FAE7BB3A01081C
S315080036B0F0B50F4616461D46044693B010B92120AC
S315080036C013B0F0BD0029FAD0002AF8D0002BF6D0A6
S315080036D0002331461A46384609F097FF0028EFD1ED
S315080036E0304602A909F03EFF0028E9D13868344976
S315080036F0029A88426B695ED19342E0D32B68002B0D
S31508003700DDD14FF060623846C4E90023A360E36167
S3150800371001A909F0D5FF0028D2D10199204621F444
S31508003720F06101910AF0ECF86946284609F0C8FFED
S315080037300028C5D1204600990AF0E2F8384609A9BA
S315080037400AF06CF80028BBD1204609A90AF0C4F88B
S3150800375038460CA90AF06DF80028B1D120460CA904
S315080037600AF0BAF8EB684BB1284606A90AF056F8EB
S315080037700028A5D1204606A90AF0AEF8304603A9C6
S315080037800AF057F800289BD1204603A90AF0A4F8A6
S3150800379028460FA90AF04DF8002891D120460FA90E
S315080037A00AF0A4F803252046FFF77EFD012887D1F5
S315080037B0013DF8D184E7B3EB420F9FD27FE700BF04
S315080037C0200000B070B50E46154604468AB000289B
S315080037D05CD000295AD0002A58D0012329461A4617
S315080037E0304609F012FF00284ED1B36813F4C04FD3
S315080037F04CD0AB6803F4C043B3F5005F46D1254B04
S31508003800A060C4E90030E06107A9304609F058FF16
S31508003810002839D1204607990AF072F80123029345
S315080038204FF00053204601A903930AF055F8304695
S3150800383004A909F0FEFF38BB204604A90AF04CF893
S31508003840EB681BBBAB6803F4C043B3F5005F1DD13F
S315080038506946284609F0A9FEB0B9009B6A699A42EA
S3150800386016D32A6943F0005307920122204607A976
S315080038700892032509930AF039F82046FFF714FD44
S31508003880012801D1013DF8D10AB070BD2120FBE71E
S315080038901D20F9E7000001022DE9F04391B00D461D
S315080038A0DDE918760446DDF8688000286DD0002921
S315080038B06BD0002F69D0B8F1000F66D0096801F007
S315080038C07041B1F1404F5BD0002B5BD1531E022BE8
S315080038D05BD8120202F1C06202F580720023284604
S315080038E0C4E901332260E3610DA909F0E9FE002865
S315080038F043D120460D990AF003F83146204609F0CF
S31508003900FFFF284601A909F089FF002835D120467E
S3150800391001A909F0E1FF284604A909F08AFF60BB5E
S315080039204FF00109204604A909F0D6FF46F00056D3
S31508003930204607A90797CDF82090099609F0CCFFED
S315080039402B680A9703F07043B3F1404FCDF82C90DB
S315080039500C9603D120460AA909F0BEFF0123CDF82B
S3150800396034800E931B9B204643F000530DA90F93FA
S3150800397009F0BCFF2046FFF797FC11B0BDE8F083BD
S31508003980034AABE74FF0C062A8E72120F5E700BF7E
S31508003990000002062DE9F0418CB00D46DDE91286DD
S315080039A00446149F002867D0002965D0B8F1000F97
S315080039B062D0002F60D0896889045DD5296801F036
S315080039C07041B1F1404F4DD0002B4DD1531E022B03
S315080039D052D82A4B03EB022200232846C4E90133B6
S315080039E02260E36109A909F06BFE002837D1204659
S315080039F0099909F085FF3146204609F081FF694695
S31508003A00284609F00BFF50BB6946204609F064FFBB
S31508003A10284603A909F00DFF08BB204603A909F0AB
S31508003A205BFF012346F00056CDF8188007930896E9
S31508003A3009970A93159B43F000530B932B6803F0E1
S31508003A407043B3F1404F11D109A9204609F044FF4C
S31508003A5006A9204609F040FF2046FFF725FC0CB0D2
S31508003A60BDE8F081064AB7E7064AB5E706A9204643
S31508003A7009F032FF09A9ECE72120F0E70001010669
S31508003A80000003060000010610F1860F1BD010F196
S31508003A90850F08DA10F1930F18D010F1870F07D0A9
S31508003AA04FF0FF307047003818BF0120404270477A
S31508003AB0094B99420DD0043399420CBF6FF073003D
S31508003AC06FF06D0070476FF0710070476FF06F0010
S31508003AD070476FF07200704705000002012910B5A3
S31508003AE00CDC084C084B00290CBF2146194600F08F
S31508003AF061FD2146BDE81040FFF7C6BF6FF07300B1
S31508003B0010BD00BF090000020800000208B50AF04F
S31508003B105FFBBDE808400149FFF7B6BF0900000290
S31508003B20002307B52022019301AB0AF06DFB034978
S31508003B3003B05DF804EBFFF7A7BF00BF090000025A
S31508003B4010B5044C214600F035FD2146BDE810406D
S31508003B50FFF79ABF0500000208B50AF039FBBDE871
S31508003B6008400149FFF790BF05000002002307B58A
S31508003B701422019301AB0AF047FB034903B05DF831
S31508003B8004EBFFF781BF00BF0500000238B5134DEF
S31508003B90FFF7DEFA124B134A1349144805F03AFAAE
S31508003BA02B7803F0FF04BBB901F0C8F9012802D944
S31508003BB001F0F8F904462B782BB90D4B0D481B6814
S31508003BC0984701232B7001F0B9F9012804D920463A
S31508003BD0BDE8384001F008BA38BD00BFB833002048
S31508003BE05DD9000883D90008C3D90008ADD90008F3
S31508003BF04C360020982100200123A0F50320064A10
S31508003C00A0F58070410900F01F00834052F821009A
S31508003C10034342F821307047781400202DE9F04715
S31508003C2080460F461E46154688B00AB10023136023
S31508003C300EB1002333604FF0100ADFF8B090CDF8CC
S31508003C4000A000233A464146D9F8000007F01CFFB9
S31508003C500446F8B93B68214A93422ED14FF0180A18
S31508003C600146524602A80EF086FCCDF800A023466F
S31508003C704146D9F8000002AA07F006FF044648B9EB
S31508003C80069B7B60DDE90423C7E90223144B3B60EE
S31508003C9025B9144C204608B0BDE8F087114CC5F884
S31508003CA000A0002EF6D033464146D9F8000002AAF5
S31508003CB007F03EFF60B10446ECE7094A1DB9934296
S31508003CC0E8D0094CE6E79342C5F800A0E9D0F8E742
S31508003CD033682A689B1A3360DCE700BFD175E105B3
S31508003CE0105D175EFEDF00F0FFDF00F0543600209F
S31508003CF02DE9F04F93B00746884605F05DFD04466A
S31508003D00002848D1384E3378FBB90146402202A82C
S31508003D100EF031FC354D364A2B461035AA4228BFDF
S31508003D202A463448013A00920068102202A90FF088
S31508003D3029FA4FF0000982460DF1080BCA4512D13F
S31508003D402D4B9D42E7D1012333702C4E337B8BB12B
S31508003D50D6E90023984508BF97420BD1B56828468F
S31508003D6013B0BDE8F08F5BF8040BFFF745FF09F1C8
S31508003D700109E3E7DFF89090DFF890A0DFF890B04C
S31508003D80630959F8233004F01F02D340DB0704D433
S31508003D900134812CF4D11A4DE1E7002304F50325FB
S31508003DA005F580751A46284602A9FFF737FF08B1B8
S31508003DB050450BD1DDE90423984508BF9742E7D162
S31508003DC00123C6E900783373B560C8E70D4B9842FE
S31508003DD001D05845DCD1074B2946186807F0ECFE98
S31508003DE00028D5D0D7E700BFB93300200031080036
S31508003DF08131080054360020903108000010002058
S31508003E0082310800FFDF00F078140020FEDF00F0A2
S31508003E1011E000F070B5124D2B7803F0FF04CBB912
S31508003E2001F08CF8012802D901F0BCF804462B7879
S31508003E304BB90C48436D43F0010343650A4B1B68B5
S31508003E40984701232B7001F079F8012802D92046FA
S31508003E5001F0CAF8BDE87040044B02481B681847D1
S31508003E60BA3300208C1400204C360020443600203B
S31508003E70034B1B781BB1034B03481B681847704755
S31508003E80BA330020403600208C1400202DE9F84F64
S31508003E90994640F26C739A4283460E461746DDF8F9
S31508003EA028A074D812B1B9F1000F73D0BAF1010F76
S31508003EB073D8FFF7AFFF31465846FFF719FF07F1EA
S31508003EC010080546414601200AF081FA04460028F2
S31508003ED05AD0424600210EF04EFB314B9D4234D952
S31508003EE030480368D90713D42F4D304BC4E902B6BE
S31508003EF02360002614E05A0950F8222003F01F0117
S31508003F00CA40D20705D405F5032505F20115ECE7E5
S31508003F1000231D460133812BEDD16FF08D06244D0C
S31508003F20C4F804A02FB13A46494604F110000EF031
S31508003F3057FB2048434622462946006807F00CFDF1
S31508003F4068B92846FFF758FE0BE0002321461A46B3
S31508003F502846FFF763FE88B1174B98420ED06FF0DC
S31508003F6091064246002120460EF005FB20460AF03F
S31508003F7010FAFFF77DFF3046BDE8F88F6368012B1E
S31508003F80B7D16FF08406ECE76FF08C06F1E76FF0B7
S31508003F909106F0E76FF08606EDE76FF08506EAE72B
S31508003FA0813108007814002000310800105D175E82
S31508003FB08231080054360020FEDF00F02DE9F04378
S31508003FC089B08146DDE910780E4615461C466BB168
S31508003FD0B8F1000F54D0002F52D0B7F1005F4FD37D
S31508003FE0C3F1005303F500339F4249D8102200213C
S31508003FF00DEB02000EF0BFFA0023CDE90233FFF7FE
S3150800400009FF31464846FFF773FE1F4B064698429E
S3150800401007D96FF08B04FFF72BFF204609B0BDE8E0
S31508004020F08302AB03AA04A9FFF7F8FD174B9842E1
S31508004030EFD028B1013B984202D06FF09104EAE72D
S31508004040029B3CB1AB4216D853EA050404D06FF084
S315080040508604E0E7AB42FAD3039B0D48C8F8004054
S3150800406000943A46314600682B4407F00DFD044695
S315080040700028E2D1CFE75B1B9C4228BF1C46EBE732
S315080040806FF08604C9E700BF81310800FFDF00F042
S315080040905436002070B506460D46144686B062B3FF
S315080040A01022002102A80EF066FA0023CDE900339B
S315080040B0FFF7B0FE30462946FFF71AFE104B984226
S315080040C006D96FF08B04FFF7D3FE204606B070BD05
S315080040D06B4601AA02A9FFF7A1FD0A4B9842F0D048
S315080040E010B1013B984205D1039B6360009B236096
S315080040F00024E8E76FF09104E5E76FF08604E4E74B
S3150800410081310800FFDF00F070B586B01022064640
S315080041100D4602A800210EF02EFA0023CDE9003341
S31508004120FFF778FE30462946FFF7E2FD204B0446A6
S31508004130984206D96FF08B04FFF79AFE204606B020
S3150800414070BD6B4601AA02A9FFF768FD194B984294
S31508004150F0D028B1013B984202D06FF09104EBE70A
S31508004160039B012B21D0144B2146186807F024FD28
S315080041700028F2D1114B1A7B32B1D3E90012AA42B8
S3150800418008BFB14208BF18730123A4F503200C4ADF
S31508004190A0F58070410900F01F00834052F8210005
S315080041A00024434042F82130C6E76FF08404C3E791
S315080041B081310800FFDF00F054360020001000208F
S315080041C078140020F8B5134642880C460732072AA9
S315080041D04FEAD20101D0A1424DD146680588C76889
S315080041E02022184600210EF0C6F9360A0346002E8C
S315080041F044D1002C3FD041F20102954205D0B5F5D5
S31508004200885F02D0B5F5905F02D15C60002011E0AE
S31508004210B5F5105F07D1182C03D0202C01D0102C2F
S3150800422029D11C60F1E705F44F42B2F5824F02D05E
S315080042306FF08500F8BDEAB2122AF9D1202CF7D121
S31508004240104A25F0FF05B5F5E24F02600CD0B5F52A
S31508004250824F10D14FF4005217F4705F09D017F44B
S31508004260864F04D09A60E3E74FF48042F4E742F4BD
S3150800427080629A60CAE76FF08600DBE76FF08B0012
S31508004280D8E700BF200000802DE9F04F9946038843
S31508004290164603F44F42B3B0B2F5824F0F46DDF827
S315080042A0F88002D06FF0850002E021B96FF0860031
S315080042B033B0BDE8F08F002EF8D0B8F1000FF5D076
S315080042C0DAB2122AEED123F0FF03B3F5E24F33D167
S315080042D04388C8F8003053BBF300C8F80030B3F57C
S315080042E0807FDFD1002318464E49BC19314411F8A6
S315080042F0015D14F8012D1043521B0CBF4FF0FF351A
S315080043000025A74203EA050343EA0203EFD1002882
S31508004310CCD0002BCADA3C9B9E427FD8324639461F
S3150800432048460EF05DF93D9B00201E60C0E7DA1D89
S31508004330B6EBD20FD3D0B9E7B3F5824F6BD10B7872
S31508004340042BB3D12422002119A80EF014F919A8B8
S3150800435009F0A3F8824600285AD101463C22229049
S3150800436023A80EF008F901234FF0400B20225146EE
S31508004370741E01A88DF888300EF0FDF87B1C2022EB
S315080043805146069409A8E400059322AD0EF0F3F809
S3150800439064082022514611A80D95CDF838B00EF0C4
S315080043A0EAF8B4F5C07FCDE9155BC8F800403FF4DC
S315080043B079AF28D8E02C03D0B4F5807F7FF476AFA8
S315080043C0194B0734019309934FF4005303934FF4A1
S315080043D08043E4080B9301AA11AB640009A919A844
S315080043E01294FFF765F9D8F800300733DB085A004E
S315080043F033B10021531E013B297005F10105FAD29C
S31508004400002888D052E7B4F5047F3FF44BAF4DE758
S315080044106FF092004CE76FF0960049E76FF089005D
S3150800442046E700BFDE3A010820000080038810B581
S3150800443003F44F42B2F5824F21F0FF0221F4FF71D7
S31508004440134C21F0010109D0A1421AD0114B9A420E
S3150800445014BF6FF085006FF0860010BDA142DBB275
S315080044600FD00C498A420CD0122B0DD14388B3F5D4
S31508004470807F09D1B2F1062F0CBF00206FF08500AE
S31508004480EBE76FF08600E8E76FF08500E5E700BF29
S315080044900002000600130006154A20F4FF7323F0F5
S315080044A0010393420ED0134B20F0FF029A4209D023
S315080044B0114920F47F7323F003038B4202D00F4B7C
S315080044C09A420FD110F0FF0011D00D4B40F000704A
S315080044D0984209D00133984208D0043BC31A58427F
S315080044E058417047002070470220704703207047E4
S315080044F00002000600130006000400060009000674
S31508004500080000022DE9F0478CB01746DDE914A42F
S3150800451098460E4609B9002A46D1B8F1000F10D1BF
S31508004520BAF1000F40D1002C3ED0214B984218D04A
S315080045300133984215D0043B984212D06FF085009B
S3150800454013E08CB31A4B984212D00133984213D019
S31508004550043B9842F2D114234FF001099A4523608F
S315080045600ED200236FF0890023600CB0BDE8F087F7
S315080045701C234FF00209F1E720234FF00309EDE76A
S3150800458003A808F08AFF054610B16FF09200ECE721
S315080045903B4632464946CDE9008A03A8FFF742F86A
S315080045A00028E2D02560F0E76FF08600DDE700BF5F
S315080045B00800000230B50D4604468BB030B3031D23
S315080045C06C22002118460DF0D6FF134A954211D0E9
S315080045D00132954214D0043A95421AD1012201A912
S315080045E02270FEF75FFF002814BF6FF092000020CC
S315080045F00BB030BD022201A92270FEF76DFFF2E76B
S31508004600032201A92270FEF781FFECE76FF086000E
S31508004610EEE76FF08500EBE70800000207B5094BE7
S3150800462018689A889B7900906846ADF804208DF83A
S315080046300630FEF7E7FC0C20FEF71CFD002003B051
S315080046405DF804FBFE3A010813B50024064A6846DD
S31508004650536F43F00103536700948DF80440FEF747
S3150800466019FC204602B010BD004000506FF004034C
S31508004670502110B50A480B4C13F0800F03F10102C4
S3150800468006D123444C2A83F800131346F4D110BDEF
S3150800469003F00F03043B034419761346ECE700BF07
S315080046A000ED00E000E100E0002807DB01234109F6
S315080046B0034A00F01F00834042F82130704700BFCC
S315080046C000E100E0002808DB01224309034900F065
S315080046D01F008240603341F82320704700E100E064
S315080046E00028ACBF00F16040064B4FEA0111C9B281
S315080046F0ABBF00F5614000F00F0080F800131954B5
S31508004700704700BF14ED00E073B508F0FFFD0D4DCE
S315080047100D4B2E781C6808F0FDFD09F09CFE38B19B
S31508004720FF2E05D00020297801AA08F012FE019C68
S315080047302CB908F0EBFD054B1C6808F0EBFD20468C
S3150800474002B070BDD1360020F0140020F414002009
S3150800475010B5044608F0DAFD024B1C6008F0DAFDD5
S31508004760002010BDF414002013B5002301241A46B6
S3150800477019461846009404F0A7FF002300941A4629
S315080047801946184604F0D2FF0248FFF7E1FF002059
S3150800479002B010BD2436002073B50024684600F028
S315080047A03BFB0C4B00981C600B4B0C4D1C600C4ED5
S315080047B00C4B306018602C6009F02BFE2046019BDC
S315080047C03268083BDB0853802B6801332B6002B044
S315080047D070BD00BFFC140020F8140020001500204E
S315080047E008150020041500202DE9F04F002615466F
S315080047F089B04A1C0C4614BF89464FF008099846EA
S315080048000796002B00F0DB801E60002800F0D98098
S31508004810C71D08F082FD27F0070B07AB214603905A
S3150800482000932A463346584600F000FB079C064686
S3150800483004B130B9039808F076FD192009B0BDE82F
S31508004840F08FDFF89CA16288DAF80010D300C0EB7D
S31508004850C2020139272A0493CAF8001040F282805E
S31508004860002D5AD183450BF1080551D049462046FB
S3150800487009F049FD81460790079A02EB050B584651
S3150800488009F0C7FD0799C5F3CF054A88ABF8045068
S31508004890521BABF80220CA88002A3BD0551BADB282
S315080048A001EBC202ABF8065095808A884849A9F8F8
S315080048B00420BBF80420FF08A9F806200A68A9F80E
S315080048C00270944208BFC1F800B042490A6894428F
S315080048D001D1C1F800B099F8002042F0010289F828
S315080048E00020DAF800200132CAF800203A4A039874
S315080048F0136833441360394A11688B4288BF1360C2
S3150800490008F011FD09F108030020C8F8003095E702
S31508004910A146B1E7ABF80620C7E704EB020948460B
S31508004920059209F076FD079C059AF108E088A9F832
S315080049300210D108A9F8041088B1049BC3EBC00182
S315080049403144C1F3CF0104EBC000A9F806108180F9
S31508004950083AD2086280B9F80420E280BBE7A9F8D1
S315080049600600F5E7012D2ED104F10802B2FBF9F194
S3150800497009FB11224AB34946204609F0C4FC814680
S3150800498099F80020DAF8003042F00102104F114D74
S3150800499089F8002083B13B689C4204D1494600202F
S315080049A000F08CFA38602B689C429FD1494601205A
S315080049B000F084FA286099E73B602B6096E722208E
S315080049C03CE721203AE78345D5D1A146D8E700BF81
S315080049D00815002004150020FC140020F8140020F7
S315080049E0001500202DE9F7430446684600F014FA3E
S315080049F0002C00F0B18008F090FC14F808CC814631
S31508004A001CF0010F00F0AA8034F8061C002900F0FB
S31508004A10A580534D34F8047CD5F800E04A1C0EF105
S31508004A200103A4F1080692B22B60002F37D0A6EB3B
S31508004A30C70393F800800CF0020C18F0010F20D180
S31508004A40BCF1000F20D15A88023111448AB2C5F848
S31508004A5000E034F802CCBCF1000F22D114F8085C4F
S31508004A60511E6FF3000504F8085C002589B224F886
S31508004A70065C5980197865F3000119700021D98000
S31508004A802FE0BCF1000F0AD014F8081C17446FF386
S31508004A90410104F8081C0021BAB29980D9E73346C7
S31508004AA0D7E706EBCC01DDE900700744B942D5D259
S31508004AB016F83C6016F001072ED014F8085C6FF360
S31508004AC0000504F8085C002524F8065C541E5C8082
S31508004AD01C7865F300041C70CC1AC4F3CF04DC8080
S31508004AE08C80204C216819B1994201D8498801B9AE
S31508004AF023601D4C216819B1994201D3498801B92F
S31508004B0023601A4948460B689B1A0B6008F00BFC91
S31508004B10002003B0BDE8F0834E884F80013632444A
S31508004B20CE8892B2B6B101EBC6012E68013E2E6060
S31508004B3014F8085C6FF3000504F8085C002524F8EF
S31508004B40065C541E5C801C7865F300041C70002902
S31508004B50C2D193E73146E8E72220DAE70120D8E711
S31508004B60001500200815002004150020FC1400205C
S31508004B702DE9F74F04460D461646002A00F03B81FC
S31508004B800023136048B9002900F0388101462846F9
S31508004B9003B0BDE8F04F09F0F6BB21B903B0BDE894
S31508004BA0F04FFFF71FBF08F0B8FB009034F8060C6B
S31508004BB0E91D4FEAC00821F00705A845A4F1080B2E
S31508004BC080F0968034F8023C002B73D00BEBC30AB6
S31508004BD01BF83330DA076DD4BAF802C0A8EB050320
S31508004BE013EBCC0366D41F2BDFF82892854F4BDDD9
S31508004BF0C1F3CF0104EB050B24F8061C013124F898
S31508004C00021C5846019309F004FC34F8021C019B67
S31508004C10ABF80410BAF80610C3F3CF03ABF80230AA
S31508004C2039B101339BB2ABF806300AEBC1018B8070
S31508004C3001E0ABF80610504609F0EBFBD9F8003056
S31508004C404BB15946002000F039F959463860012021
S31508004C5000F034F901E0002038604FF000096A4B93
S31508004C6018603460694A13682B44A3EB0803136081
S31508004C70674A11688B4200D91360009808F053FB05
S31508004C80484603B0BDE8F08FD9F8001000EB0C03D6
S31508004C9001399BB2C9F80010591C24F8061CBAF849
S31508004CA0061021B102339BB224F8023CBDE724F872
S31508004CB0021CC0E7009808F036FB32460021284659
S31508004CC009F061FB81460028DAD108F026FB074681
S31508004CD04246214630680DF083FC384608F023FB2F
S31508004CE02046FFF77FFE814608F017FB0090B9E7DC
S31508004CF07FD934F8023CA8EB0507002B4BD00BEB09
S31508004D00C3091BF83330DB0746D4C1F3CF0104EBE4
S31508004D10050A24F8061C0131504624F8021C09F03D
S31508004D2078FBB9F8023034F8022C03EBD703AAF85B
S31508004D300420B9F806209BB2AAF80230CAB101339A
S31508004D409BB209EBC202AAF806309380484609F0DE
S31508004D5060FB304B1B687BB15146002000F0AEF873
S31508004D60284B51461860012000F0A8F8264B186019
S31508004D7007E0AAF80620E9E70023224A1360224A38
S31508004D801360224B34601A681544A5EB08051D60AC
S31508004D904FF0000971E79946272FF2D9C1F3CF01E1
S31508004DA004EB050A24F8061C0131504624F8021CB7
S31508004DB009F02FFB34F8022CC7F3CF03AAF8023008
S31508004DC0AAF80420B9F1000F0FD0B9F8062062B18D
S31508004DD001339BB209EBC209AAF80630A9F80430D8
S31508004DE00C4A136801331360B5E70023AAF80630A6
S31508004DF0F6E73460CCE74FF0220941E74FF0210986
S31508004E003EE700BF0815002004150020FC1400200A
S31508004E10F8140020001500200249034A0160521ABE
S31508004E2042607047903F002000000220F0B54C1CFD
S31508004E30074608BF0821AAB91E480468002C37D0BF
S31508004E406688DB0003EBC606C1F1000C2078C007B4
S31508004E500AD52ABBE08850B304EBC004668803EB86
S31508004E60C606F3E71448E8E7BE42F2D362B904F18E
S31508004E700805B5FBF1F001FB1055E8190DB1B04274
S31508004E80E8D8059B1C60F0BD08290ED06588013559
S31508004E9004EBC505E81B00EA0C00281A8642F0D286
S31508004EA0A08820B1A4EBC004D8E73846E9E7044651
S31508004EB02046E6E7081500200415002013B5044629
S31508004EC0084621B96846FFF7A7FF74B90098037822
S31508004ED0D90708D564B9C388002BF8D000EBC300FE
S31508004EE00378DA07F7D402B010BD064B1868EEE768
S31508004EF0012CECD183880BB1A0EBC3000378DB0748
S31508004F00F8D4F0E704150020EFF3058373B9EFF33F
S31508004F101082094B12B9EFF3118212B11A68022AEC
S31508004F2004D0186828B901221A6070476FF0050086
S31508004F3070474FF0FF307047CC1A002008B500F0D4
S31508004F40F1FD38B1022804D0034B1868431E5842B5
S31508004F50584108BD0320FCE7CC1A002010B5EFF332
S31508004F600583BBB9EFF310830D4C13B9EFF3118327
S31508004F7013B12368022B0DD02368012B0DD16FF0D6
S31508004F8004000021FFF7ACFB0223236000F0A4FB1A
S31508004F90002010BD6FF00500FBE74FF0FF30F8E783
S31508004FA0CC1A002008B5EFF3058393B9EFF3108305
S31508004FB013B9EFF311831BB10A4B1B68022B08D0F8
S31508004FC000F0B0FD40B1022808D100F0BDFB00207A
S31508004FD008BD6FF00500FBE70120F9E74FF0FF3049
S31508004FE0F6E700BFCC1A002010B50446EFF3058398
S31508004FF003BBEFF3108313B9EFF311831BB1104B07
S315080050001B68022B16D000F08DFD30F0020314D178
S31508005010012C03D100F098FB204610BD6CB900F0B6
S315080050202DFC0128F8D000F07DFD841E18BF4FF036
S31508005030FF34F1E76FF00504EEE74FF0FF34EBE7D6
S31508005040CC1A002038B50546EFF3058313B10024C2
S31508005050204638BDEFF3108313B9EFF311831BB164
S315080050601C4B1B68022BF2D02DB36B681A07EED4C3
S31508005070D5E9021203F0010371B14F2AE7D993B1BA
S31508005080042009F00BFC04460028E0D0296800F04B
S315080050900DFA44F00104DBE7002AD8D1ABB10420AD
S315080050A009F026FCEFE7012009F0F8FB0446002882
S315080050B0CDD0296806E0012009F01AFC044600282C
S315080050C0C5D0294600F0F2F9C2E7012009F010FC24
S315080050D0ECE700BFCC1A0020034610B520F001000B
S315080050E00C4603F00102EFF30581E9B9EFF31081ED
S315080050F011B9EFF3118119B10E490968022913D0C4
S31508005100012B14D9214662B109F04BFD012801D1C2
S31508005110002010BD002C14BF6FF001006FF00200D4
S31508005120F7E709F0BEFCF1E76FF00500F1E76FF06D
S315080051300300EEE7CC1A0020024608B520F001006D
S3150800514002F00103EFF30581C9B9EFF3108111B934
S31508005150EFF3118119B10D49096802290FD0012A07
S3150800516010D93BB109F0AFFB01280CBF00206FF046
S31508005170020008BD1A46194609F015FBF4E76FF058
S315080051800500F6E76FF00300F3E700BFCC1A00202E
S3150800519010B5034620F00104EFF305829AB9EFF340
S315080051A0108212B9EFF311821AB10A4A1268022A5A
S315080051B009D0012B0AD9204600F08AF9204609F0C1
S315080051C035FD002010BD6FF00500FBE76FF003000A
S315080051D0F8E700BFCC1A002073B50E461546EFF364
S315080051E00583D3BBEFF3108313B9EFF311831BB118
S315080051F0244B1B68022B30D078B3B0422DD375B937
S31508005200012837D10322002109F09AFA044620B36F
S31508005210AEB96DBB2946204600F048F91EE0D5E92F
S315080052200232C3B14F2A18D901281AD10322009293
S315080052300022114609F069FA044670B1C6B1002386
S3150800524020461A46194609F0AEFA0128E1D020464A
S3150800525009F0ECFC01E0002AD2D00024204602B076
S3150800526070BD1A46314609F088FA04460028F4D07B
S315080052702D68CFE7314609F08DFA04460028C8D1D3
S31508005280EBE700BFCC1A002013B50C4668B3EFF362
S3150800529005834BB9EFF3108313B9EFF31183D3B139
S315080052A0134B1B68022B16D1FCB9214601AA01949F
S315080052B009F08EFC012803D06FF0020002B010BD81
S315080052C0019B0BB90020F9E74FF0E0234FF080521D
S315080052D0C3F8042DF6E7214609F0E3FB0128F1D0CF
S315080052E0002CE9D06FF00100E8E76FF00300E5E76E
S315080052F0CC1A002007B550B3EFF305834BB9EFF38B
S31508005300108313B9EFF31183CBB1124B1B68022B31
S3150800531015D1002301A9019309F02EFB012804D019
S315080053206FF0020003B05DF804FB019B2BB14FF050
S31508005330E0234FF08052C3F8042D0020F2E7002343
S315080053401A46194609F02FFA0128F6D0E8E76FF051
S315080053500300E7E7CC1A0020034B0360034B0B60FE
S31508005360A0231360704700BF6C1A0020EC170020BA
S31508005370034B0360034B0B60A0231360704700BF09
S315080053808C1700200C150020002307B50193054B48
S315080053901B6809F0D6F8019B002BFCD003B05DF81A
S315080053A004FB00BF303600204FF0E02200234FF404
S315080053B07A7113619361044B1B68B3FBF1F3013BEC
S315080053C053610723136170470C36002008B509F0AE
S315080053D0B8F8044A136801331360BFF34F8FBFF35D
S315080053E06F8F08BD30360020044B1A681A68013AD8
S315080053F01A60186808B909F0AFB870473036002047
S3150800540010B54FF0807440E90224184A4FF0123460
S3150800541040F80C2C4FF003324FF0023C40E90524CB
S315080054204FF0013240F8203C40E9072C4FF010338A
S315080054304FF011324FF0093440E90A324FF0083381
S315080054404FF0073C40E90C344FF006334FF0053275
S3150800545040E90E3C4FF0043340E910326FF0020386
S3150800546040F8443C40F8481D10BD00BF8953000869
S315080054704FF0E02310B50024D3F8202D42F47F0224
S31508005480C3F8202DD3F8202D42F07F42C3F8202DF3
S31508005490FFF78AFF044B1C60FAF762FF00F050FA28
S315080054A0FFF772FF204610BD30360020002330B5C6
S315080054B0064A52F8335002EBC3041DB942F83310BA
S315080054C0606030BD01330A2BF3D1FAE7D01A002009
S315080054D0002310B5084A52F83310DC00814206D181
S315080054E00021064A42F833102244516010BD0133A8
S315080054F00A2BF0D1FAE700BFD41A0020D01A0020F0
